{
  "_format": "hh-sol-artifact-1",
  "contractName": "InterestRateModel",
  "sourceName": "contracts/InterestRateModel.sol",
  "abi": [
    {
      "inputs": [
        {
          "internalType": "address",
          "name": "initialOwner",
          "type": "address"
        }
      ],
      "stateMutability": "nonpayable",
      "type": "constructor"
    },
    {
      "inputs": [
        {
          "internalType": "address",
          "name": "owner",
          "type": "address"
        }
      ],
      "name": "OwnableInvalidOwner",
      "type": "error"
    },
    {
      "inputs": [
        {
          "internalType": "address",
          "name": "account",
          "type": "address"
        }
      ],
      "name": "OwnableUnauthorizedAccount",
      "type": "error"
    },
    {
      "anonymous": false,
      "inputs": [
        {
          "indexed": false,
          "internalType": "uint256",
          "name": "newBaseRate",
          "type": "uint256"
        }
      ],
      "name": "InterestRateUpdated",
      "type": "event"
    },
    {
      "anonymous": false,
      "inputs": [
        {
          "indexed": true,
          "internalType": "address",
          "name": "previousOwner",
          "type": "address"
        },
        {
          "indexed": true,
          "internalType": "address",
          "name": "newOwner",
          "type": "address"
        }
      ],
      "name": "OwnershipTransferred",
      "type": "event"
    },
    {
      "inputs": [],
      "name": "MAX_INTEREST_RATE_BPS",
      "outputs": [
        {
          "internalType": "uint256",
          "name": "",
          "type": "uint256"
        }
      ],
      "stateMutability": "view",
      "type": "function"
    },
    {
      "inputs": [],
      "name": "MIN_INTEREST_RATE_BPS",
      "outputs": [
        {
          "internalType": "uint256",
          "name": "",
          "type": "uint256"
        }
      ],
      "stateMutability": "view",
      "type": "function"
    },
    {
      "inputs": [],
      "name": "baseInterestRateBps",
      "outputs": [
        {
          "internalType": "uint256",
          "name": "",
          "type": "uint256"
        }
      ],
      "stateMutability": "view",
      "type": "function"
    },
    {
      "inputs": [
        {
          "internalType": "uint256",
          "name": "amount",
          "type": "uint256"
        },
        {
          "internalType": "uint256",
          "name": "trustScore",
          "type": "uint256"
        }
      ],
      "name": "calculateInterestRate",
      "outputs": [
        {
          "internalType": "uint256",
          "name": "",
          "type": "uint256"
        }
      ],
      "stateMutability": "view",
      "type": "function"
    },
    {
      "inputs": [
        {
          "internalType": "uint256",
          "name": "trustScore",
          "type": "uint256"
        }
      ],
      "name": "getInterestRateForTrustScore",
      "outputs": [
        {
          "internalType": "uint256",
          "name": "",
          "type": "uint256"
        }
      ],
      "stateMutability": "view",
      "type": "function"
    },
    {
      "inputs": [],
      "name": "owner",
      "outputs": [
        {
          "internalType": "address",
          "name": "",
          "type": "address"
        }
      ],
      "stateMutability": "view",
      "type": "function"
    },
    {
      "inputs": [],
      "name": "renounceOwnership",
      "outputs": [],
      "stateMutability": "nonpayable",
      "type": "function"
    },
    {
      "inputs": [
        {
          "internalType": "uint256",
          "name": "newRate",
          "type": "uint256"
        }
      ],
      "name": "setBaseInterestRate",
      "outputs": [],
      "stateMutability": "nonpayable",
      "type": "function"
    },
    {
      "inputs": [
        {
          "internalType": "address",
          "name": "newOwner",
          "type": "address"
        }
      ],
      "name": "transferOwnership",
      "outputs": [],
      "stateMutability": "nonpayable",
      "type": "function"
    }
  ],
  "bytecode": "0x6080346100c157601f6105a338819003918201601f19168301916001600160401b038311848410176100c6578084926020946040528339810103126100c157516001600160a01b0390818116908190036100c15780156100a857600080546001600160a01b03198116831782556040519316907f8be0079c531659141344cd1fd0a4f28419497f9722a3daafe3b4186f6b6457e09080a36103206001556104c690816100dd8239f35b604051631e4fbdf760e01b815260006004820152602490fd5b600080fd5b634e487b7160e01b600052604160045260246000fdfe60406080815260048036101561001457600080fd5b600091823560e01c80630d561555146103c457806317b1867e14610317578063709ae441146102fa578063715018a6146102a05780638da5cb5b14610278578063a579678514610152578063a5b5904a14610133578063b71aa4d5146101135763f2fde38b1461008357600080fd5b3461010f57602036600319011261010f576001600160a01b0382358181169391929084900361010b576100b4610464565b83156100f557505082546001600160a01b0319811683178455167f8be0079c531659141344cd1fd0a4f28419497f9722a3daafe3b4186f6b6457e08380a380f35b51631e4fbdf760e01b8152908101849052602490fd5b8480fd5b8280fd5b83823461012f578160031936011261012f576020905160648152f35b5080fd5b83823461012f578160031936011261012f576020906001549051908152f35b5082346102755781600319360112610275576001546024938035918535610320811061023a575061012b19810190811161022857915b68056bc75e2d6310000081106101ef575060311982019182116101dd575060209350905b60648210156101c15750506064905b51908152f35b5061138890818111156101d657505b906101bb565b90506101d0565b634e487b7160e01b8352601190528382fd5b678ac7230489e8000090939293101561020d575b50602093506101ac565b90916013198101919082116101dd5750602093509084610203565b634e487b7160e01b8452601182528584fd5b6102588110610256575060951981019081116102285791610188565b610190116102645791610188565b60c881018091116102285791610188565b80fd5b83823461012f578160031936011261012f57905490516001600160a01b039091168152602090f35b83346102755780600319360112610275576102b9610464565b80546001600160a01b03198116825581906001600160a01b03167f8be0079c531659141344cd1fd0a4f28419497f9722a3daafe3b4186f6b6457e08280a380f35b83823461012f578160031936011261012f57602090516113888152f35b503461010f57602036600319011261010f57813591610334610464565b6064831015806103b8575b156103765750816020917fa90e14be5aa57b910aa6dc16c31ff1b5cda380ae25a793b0d3f74df6131a7d749360015551908152a180f35b6020606492519162461bcd60e51b8352820152601b60248201527f496e7465726573742072617465206f7574206f6620626f756e647300000000006044820152fd5b5061138883111561033f565b508234610275576020366003190112610275576001548335610320811061041d575061012b19810190811161040a57602093509060648210156101c15750505160648152f35b634e487b7160e01b825260118452602482fd5b610258811061043d5750609519810190811161040a5760209350906101ac565b6101901161044f5760209350906101ac565b60c8810180911161040a5760209350906101ac565b6000546001600160a01b0316330361047857565b60405163118cdaa760e01b8152336004820152602490fdfea264697066735822122089a578974d37f47948c0af9be57a2a1097a120427469ec90bfa55e5ea8416f7864736f6c63430008140033",
  "linkReferences": {},
  "deployedLinkReferences": {}
}