{"contracts/LoanPlatform.sol":{"LoanPlatform":{"abi":[{"inputs":[{"internalType":"address","name":"_trustScoreAddress","type":"address"},{"internalType":"address","name":"_collateralManagerAddress","type":"address"},{"internalType":"address","name":"_interestRateModelAddress","type":"address"}],"stateMutability":"nonpayable","type":"constructor"},{"inputs":[],"name":"EnforcedPause","type":"error"},{"inputs":[],"name":"ExpectedPause","type":"error"},{"inputs":[{"internalType":"address","name":"owner","type":"address"}],"name":"OwnableInvalidOwner","type":"error"},{"inputs":[{"internalType":"address","name":"account","type":"address"}],"name":"OwnableUnauthorizedAccount","type":"error"},{"inputs":[],"name":"ReentrancyGuardReentrantCall","type":"error"},{"anonymous":false,"inputs":[{"indexed":true,"internalType":"uint256","name":"loanId","type":"uint256"},{"indexed":true,"internalType":"address","name":"borrower","type":"address"},{"indexed":false,"internalType":"uint256","name":"amount","type":"uint256"},{"indexed":false,"internalType":"uint256","name":"interestRateBps","type":"uint256"},{"indexed":false,"internalType":"uint256","name":"dueDate","type":"uint256"},{"indexed":false,"internalType":"string","name":"purpose","type":"string"}],"name":"LoanCreated","type":"event"},{"anonymous":false,"inputs":[{"indexed":true,"internalType":"uint256","name":"loanId","type":"uint256"},{"indexed":true,"internalType":"address","name":"borrower","type":"address"},{"indexed":false,"internalType":"uint256","name":"remainingAmount","type":"uint256"}],"name":"LoanDefaulted","type":"event"},{"anonymous":false,"inputs":[{"indexed":true,"internalType":"uint256","name":"loanId","type":"uint256"},{"indexed":true,"internalType":"address","name":"borrower","type":"address"},{"indexed":false,"internalType":"uint256","name":"principalPaid","type":"uint256"},{"indexed":false,"internalType":"uint256","name":"interestPaid","type":"uint256"},{"indexed":false,"internalType":"uint256","name":"lateFeePaid","type":"uint256"},{"indexed":false,"internalType":"bool","name":"fullyRepaid","type":"bool"}],"name":"LoanRepaid","type":"event"},{"anonymous":false,"inputs":[{"indexed":true,"internalType":"address","name":"previousOwner","type":"address"},{"indexed":true,"internalType":"address","name":"newOwner","type":"address"}],"name":"OwnershipTransferred","type":"event"},{"anonymous":false,"inputs":[{"indexed":false,"internalType":"address","name":"account","type":"address"}],"name":"Paused","type":"event"},{"anonymous":false,"inputs":[{"indexed":true,"internalType":"uint256","name":"loanId","type":"uint256"},{"indexed":true,"internalType":"address","name":"borrower","type":"address"},{"indexed":false,"internalType":"uint256","name":"amount","type":"uint256"},{"indexed":false,"internalType":"uint256","name":"lateFeePayment","type":"uint256"},{"indexed":false,"internalType":"uint256","name":"interestPayment","type":"uint256"},{"indexed":false,"internalType":"uint256","name":"principalPayment","type":"uint256"},{"indexed":false,"internalType":"bool","name":"loanClosed","type":"bool"}],"name":"RepaymentApplied","type":"event"},{"anonymous":false,"inputs":[{"indexed":false,"internalType":"address","name":"account","type":"address"}],"name":"Unpaused","type":"event"},{"inputs":[],"name":"GRACE_PERIOD","outputs":[{"internalType":"uint256","name":"","type":"uint256"}],"stateMutability":"view","type":"function"},{"inputs":[],"name":"LATE_FEE_BPS","outputs":[{"internalType":"uint256","name":"","type":"uint256"}],"stateMutability":"view","type":"function"},{"inputs":[],"name":"MAX_LATE_FEE_BPS","outputs":[{"internalType":"uint256","name":"","type":"uint256"}],"stateMutability":"view","type":"function"},{"inputs":[{"internalType":"address","name":"","type":"address"},{"internalType":"uint256","name":"","type":"uint256"}],"name":"borrowerLoans","outputs":[{"internalType":"uint256","name":"","type":"uint256"}],"stateMutability":"view","type":"function"},{"inputs":[{"internalType":"uint256","name":"loanId","type":"uint256"}],"name":"calculateRepaymentAmount","outputs":[{"internalType":"uint256","name":"totalPayable","type":"uint256"},{"internalType":"uint256","name":"lateFee","type":"uint256"},{"internalType":"uint256","name":"interestAccrued","type":"uint256"},{"internalType":"uint256","name":"principalRemaining","type":"uint256"}],"stateMutability":"view","type":"function"},{"inputs":[],"name":"collateralManager","outputs":[{"internalType":"contract CollateralManager","name":"","type":"address"}],"stateMutability":"view","type":"function"},{"inputs":[{"internalType":"uint256","name":"amount","type":"uint256"},{"internalType":"uint256","name":"duration","type":"uint256"},{"internalType":"address","name":"collateralToken","type":"address"},{"internalType":"uint256","name":"collateralAmount","type":"uint256"},{"internalType":"string","name":"purpose","type":"string"}],"name":"createLoan","outputs":[{"internalType":"uint256","name":"","type":"uint256"}],"stateMutability":"nonpayable","type":"function"},{"inputs":[{"internalType":"uint256","name":"loanId","type":"uint256"}],"name":"getLoanDetails","outputs":[{"internalType":"address","name":"borrower","type":"address"},{"internalType":"uint256","name":"principalAmount","type":"uint256"},{"internalType":"uint256","name":"remainingPrincipal","type":"uint256"},{"internalType":"uint256","name":"interestAccrued","type":"uint256"},{"internalType":"uint256","name":"lateFee","type":"uint256"},{"internalType":"uint256","name":"dueDate","type":"uint256"},{"internalType":"bool","name":"isOverdue","type":"bool"},{"internalType":"enum LoanPlatform.LoanStatus","name":"status","type":"uint8"},{"internalType":"address","name":"collateralToken","type":"address"}],"stateMutability":"view","type":"function"},{"inputs":[{"internalType":"uint256","name":"loanId","type":"uint256"}],"name":"getMaxLateFee","outputs":[{"internalType":"uint256","name":"","type":"uint256"}],"stateMutability":"view","type":"function"},{"inputs":[],"name":"interestRateModel","outputs":[{"internalType":"contract InterestRateModel","name":"","type":"address"}],"stateMutability":"view","type":"function"},{"inputs":[{"internalType":"uint256","name":"loanId","type":"uint256"}],"name":"isLoanOverdue","outputs":[{"internalType":"bool","name":"","type":"bool"}],"stateMutability":"view","type":"function"},{"inputs":[{"internalType":"uint256","name":"loanId","type":"uint256"}],"name":"liquidateLoan","outputs":[],"stateMutability":"nonpayable","type":"function"},{"inputs":[{"internalType":"uint256","name":"","type":"uint256"}],"name":"loans","outputs":[{"internalType":"uint256","name":"id","type":"uint256"},{"internalType":"address","name":"borrower","type":"address"},{"internalType":"uint256","name":"principalAmount","type":"uint256"},{"internalType":"uint256","name":"remainingPrincipal","type":"uint256"},{"internalType":"uint256","name":"interestAccrued","type":"uint256"},{"internalType":"uint256","name":"lateFee","type":"uint256"},{"internalType":"uint256","name":"interestRateBps","type":"uint256"},{"internalType":"uint256","name":"createdAt","type":"uint256"},{"internalType":"uint256","name":"dueDate","type":"uint256"},{"internalType":"enum LoanPlatform.LoanStatus","name":"status","type":"uint8"},{"internalType":"address","name":"collateralToken","type":"address"},{"internalType":"uint256","name":"collateralAmount","type":"uint256"}],"stateMutability":"view","type":"function"},{"inputs":[],"name":"owner","outputs":[{"internalType":"address","name":"","type":"address"}],"stateMutability":"view","type":"function"},{"inputs":[],"name":"pause","outputs":[],"stateMutability":"nonpayable","type":"function"},{"inputs":[],"name":"paused","outputs":[{"internalType":"bool","name":"","type":"bool"}],"stateMutability":"view","type":"function"},{"inputs":[],"name":"renounceOwnership","outputs":[],"stateMutability":"nonpayable","type":"function"},{"inputs":[{"internalType":"uint256","name":"loanId","type":"uint256"},{"internalType":"uint256","name":"amount","type":"uint256"}],"name":"repayLoan","outputs":[],"stateMutability":"payable","type":"function"},{"inputs":[{"internalType":"uint256","name":"loanId","type":"uint256"}],"name":"repayLoanFull","outputs":[],"stateMutability":"payable","type":"function"},{"inputs":[{"internalType":"uint256","name":"","type":"uint256"},{"internalType":"uint256","name":"","type":"uint256"}],"name":"repaymentSchedules","outputs":[{"internalType":"uint256","name":"paymentNumber","type":"uint256"},{"internalType":"uint256","name":"dueDate","type":"uint256"},{"internalType":"uint256","name":"amount","type":"uint256"},{"internalType":"uint256","name":"principal","type":"uint256"},{"internalType":"uint256","name":"interest","type":"uint256"},{"internalType":"enum LoanPlatform.RepaymentStatus","name":"status","type":"uint8"},{"internalType":"uint256","name":"paidDate","type":"uint256"}],"stateMutability":"view","type":"function"},{"inputs":[],"name":"totalAmountLent","outputs":[{"internalType":"uint256","name":"","type":"uint256"}],"stateMutability":"view","type":"function"},{"inputs":[],"name":"totalDefaulted","outputs":[{"internalType":"uint256","name":"","type":"uint256"}],"stateMutability":"view","type":"function"},{"inputs":[],"name":"totalLoansIssued","outputs":[{"internalType":"uint256","name":"","type":"uint256"}],"stateMutability":"view","type":"function"},{"inputs":[],"name":"totalRepaid","outputs":[{"internalType":"uint256","name":"","type":"uint256"}],"stateMutability":"view","type":"function"},{"inputs":[{"internalType":"address","name":"newOwner","type":"address"}],"name":"transferOwnership","outputs":[],"stateMutability":"nonpayable","type":"function"},{"inputs":[],"name":"trustScore","outputs":[{"internalType":"contract TrustScore","name":"","type":"address"}],"stateMutability":"view","type":"function"},{"inputs":[],"name":"unpause","outputs":[],"stateMutability":"nonpayable","type":"function"}],"evm":{"bytecode":{"linkReferences":{},"object":"6080346200010d57601f62001ce438819003918201601f19168301916001600160401b0383118484101762000112578084926060946040528339810103126200010d576200004d8162000128565b620000696040620000616020850162000128565b930162000128565b903315620000f457600080546001600160a01b03198082163390811784556040519691956001600160a01b039590948694859391908416907f8be0079c531659141344cd1fd0a4f28419497f9722a3daafe3b4186f6b6457e09080a360018055168560045416176004551683600554161760055516906006541617600655611ba690816200013e8239f35b604051631e4fbdf760e01b815260006004820152602490fd5b600080fd5b634e487b7160e01b600052604160045260246000fd5b51906001600160a01b03821682036200010d5756fe608080604052600436101561001357600080fd5b600090813560e01c90816323be345c14611708575080633078d998146116df5780633b498602146116b05780633f4ba83a14611645578063562fbdff146116275780635c975abb1461160457806366877b8d1461156c5780636c22f60b146114ed578063715018a614611493578063733330c014610cb3578063791d000f146105db5780638456cb5914610c585780638a700b531461093e5780638d461c89146109205780638da5cb5b146108f95780639a11e339146105fe578063a72dad05146105e0578063a8c93057146105db578063b119723914610573578063c1a287e214610555578063c7959d0414610537578063ccdd9f5d1461036f578063e1ec3c68146102b7578063e3ed190214610261578063f2fde38b146101d1578063f3fdb15a146101a85763fe9f62411461014a57600080fd5b346101a55760203660031901126101a557600435815260076020526002604082200154906103e8918281029281840414901517156101915760208261271060405191048152f35b634e487b7160e01b81526011600452602490fd5b80fd5b50346101a557806003193601126101a5576006546040516001600160a01b039091168152602090f35b50346101a55760203660031901126101a5576101eb61176b565b6101f3611802565b6001600160a01b0390811690811561024857600054826bffffffffffffffffffffffff60a01b821617600055167f8be0079c531659141344cd1fd0a4f28419497f9722a3daafe3b4186f6b6457e0600080a380f35b604051631e4fbdf760e01b815260048101849052602490fd5b50346101a55760403660031901126101a55761027b61176b565b6001600160a01b03168152600860205260408120805460243592908310156101a55760206102a984846117d4565b90546040519160031b1c8152f35b50346101a55760203660031901126101a557604061018091600435815260076020522080549060018060a01b0380600183015416916002810154600382015460048301546005840154600685015491600786015493600887015495600a6009890154980154996040519b8c5260208c015260408b015260608a0152608089015260a088015260c087015260e086015261010085015261035d610120850160ff831661172d565b60081c16610140830152610160820152f35b50346101a55760203660031901126101a55760043561038c611891565b808252600760205260408220906009820160ff81541660058110156105235760016103b791146118b4565b6103c082611983565b60088301546203f480810180911161050f574211156104be57600360ff198254161781556103ef600d5461182e565b600d5560018060a01b0384816005541660018601938380865416915460081c1691600a88015490803b156104af5760405162254dc960e21b81526001600160a01b039384166004820152939092166024840152604483015282908290606490829084905af180156104b35761049b575b505060036020917f2d6de712d035bfecc1593860af7eae0831e978cab3cd96f778478b1fdc443bc3935416940154604051908152a36001805580f35b6104a490611781565b6104af57843861045f565b8480fd5b6040513d84823e3d90fd5b60405162461bcd60e51b8152602060048201526024808201527f4c6f616e206e6f7420796574206f76657264756520666f72206c6971756964616044820152633a34b7b760e11b6064820152608490fd5b634e487b7160e01b85526011600452602485fd5b634e487b7160e01b85526021600452602485fd5b50346101a557806003193601126101a5576020600a54604051908152f35b50346101a557806003193601126101a55760206040516203f4808152f35b50346101a55760203660031901126101a5576080906040600435918281526007602052209060036105ac6105a6836119d8565b92611a19565b920154906105c3836105be8385611853565b611853565b92604051938452602084015260408301526060820152f35b6117b7565b50346101a557806003193601126101a5576020600c54604051908152f35b5060203660031901126101a557610613611891565b600435815260076020526040812060ff60098201541660058110156108e557600161063e91146118b4565b61065560018060a01b0360018301541633146118f2565b610660600435611983565b61066b600435611a9f565b808392849385936005830154801515806108dc575b6108ae575b506004830154801515806108a5575b610878575b5060038301548015158061086f575b610837575b506106b8901561193e565b85600383015415928361082a575b8361081d575b83610787575b5050826107027f31c7916ff5e143d6ae3c61eafd78b081fb183ee46b1a05fbb70daf303343fa0794600c54611853565b600c55604080519182526020820183905281018690526060810185905282151560808201523390600435907faf43b8b8625acf3814cab229fa6d775f7bf519692f230945a7818a5cfc995fb29060a090a360408051948552602085019590955293830193909352911515606082015233916004359180608081015b0390a36001805580f35b60098101805460ff1916600217908190556005546001830154600a909301546001600160a01b0393841693909116803b156104af5760405163fbd24bbb60e01b81526001600160a01b03948516600482015260089390931c909316602483015260448201529082908290606490829084905af180156104b357156106d25761080e90611781565b6108195785386106d2565b8580fd5b60058101541593506106cc565b60048101541593506106c6565b9094506106b8908086106108665761085b815b610855818099611931565b92611931565b6003850155906106ad565b61085b8661084a565b508115156106a8565b90955080861061089c5761089181610855818099611931565b600484015538610699565b6108918661084a565b50811515610694565b9091508082106108d3576108c8815b610855818095611931565b600584015538610685565b6108c8826108bd565b50811515610680565b634e487b7160e01b83526021600452602483fd5b50346101a557806003193601126101a557546040516001600160a01b039091168152602090f35b50346101a557806003193601126101a5576020600d54604051908152f35b5061094836611750565b90610951611891565b80835260076020526040832060ff600982015416600581101561052357600161097a91146118b4565b61099160018060a01b0360018301541633146118f2565b61099a82611983565b6109a382611a9f565b8311610c135782849085908695600585015480151580610c0a575b610bde575b50600485015480151580610bd5575b610ba7575b50600385015480151580610b9e575b610b6c575b506109f6901561193e565b866003850154159485610b5f575b85610b52575b85610abc575b50507f31c7916ff5e143d6ae3c61eafd78b081fb183ee46b1a05fbb70daf303343fa079381610a4461077d93600c54611853565b600c5560408051918252602082018690528101849052606081018890528115156080820152339087907faf43b8b8625acf3814cab229fa6d775f7bf519692f230945a7818a5cfc995fb29060a090a3604051938493339885926060929594919560808501968552602085015260408401521515910152565b60098101805460ff1916600217908190556005546001830154600a909301546001600160a01b0393841693909116803b156104af5760405163fbd24bbb60e01b81526001600160a01b03948516600482015260089390931c909316602483015260448201529082908290606490829084905af180156104b35715610a1057610b4390611781565b610b4e578638610a10565b8680fd5b6005810154159550610a0a565b6004810154159550610a04565b9096506109f690808810610b9557610b8a815b61085581809b611931565b6003870155906109eb565b610b8a88610b7f565b508115156109e6565b909250808310610bcc57610bc1815b610855818096611931565b6004860155386109d7565b610bc183610bb6565b508115156109d2565b935050828110610c0357825b610bf8846108558185611931565b6005860155386109c3565b8092610bea565b508215156109be565b60405162461bcd60e51b815260206004820152601960248201527f416d6f756e74206578636565647320746f74616c206f776564000000000000006044820152606490fd5b50346101a557806003193601126101a557610c71611802565b610c79611873565b600160ff1960025416176002557f62e78cea01bee320cd4e420270b5ea74000d11b0c9f74754ebdbfc544b05a2586020604051338152a180f35b50346101a55760a03660031901126101a5576044356001600160a01b03811690036101a55760843567ffffffffffffffff811161148f573660238201121561148f5780600401359067ffffffffffffffff821161115257829060405192610d246020601f19601f8401160185611795565b808452366024828401011161148b57806024602093018386013783010152610d4a611873565b610d52611891565b6004351561144657606435156113f057600554604051635c57518960e11b81526001600160a01b03604435811660048301529091169190602081602481865afa9081156112a85784916113b5575b501561137057602491602060018060a01b036004541660405194858092635e09eea160e01b82523360048301525afa80156112a857849061133d575b60065460405163a579678560e01b81526004803590820152602481018390529450602090859060449082906001600160a01b03165afa9384156113325785946112fc575b50610e2d90600435611aeb565b606435106112b757803b156112b35760405163ee82616160e01b8152336004820152604480356001600160a01b031660248301526064803591830191909152909185918391829084905af180156112a857611295575b50610e8f60035461182e565b9182600355610ea060243542611853565b9360405180602081011067ffffffffffffffff60208301111761127f576020810160405281815260405190816101a081011067ffffffffffffffff6101a08401111761127f576101a08201604052858252336020830152600435604083015260043560608301528260808301528260a08301528360c08301524260e083015286610100830152600161012083015260018060a01b036044351661014083015260643561016083015261018082015284825260076020526040822090805182556001820160018060a01b036020830151166bffffffffffffffffffffffff60a01b82541617905560408101516002830155606081015160038301556080810151600483015560a0810151600583015560c0810151600683015560e081015160078301556101008101516008830155610120810151600581101561126b579061018091600984015460ff610100600160a81b0361014085015160081b169216906affffffffffffffffffffff60a81b1617176009840155610160810151600a8401550151805190600160401b821161125757600b83015482600b8501558083106111e5575b506020600b9101920183526020832083925b828410611166575050505033815260086020526040812094855495600160401b87101561115257906110928787959493600160209a0181556117d4565b81549060031b9086821b91600019901b19161790556110b2600a5461182e565b600a556110c3600435600b54611853565b600b5560405192600435845287840152604083015260806060830152835193846080840152815b85811061113b575050907f25245f11c01a8248f86437c8804406956a90129afaa991e689e5bbfa23bd92289160a0858301015260a0813395601f80199101168101030190a360018055604051908152f35b80820188015181850160a0015286945087016110ea565b634e487b7160e01b83526041600452602483fd5b8051805183556020810151600184015560408101516002840155606081015160038401556080810151600484015560a081015160038110156111d15760019260c0600793602093600588019060ff801983541691161790550151600686015501920193019290611055565b634e487b7160e01b87526021600452602487fd5b600781810204810361050f57600783810204830361050f57600b84018552602085208360070281015b8260070282018110611221575050611043565b8060006007925560006001820155600060028201556000600382015560006004820155876005820155600060068201550161120e565b634e487b7160e01b84526041600452602484fd5b634e487b7160e01b84526021600452602484fd5b634e487b7160e01b600052604160045260246000fd5b6112a190939193611781565b9138610e83565b6040513d86823e3d90fd5b8380fd5b60405162461bcd60e51b815260206004820152601760248201527f496e73756666696369656e7420636f6c6c61746572616c0000000000000000006044820152606490fd5b9093506020813d60201161132a575b8161131860209383611795565b810103126104af575192610e2d610e20565b3d915061130b565b6040513d87823e3d90fd5b506020833d602011611368575b8161135760209383611795565b810103126112b35760449251610ddc565b3d915061134a565b60405162461bcd60e51b815260206004820152601d60248201527f556e61636365707461626c6520636f6c6c61746572616c20746f6b656e0000006044820152606490fd5b90506020813d6020116113e8575b816113d060209383611795565b810103126112b3575180151581036112b35738610da0565b3d91506113c3565b60405162461bcd60e51b815260206004820152602860248201527f436f6c6c61746572616c20616d6f756e74206d75737420626520677265617465604482015267072207468616e20360c41b6064820152608490fd5b60405162461bcd60e51b815260206004820152601d60248201527f416d6f756e74206d7573742062652067726561746572207468616e20300000006044820152606490fd5b8280fd5b5080fd5b50346101a557806003193601126101a5576114ac611802565b80546001600160a01b03198116825581906001600160a01b03167f8be0079c531659141344cd1fd0a4f28419497f9722a3daafe3b4186f6b6457e08280a380f35b50346101a5576114fc36611750565b9082526009602052604082209082526020526040812080549060018101549060028101546003820154600483015491600660ff600586015416940154946040519687526020870152604086015260608501526080840152600381101561126b5760e0935060a083015260c0820152f35b50346101a55760203660031901126101a557604061012091600435815260076020522060088101549060018060a01b039081600182015416926002820154916003810154600482015490600960058401549301549460405197885260208801526040870152606086015260808501528060a0850152421160c08401526115f860e0840160ff831661172d565b60081c16610100820152f35b50346101a557806003193601126101a557602060ff600254166040519015158152f35b50346101a557806003193601126101a5576020600b54604051908152f35b50346101a557806003193601126101a55761165e611802565b60025460ff81161561169e5760ff19166002557f5db9ee0a495bf2e6ff9c91a7834c1ba4fdd244a5e8aa4e537bd38aeae4b073aa6020604051338152a180f35b604051638dfc202b60e01b8152600490fd5b50346101a55760203660031901126101a557600860406020926004358152600784522001544211604051908152f35b50346101a557806003193601126101a5576004546040516001600160a01b039091168152602090f35b90503461148f578160031936011261148f576005546001600160a01b03168152602090f35b90600582101561173a5752565b634e487b7160e01b600052602160045260246000fd5b6040906003190112611766576004359060243590565b600080fd5b600435906001600160a01b038216820361176657565b67ffffffffffffffff811161127f57604052565b90601f8019910116810190811067ffffffffffffffff82111761127f57604052565b346117665760003660031901126117665760206040516103e88152f35b80548210156117ec5760005260206000200190600090565b634e487b7160e01b600052603260045260246000fd5b6000546001600160a01b0316330361181657565b60405163118cdaa760e01b8152336004820152602490fd5b600019811461183d5760010190565b634e487b7160e01b600052601160045260246000fd5b9190820180921161183d57565b8181029291811591840414171561183d57565b60ff6002541661187f57565b60405163d93c066560e01b8152600490fd5b6002600154146118a2576002600155565b604051633ee5aeb560e01b8152600490fd5b156118bb57565b60405162461bcd60e51b815260206004820152600f60248201526e4c6f616e206e6f742061637469766560881b6044820152606490fd5b156118f957565b60405162461bcd60e51b815260206004820152601060248201526f2737ba103a3432903137b93937bbb2b960811b6044820152606490fd5b9190820391821161183d57565b1561194557565b60405162461bcd60e51b8152602060048201526016602482015275125b9d985b1a59081c185e5b595b9d08185b5bdd5b9d60521b6044820152606490fd5b806000526007602052604060002060ff600982015416600581101561173a576001036119d4576005906119be6119b8846119d8565b93611a19565b926119ce60048301918254611853565b90550155565b5050565b600052600760205264496cebb800611a156040600020611a106119ff600783015442611931565b916006600282015491015490611860565b611860565b0490565b600090815260076020526040812090600882015480421115611a995762015180611a4560029242611931565b04920154916103e892838102938185041490151715611a8557611a71620493e091612710850494611860565b04905081811115611a80575090565b905090565b634e487b7160e01b82526011600452602482fd5b50905090565b611ae8908060005260076020526105be60406000206005611adf611acb611ac5866119d8565b95611a19565b946105be6003850154600486015490611853565b91015490611853565b90565b906103208110611b10575060788102908082046078149015171561183d576064900490565b6102588110611b34575060828102908082046082149015171561183d576064900490565b61019011611b565760968102908082046096149015171561183d576064900490565b60c881029080820460c8149015171561183d57606490049056fea264697066735822122053fc153498a57dcc03fd3fc0474c538ea093bbc1ec7623b272808da633a681e064736f6c63430008140033","opcodes":"PUSH1 0x80 CALLVALUE PUSH3 0x10D JUMPI PUSH1 0x1F PUSH3 0x1CE4 CODESIZE DUP2 SWAP1 SUB SWAP2 DUP3 ADD PUSH1 0x1F NOT AND DUP4 ADD SWAP2 PUSH1 0x1 PUSH1 0x1 PUSH1 0x40 SHL SUB DUP4 GT DUP5 DUP5 LT OR PUSH3 0x112 JUMPI DUP1 DUP5 SWAP3 PUSH1 0x60 SWAP5 PUSH1 0x40 MSTORE DUP4 CODECOPY DUP2 ADD SUB SLT PUSH3 0x10D JUMPI PUSH3 0x4D DUP2 PUSH3 0x128 JUMP JUMPDEST PUSH3 0x69 PUSH1 0x40 PUSH3 0x61 PUSH1 0x20 DUP6 ADD PUSH3 0x128 JUMP JUMPDEST SWAP4 ADD PUSH3 0x128 JUMP JUMPDEST SWAP1 CALLER ISZERO PUSH3 0xF4 JUMPI PUSH1 0x0 DUP1 SLOAD PUSH1 0x1 PUSH1 0x1 PUSH1 0xA0 SHL SUB NOT DUP1 DUP3 AND CALLER SWAP1 DUP2 OR DUP5 SSTORE PUSH1 0x40 MLOAD SWAP7 SWAP2 SWAP6 PUSH1 0x1 PUSH1 0x1 PUSH1 0xA0 SHL SUB SWAP6 SWAP1 SWAP5 DUP7 SWAP5 DUP6 SWAP4 SWAP2 SWAP1 DUP5 AND SWAP1 PUSH32 0x8BE0079C531659141344CD1FD0A4F28419497F9722A3DAAFE3B4186F6B6457E0 SWAP1 DUP1 LOG3 PUSH1 0x1 DUP1 SSTORE AND DUP6 PUSH1 0x4 SLOAD AND OR PUSH1 0x4 SSTORE AND DUP4 PUSH1 0x5 SLOAD AND OR PUSH1 0x5 SSTORE AND SWAP1 PUSH1 0x6 SLOAD AND OR PUSH1 0x6 SSTORE PUSH2 0x1BA6 SWAP1 DUP2 PUSH3 0x13E DUP3 CODECOPY RETURN JUMPDEST PUSH1 0x40 MLOAD PUSH4 0x1E4FBDF7 PUSH1 0xE0 SHL DUP2 MSTORE PUSH1 0x0 PUSH1 0x4 DUP3 ADD MSTORE PUSH1 0x24 SWAP1 REVERT JUMPDEST PUSH1 0x0 DUP1 REVERT JUMPDEST PUSH4 0x4E487B71 PUSH1 0xE0 SHL PUSH1 0x0 MSTORE PUSH1 0x41 PUSH1 0x4 MSTORE PUSH1 0x24 PUSH1 0x0 REVERT JUMPDEST MLOAD SWAP1 PUSH1 0x1 PUSH1 0x1 PUSH1 0xA0 SHL SUB DUP3 AND DUP3 SUB PUSH3 0x10D JUMPI JUMP INVALID PUSH1 0x80 DUP1 PUSH1 0x40 MSTORE PUSH1 0x4 CALLDATASIZE LT ISZERO PUSH2 0x13 JUMPI PUSH1 0x0 DUP1 REVERT JUMPDEST PUSH1 0x0 SWAP1 DUP2 CALLDATALOAD PUSH1 0xE0 SHR SWAP1 DUP2 PUSH4 0x23BE345C EQ PUSH2 0x1708 JUMPI POP DUP1 PUSH4 0x3078D998 EQ PUSH2 0x16DF JUMPI DUP1 PUSH4 0x3B498602 EQ PUSH2 0x16B0 JUMPI DUP1 PUSH4 0x3F4BA83A EQ PUSH2 0x1645 JUMPI DUP1 PUSH4 0x562FBDFF EQ PUSH2 0x1627 JUMPI DUP1 PUSH4 0x5C975ABB EQ PUSH2 0x1604 JUMPI DUP1 PUSH4 0x66877B8D EQ PUSH2 0x156C JUMPI DUP1 PUSH4 0x6C22F60B EQ PUSH2 0x14ED JUMPI DUP1 PUSH4 0x715018A6 EQ PUSH2 0x1493 JUMPI DUP1 PUSH4 0x733330C0 EQ PUSH2 0xCB3 JUMPI DUP1 PUSH4 0x791D000F EQ PUSH2 0x5DB JUMPI DUP1 PUSH4 0x8456CB59 EQ PUSH2 0xC58 JUMPI DUP1 PUSH4 0x8A700B53 EQ PUSH2 0x93E JUMPI DUP1 PUSH4 0x8D461C89 EQ PUSH2 0x920 JUMPI DUP1 PUSH4 0x8DA5CB5B EQ PUSH2 0x8F9 JUMPI DUP1 PUSH4 0x9A11E339 EQ PUSH2 0x5FE JUMPI DUP1 PUSH4 0xA72DAD05 EQ PUSH2 0x5E0 JUMPI DUP1 PUSH4 0xA8C93057 EQ PUSH2 0x5DB JUMPI DUP1 PUSH4 0xB1197239 EQ PUSH2 0x573 JUMPI DUP1 PUSH4 0xC1A287E2 EQ PUSH2 0x555 JUMPI DUP1 PUSH4 0xC7959D04 EQ PUSH2 0x537 JUMPI DUP1 PUSH4 0xCCDD9F5D EQ PUSH2 0x36F JUMPI DUP1 PUSH4 0xE1EC3C68 EQ PUSH2 0x2B7 JUMPI DUP1 PUSH4 0xE3ED1902 EQ PUSH2 0x261 JUMPI DUP1 PUSH4 0xF2FDE38B EQ PUSH2 0x1D1 JUMPI DUP1 PUSH4 0xF3FDB15A EQ PUSH2 0x1A8 JUMPI PUSH4 0xFE9F6241 EQ PUSH2 0x14A JUMPI PUSH1 0x0 DUP1 REVERT JUMPDEST CALLVALUE PUSH2 0x1A5 JUMPI PUSH1 0x20 CALLDATASIZE PUSH1 0x3 NOT ADD SLT PUSH2 0x1A5 JUMPI PUSH1 0x4 CALLDATALOAD DUP2 MSTORE PUSH1 0x7 PUSH1 0x20 MSTORE PUSH1 0x2 PUSH1 0x40 DUP3 KECCAK256 ADD SLOAD SWAP1 PUSH2 0x3E8 SWAP2 DUP3 DUP2 MUL SWAP3 DUP2 DUP5 DIV EQ SWAP1 ISZERO OR ISZERO PUSH2 0x191 JUMPI PUSH1 0x20 DUP3 PUSH2 0x2710 PUSH1 0x40 MLOAD SWAP2 DIV DUP2 MSTORE RETURN JUMPDEST PUSH4 0x4E487B71 PUSH1 0xE0 SHL DUP2 MSTORE PUSH1 0x11 PUSH1 0x4 MSTORE PUSH1 0x24 SWAP1 REVERT JUMPDEST DUP1 REVERT JUMPDEST POP CALLVALUE PUSH2 0x1A5 JUMPI DUP1 PUSH1 0x3 NOT CALLDATASIZE ADD SLT PUSH2 0x1A5 JUMPI PUSH1 0x6 SLOAD PUSH1 0x40 MLOAD PUSH1 0x1 PUSH1 0x1 PUSH1 0xA0 SHL SUB SWAP1 SWAP2 AND DUP2 MSTORE PUSH1 0x20 SWAP1 RETURN JUMPDEST POP CALLVALUE PUSH2 0x1A5 JUMPI PUSH1 0x20 CALLDATASIZE PUSH1 0x3 NOT ADD SLT PUSH2 0x1A5 JUMPI PUSH2 0x1EB PUSH2 0x176B JUMP JUMPDEST PUSH2 0x1F3 PUSH2 0x1802 JUMP JUMPDEST PUSH1 0x1 PUSH1 0x1 PUSH1 0xA0 SHL SUB SWAP1 DUP2 AND SWAP1 DUP2 ISZERO PUSH2 0x248 JUMPI PUSH1 0x0 SLOAD DUP3 PUSH12 0xFFFFFFFFFFFFFFFFFFFFFFFF PUSH1 0xA0 SHL DUP3 AND OR PUSH1 0x0 SSTORE AND PUSH32 0x8BE0079C531659141344CD1FD0A4F28419497F9722A3DAAFE3B4186F6B6457E0 PUSH1 0x0 DUP1 LOG3 DUP1 RETURN JUMPDEST PUSH1 0x40 MLOAD PUSH4 0x1E4FBDF7 PUSH1 0xE0 SHL DUP2 MSTORE PUSH1 0x4 DUP2 ADD DUP5 SWAP1 MSTORE PUSH1 0x24 SWAP1 REVERT JUMPDEST POP CALLVALUE PUSH2 0x1A5 JUMPI PUSH1 0x40 CALLDATASIZE PUSH1 0x3 NOT ADD SLT PUSH2 0x1A5 JUMPI PUSH2 0x27B PUSH2 0x176B JUMP JUMPDEST PUSH1 0x1 PUSH1 0x1 PUSH1 0xA0 SHL SUB AND DUP2 MSTORE PUSH1 0x8 PUSH1 0x20 MSTORE PUSH1 0x40 DUP2 KECCAK256 DUP1 SLOAD PUSH1 0x24 CALLDATALOAD SWAP3 SWAP1 DUP4 LT ISZERO PUSH2 0x1A5 JUMPI PUSH1 0x20 PUSH2 0x2A9 DUP5 DUP5 PUSH2 0x17D4 JUMP JUMPDEST SWAP1 SLOAD PUSH1 0x40 MLOAD SWAP2 PUSH1 0x3 SHL SHR DUP2 MSTORE RETURN JUMPDEST POP CALLVALUE PUSH2 0x1A5 JUMPI PUSH1 0x20 CALLDATASIZE PUSH1 0x3 NOT ADD SLT PUSH2 0x1A5 JUMPI PUSH1 0x40 PUSH2 0x180 SWAP2 PUSH1 0x4 CALLDATALOAD DUP2 MSTORE PUSH1 0x7 PUSH1 0x20 MSTORE KECCAK256 DUP1 SLOAD SWAP1 PUSH1 0x1 DUP1 PUSH1 0xA0 SHL SUB DUP1 PUSH1 0x1 DUP4 ADD SLOAD AND SWAP2 PUSH1 0x2 DUP2 ADD SLOAD PUSH1 0x3 DUP3 ADD SLOAD PUSH1 0x4 DUP4 ADD SLOAD PUSH1 0x5 DUP5 ADD SLOAD PUSH1 0x6 DUP6 ADD SLOAD SWAP2 PUSH1 0x7 DUP7 ADD SLOAD SWAP4 PUSH1 0x8 DUP8 ADD SLOAD SWAP6 PUSH1 0xA PUSH1 0x9 DUP10 ADD SLOAD SWAP9 ADD SLOAD SWAP10 PUSH1 0x40 MLOAD SWAP12 DUP13 MSTORE PUSH1 0x20 DUP13 ADD MSTORE PUSH1 0x40 DUP12 ADD MSTORE PUSH1 0x60 DUP11 ADD MSTORE PUSH1 0x80 DUP10 ADD MSTORE PUSH1 0xA0 DUP9 ADD MSTORE PUSH1 0xC0 DUP8 ADD MSTORE PUSH1 0xE0 DUP7 ADD MSTORE PUSH2 0x100 DUP6 ADD MSTORE PUSH2 0x35D PUSH2 0x120 DUP6 ADD PUSH1 0xFF DUP4 AND PUSH2 0x172D JUMP JUMPDEST PUSH1 0x8 SHR AND PUSH2 0x140 DUP4 ADD MSTORE PUSH2 0x160 DUP3 ADD MSTORE RETURN JUMPDEST POP CALLVALUE PUSH2 0x1A5 JUMPI PUSH1 0x20 CALLDATASIZE PUSH1 0x3 NOT ADD SLT PUSH2 0x1A5 JUMPI PUSH1 0x4 CALLDATALOAD PUSH2 0x38C PUSH2 0x1891 JUMP JUMPDEST DUP1 DUP3 MSTORE PUSH1 0x7 PUSH1 0x20 MSTORE PUSH1 0x40 DUP3 KECCAK256 SWAP1 PUSH1 0x9 DUP3 ADD PUSH1 0xFF DUP2 SLOAD AND PUSH1 0x5 DUP2 LT ISZERO PUSH2 0x523 JUMPI PUSH1 0x1 PUSH2 0x3B7 SWAP2 EQ PUSH2 0x18B4 JUMP JUMPDEST PUSH2 0x3C0 DUP3 PUSH2 0x1983 JUMP JUMPDEST PUSH1 0x8 DUP4 ADD SLOAD PUSH3 0x3F480 DUP2 ADD DUP1 SWAP2 GT PUSH2 0x50F JUMPI TIMESTAMP GT ISZERO PUSH2 0x4BE JUMPI PUSH1 0x3 PUSH1 0xFF NOT DUP3 SLOAD AND OR DUP2 SSTORE PUSH2 0x3EF PUSH1 0xD SLOAD PUSH2 0x182E JUMP JUMPDEST PUSH1 0xD SSTORE PUSH1 0x1 DUP1 PUSH1 0xA0 SHL SUB DUP5 DUP2 PUSH1 0x5 SLOAD AND PUSH1 0x1 DUP7 ADD SWAP4 DUP4 DUP1 DUP7 SLOAD AND SWAP2 SLOAD PUSH1 0x8 SHR AND SWAP2 PUSH1 0xA DUP9 ADD SLOAD SWAP1 DUP1 EXTCODESIZE ISZERO PUSH2 0x4AF JUMPI PUSH1 0x40 MLOAD PUSH3 0x254DC9 PUSH1 0xE2 SHL DUP2 MSTORE PUSH1 0x1 PUSH1 0x1 PUSH1 0xA0 SHL SUB SWAP4 DUP5 AND PUSH1 0x4 DUP3 ADD MSTORE SWAP4 SWAP1 SWAP3 AND PUSH1 0x24 DUP5 ADD MSTORE PUSH1 0x44 DUP4 ADD MSTORE DUP3 SWAP1 DUP3 SWAP1 PUSH1 0x64 SWAP1 DUP3 SWAP1 DUP5 SWAP1 GAS CALL DUP1 ISZERO PUSH2 0x4B3 JUMPI PUSH2 0x49B JUMPI JUMPDEST POP POP PUSH1 0x3 PUSH1 0x20 SWAP2 PUSH32 0x2D6DE712D035BFECC1593860AF7EAE0831E978CAB3CD96F778478B1FDC443BC3 SWAP4 SLOAD AND SWAP5 ADD SLOAD PUSH1 0x40 MLOAD SWAP1 DUP2 MSTORE LOG3 PUSH1 0x1 DUP1 SSTORE DUP1 RETURN JUMPDEST PUSH2 0x4A4 SWAP1 PUSH2 0x1781 JUMP JUMPDEST PUSH2 0x4AF JUMPI DUP5 CODESIZE PUSH2 0x45F JUMP JUMPDEST DUP5 DUP1 REVERT JUMPDEST PUSH1 0x40 MLOAD RETURNDATASIZE DUP5 DUP3 RETURNDATACOPY RETURNDATASIZE SWAP1 REVERT JUMPDEST PUSH1 0x40 MLOAD PUSH3 0x461BCD PUSH1 0xE5 SHL DUP2 MSTORE PUSH1 0x20 PUSH1 0x4 DUP3 ADD MSTORE PUSH1 0x24 DUP1 DUP3 ADD MSTORE PUSH32 0x4C6F616E206E6F7420796574206F76657264756520666F72206C697175696461 PUSH1 0x44 DUP3 ADD MSTORE PUSH4 0x3A34B7B7 PUSH1 0xE1 SHL PUSH1 0x64 DUP3 ADD MSTORE PUSH1 0x84 SWAP1 REVERT JUMPDEST PUSH4 0x4E487B71 PUSH1 0xE0 SHL DUP6 MSTORE PUSH1 0x11 PUSH1 0x4 MSTORE PUSH1 0x24 DUP6 REVERT JUMPDEST PUSH4 0x4E487B71 PUSH1 0xE0 SHL DUP6 MSTORE PUSH1 0x21 PUSH1 0x4 MSTORE PUSH1 0x24 DUP6 REVERT JUMPDEST POP CALLVALUE PUSH2 0x1A5 JUMPI DUP1 PUSH1 0x3 NOT CALLDATASIZE ADD SLT PUSH2 0x1A5 JUMPI PUSH1 0x20 PUSH1 0xA SLOAD PUSH1 0x40 MLOAD SWAP1 DUP2 MSTORE RETURN JUMPDEST POP CALLVALUE PUSH2 0x1A5 JUMPI DUP1 PUSH1 0x3 NOT CALLDATASIZE ADD SLT PUSH2 0x1A5 JUMPI PUSH1 0x20 PUSH1 0x40 MLOAD PUSH3 0x3F480 DUP2 MSTORE RETURN JUMPDEST POP CALLVALUE PUSH2 0x1A5 JUMPI PUSH1 0x20 CALLDATASIZE PUSH1 0x3 NOT ADD SLT PUSH2 0x1A5 JUMPI PUSH1 0x80 SWAP1 PUSH1 0x40 PUSH1 0x4 CALLDATALOAD SWAP2 DUP3 DUP2 MSTORE PUSH1 0x7 PUSH1 0x20 MSTORE KECCAK256 SWAP1 PUSH1 0x3 PUSH2 0x5AC PUSH2 0x5A6 DUP4 PUSH2 0x19D8 JUMP JUMPDEST SWAP3 PUSH2 0x1A19 JUMP JUMPDEST SWAP3 ADD SLOAD SWAP1 PUSH2 0x5C3 DUP4 PUSH2 0x5BE DUP4 DUP6 PUSH2 0x1853 JUMP JUMPDEST PUSH2 0x1853 JUMP JUMPDEST SWAP3 PUSH1 0x40 MLOAD SWAP4 DUP5 MSTORE PUSH1 0x20 DUP5 ADD MSTORE PUSH1 0x40 DUP4 ADD MSTORE PUSH1 0x60 DUP3 ADD MSTORE RETURN JUMPDEST PUSH2 0x17B7 JUMP JUMPDEST POP CALLVALUE PUSH2 0x1A5 JUMPI DUP1 PUSH1 0x3 NOT CALLDATASIZE ADD SLT PUSH2 0x1A5 JUMPI PUSH1 0x20 PUSH1 0xC SLOAD PUSH1 0x40 MLOAD SWAP1 DUP2 MSTORE RETURN JUMPDEST POP PUSH1 0x20 CALLDATASIZE PUSH1 0x3 NOT ADD SLT PUSH2 0x1A5 JUMPI PUSH2 0x613 PUSH2 0x1891 JUMP JUMPDEST PUSH1 0x4 CALLDATALOAD DUP2 MSTORE PUSH1 0x7 PUSH1 0x20 MSTORE PUSH1 0x40 DUP2 KECCAK256 PUSH1 0xFF PUSH1 0x9 DUP3 ADD SLOAD AND PUSH1 0x5 DUP2 LT ISZERO PUSH2 0x8E5 JUMPI PUSH1 0x1 PUSH2 0x63E SWAP2 EQ PUSH2 0x18B4 JUMP JUMPDEST PUSH2 0x655 PUSH1 0x1 DUP1 PUSH1 0xA0 SHL SUB PUSH1 0x1 DUP4 ADD SLOAD AND CALLER EQ PUSH2 0x18F2 JUMP JUMPDEST PUSH2 0x660 PUSH1 0x4 CALLDATALOAD PUSH2 0x1983 JUMP JUMPDEST PUSH2 0x66B PUSH1 0x4 CALLDATALOAD PUSH2 0x1A9F JUMP JUMPDEST DUP1 DUP4 SWAP3 DUP5 SWAP4 DUP6 SWAP4 PUSH1 0x5 DUP4 ADD SLOAD DUP1 ISZERO ISZERO DUP1 PUSH2 0x8DC JUMPI JUMPDEST PUSH2 0x8AE JUMPI JUMPDEST POP PUSH1 0x4 DUP4 ADD SLOAD DUP1 ISZERO ISZERO DUP1 PUSH2 0x8A5 JUMPI JUMPDEST PUSH2 0x878 JUMPI JUMPDEST POP PUSH1 0x3 DUP4 ADD SLOAD DUP1 ISZERO ISZERO DUP1 PUSH2 0x86F JUMPI JUMPDEST PUSH2 0x837 JUMPI JUMPDEST POP PUSH2 0x6B8 SWAP1 ISZERO PUSH2 0x193E JUMP JUMPDEST DUP6 PUSH1 0x3 DUP4 ADD SLOAD ISZERO SWAP3 DUP4 PUSH2 0x82A JUMPI JUMPDEST DUP4 PUSH2 0x81D JUMPI JUMPDEST DUP4 PUSH2 0x787 JUMPI JUMPDEST POP POP DUP3 PUSH2 0x702 PUSH32 0x31C7916FF5E143D6AE3C61EAFD78B081FB183EE46B1A05FBB70DAF303343FA07 SWAP5 PUSH1 0xC SLOAD PUSH2 0x1853 JUMP JUMPDEST PUSH1 0xC SSTORE PUSH1 0x40 DUP1 MLOAD SWAP2 DUP3 MSTORE PUSH1 0x20 DUP3 ADD DUP4 SWAP1 MSTORE DUP2 ADD DUP7 SWAP1 MSTORE PUSH1 0x60 DUP2 ADD DUP6 SWAP1 MSTORE DUP3 ISZERO ISZERO PUSH1 0x80 DUP3 ADD MSTORE CALLER SWAP1 PUSH1 0x4 CALLDATALOAD SWAP1 PUSH32 0xAF43B8B8625ACF3814CAB229FA6D775F7BF519692F230945A7818A5CFC995FB2 SWAP1 PUSH1 0xA0 SWAP1 LOG3 PUSH1 0x40 DUP1 MLOAD SWAP5 DUP6 MSTORE PUSH1 0x20 DUP6 ADD SWAP6 SWAP1 SWAP6 MSTORE SWAP4 DUP4 ADD SWAP4 SWAP1 SWAP4 MSTORE SWAP2 ISZERO ISZERO PUSH1 0x60 DUP3 ADD MSTORE CALLER SWAP2 PUSH1 0x4 CALLDATALOAD SWAP2 DUP1 PUSH1 0x80 DUP2 ADD JUMPDEST SUB SWAP1 LOG3 PUSH1 0x1 DUP1 SSTORE DUP1 RETURN JUMPDEST PUSH1 0x9 DUP2 ADD DUP1 SLOAD PUSH1 0xFF NOT AND PUSH1 0x2 OR SWAP1 DUP2 SWAP1 SSTORE PUSH1 0x5 SLOAD PUSH1 0x1 DUP4 ADD SLOAD PUSH1 0xA SWAP1 SWAP4 ADD SLOAD PUSH1 0x1 PUSH1 0x1 PUSH1 0xA0 SHL SUB SWAP4 DUP5 AND SWAP4 SWAP1 SWAP2 AND DUP1 EXTCODESIZE ISZERO PUSH2 0x4AF JUMPI PUSH1 0x40 MLOAD PUSH4 0xFBD24BBB PUSH1 0xE0 SHL DUP2 MSTORE PUSH1 0x1 PUSH1 0x1 PUSH1 0xA0 SHL SUB SWAP5 DUP6 AND PUSH1 0x4 DUP3 ADD MSTORE PUSH1 0x8 SWAP4 SWAP1 SWAP4 SHR SWAP1 SWAP4 AND PUSH1 0x24 DUP4 ADD MSTORE PUSH1 0x44 DUP3 ADD MSTORE SWAP1 DUP3 SWAP1 DUP3 SWAP1 PUSH1 0x64 SWAP1 DUP3 SWAP1 DUP5 SWAP1 GAS CALL DUP1 ISZERO PUSH2 0x4B3 JUMPI ISZERO PUSH2 0x6D2 JUMPI PUSH2 0x80E SWAP1 PUSH2 0x1781 JUMP JUMPDEST PUSH2 0x819 JUMPI DUP6 CODESIZE PUSH2 0x6D2 JUMP JUMPDEST DUP6 DUP1 REVERT JUMPDEST PUSH1 0x5 DUP2 ADD SLOAD ISZERO SWAP4 POP PUSH2 0x6CC JUMP JUMPDEST PUSH1 0x4 DUP2 ADD SLOAD ISZERO SWAP4 POP PUSH2 0x6C6 JUMP JUMPDEST SWAP1 SWAP5 POP PUSH2 0x6B8 SWAP1 DUP1 DUP7 LT PUSH2 0x866 JUMPI PUSH2 0x85B DUP2 JUMPDEST PUSH2 0x855 DUP2 DUP1 SWAP10 PUSH2 0x1931 JUMP JUMPDEST SWAP3 PUSH2 0x1931 JUMP JUMPDEST PUSH1 0x3 DUP6 ADD SSTORE SWAP1 PUSH2 0x6AD JUMP JUMPDEST PUSH2 0x85B DUP7 PUSH2 0x84A JUMP JUMPDEST POP DUP2 ISZERO ISZERO PUSH2 0x6A8 JUMP JUMPDEST SWAP1 SWAP6 POP DUP1 DUP7 LT PUSH2 0x89C JUMPI PUSH2 0x891 DUP2 PUSH2 0x855 DUP2 DUP1 SWAP10 PUSH2 0x1931 JUMP JUMPDEST PUSH1 0x4 DUP5 ADD SSTORE CODESIZE PUSH2 0x699 JUMP JUMPDEST PUSH2 0x891 DUP7 PUSH2 0x84A JUMP JUMPDEST POP DUP2 ISZERO ISZERO PUSH2 0x694 JUMP JUMPDEST SWAP1 SWAP2 POP DUP1 DUP3 LT PUSH2 0x8D3 JUMPI PUSH2 0x8C8 DUP2 JUMPDEST PUSH2 0x855 DUP2 DUP1 SWAP6 PUSH2 0x1931 JUMP JUMPDEST PUSH1 0x5 DUP5 ADD SSTORE CODESIZE PUSH2 0x685 JUMP JUMPDEST PUSH2 0x8C8 DUP3 PUSH2 0x8BD JUMP JUMPDEST POP DUP2 ISZERO ISZERO PUSH2 0x680 JUMP JUMPDEST PUSH4 0x4E487B71 PUSH1 0xE0 SHL DUP4 MSTORE PUSH1 0x21 PUSH1 0x4 MSTORE PUSH1 0x24 DUP4 REVERT JUMPDEST POP CALLVALUE PUSH2 0x1A5 JUMPI DUP1 PUSH1 0x3 NOT CALLDATASIZE ADD SLT PUSH2 0x1A5 JUMPI SLOAD PUSH1 0x40 MLOAD PUSH1 0x1 PUSH1 0x1 PUSH1 0xA0 SHL SUB SWAP1 SWAP2 AND DUP2 MSTORE PUSH1 0x20 SWAP1 RETURN JUMPDEST POP CALLVALUE PUSH2 0x1A5 JUMPI DUP1 PUSH1 0x3 NOT CALLDATASIZE ADD SLT PUSH2 0x1A5 JUMPI PUSH1 0x20 PUSH1 0xD SLOAD PUSH1 0x40 MLOAD SWAP1 DUP2 MSTORE RETURN JUMPDEST POP PUSH2 0x948 CALLDATASIZE PUSH2 0x1750 JUMP JUMPDEST SWAP1 PUSH2 0x951 PUSH2 0x1891 JUMP JUMPDEST DUP1 DUP4 MSTORE PUSH1 0x7 PUSH1 0x20 MSTORE PUSH1 0x40 DUP4 KECCAK256 PUSH1 0xFF PUSH1 0x9 DUP3 ADD SLOAD AND PUSH1 0x5 DUP2 LT ISZERO PUSH2 0x523 JUMPI PUSH1 0x1 PUSH2 0x97A SWAP2 EQ PUSH2 0x18B4 JUMP JUMPDEST PUSH2 0x991 PUSH1 0x1 DUP1 PUSH1 0xA0 SHL SUB PUSH1 0x1 DUP4 ADD SLOAD AND CALLER EQ PUSH2 0x18F2 JUMP JUMPDEST PUSH2 0x99A DUP3 PUSH2 0x1983 JUMP JUMPDEST PUSH2 0x9A3 DUP3 PUSH2 0x1A9F JUMP JUMPDEST DUP4 GT PUSH2 0xC13 JUMPI DUP3 DUP5 SWAP1 DUP6 SWAP1 DUP7 SWAP6 PUSH1 0x5 DUP6 ADD SLOAD DUP1 ISZERO ISZERO DUP1 PUSH2 0xC0A JUMPI JUMPDEST PUSH2 0xBDE JUMPI JUMPDEST POP PUSH1 0x4 DUP6 ADD SLOAD DUP1 ISZERO ISZERO DUP1 PUSH2 0xBD5 JUMPI JUMPDEST PUSH2 0xBA7 JUMPI JUMPDEST POP PUSH1 0x3 DUP6 ADD SLOAD DUP1 ISZERO ISZERO DUP1 PUSH2 0xB9E JUMPI JUMPDEST PUSH2 0xB6C JUMPI JUMPDEST POP PUSH2 0x9F6 SWAP1 ISZERO PUSH2 0x193E JUMP JUMPDEST DUP7 PUSH1 0x3 DUP6 ADD SLOAD ISZERO SWAP5 DUP6 PUSH2 0xB5F JUMPI JUMPDEST DUP6 PUSH2 0xB52 JUMPI JUMPDEST DUP6 PUSH2 0xABC JUMPI JUMPDEST POP POP PUSH32 0x31C7916FF5E143D6AE3C61EAFD78B081FB183EE46B1A05FBB70DAF303343FA07 SWAP4 DUP2 PUSH2 0xA44 PUSH2 0x77D SWAP4 PUSH1 0xC SLOAD PUSH2 0x1853 JUMP JUMPDEST PUSH1 0xC SSTORE PUSH1 0x40 DUP1 MLOAD SWAP2 DUP3 MSTORE PUSH1 0x20 DUP3 ADD DUP7 SWAP1 MSTORE DUP2 ADD DUP5 SWAP1 MSTORE PUSH1 0x60 DUP2 ADD DUP9 SWAP1 MSTORE DUP2 ISZERO ISZERO PUSH1 0x80 DUP3 ADD MSTORE CALLER SWAP1 DUP8 SWAP1 PUSH32 0xAF43B8B8625ACF3814CAB229FA6D775F7BF519692F230945A7818A5CFC995FB2 SWAP1 PUSH1 0xA0 SWAP1 LOG3 PUSH1 0x40 MLOAD SWAP4 DUP5 SWAP4 CALLER SWAP9 DUP6 SWAP3 PUSH1 0x60 SWAP3 SWAP6 SWAP5 SWAP2 SWAP6 PUSH1 0x80 DUP6 ADD SWAP7 DUP6 MSTORE PUSH1 0x20 DUP6 ADD MSTORE PUSH1 0x40 DUP5 ADD MSTORE ISZERO ISZERO SWAP2 ADD MSTORE JUMP JUMPDEST PUSH1 0x9 DUP2 ADD DUP1 SLOAD PUSH1 0xFF NOT AND PUSH1 0x2 OR SWAP1 DUP2 SWAP1 SSTORE PUSH1 0x5 SLOAD PUSH1 0x1 DUP4 ADD SLOAD PUSH1 0xA SWAP1 SWAP4 ADD SLOAD PUSH1 0x1 PUSH1 0x1 PUSH1 0xA0 SHL SUB SWAP4 DUP5 AND SWAP4 SWAP1 SWAP2 AND DUP1 EXTCODESIZE ISZERO PUSH2 0x4AF JUMPI PUSH1 0x40 MLOAD PUSH4 0xFBD24BBB PUSH1 0xE0 SHL DUP2 MSTORE PUSH1 0x1 PUSH1 0x1 PUSH1 0xA0 SHL SUB SWAP5 DUP6 AND PUSH1 0x4 DUP3 ADD MSTORE PUSH1 0x8 SWAP4 SWAP1 SWAP4 SHR SWAP1 SWAP4 AND PUSH1 0x24 DUP4 ADD MSTORE PUSH1 0x44 DUP3 ADD MSTORE SWAP1 DUP3 SWAP1 DUP3 SWAP1 PUSH1 0x64 SWAP1 DUP3 SWAP1 DUP5 SWAP1 GAS CALL DUP1 ISZERO PUSH2 0x4B3 JUMPI ISZERO PUSH2 0xA10 JUMPI PUSH2 0xB43 SWAP1 PUSH2 0x1781 JUMP JUMPDEST PUSH2 0xB4E JUMPI DUP7 CODESIZE PUSH2 0xA10 JUMP JUMPDEST DUP7 DUP1 REVERT JUMPDEST PUSH1 0x5 DUP2 ADD SLOAD ISZERO SWAP6 POP PUSH2 0xA0A JUMP JUMPDEST PUSH1 0x4 DUP2 ADD SLOAD ISZERO SWAP6 POP PUSH2 0xA04 JUMP JUMPDEST SWAP1 SWAP7 POP PUSH2 0x9F6 SWAP1 DUP1 DUP9 LT PUSH2 0xB95 JUMPI PUSH2 0xB8A DUP2 JUMPDEST PUSH2 0x855 DUP2 DUP1 SWAP12 PUSH2 0x1931 JUMP JUMPDEST PUSH1 0x3 DUP8 ADD SSTORE SWAP1 PUSH2 0x9EB JUMP JUMPDEST PUSH2 0xB8A DUP9 PUSH2 0xB7F JUMP JUMPDEST POP DUP2 ISZERO ISZERO PUSH2 0x9E6 JUMP JUMPDEST SWAP1 SWAP3 POP DUP1 DUP4 LT PUSH2 0xBCC JUMPI PUSH2 0xBC1 DUP2 JUMPDEST PUSH2 0x855 DUP2 DUP1 SWAP7 PUSH2 0x1931 JUMP JUMPDEST PUSH1 0x4 DUP7 ADD SSTORE CODESIZE PUSH2 0x9D7 JUMP JUMPDEST PUSH2 0xBC1 DUP4 PUSH2 0xBB6 JUMP JUMPDEST POP DUP2 ISZERO ISZERO PUSH2 0x9D2 JUMP JUMPDEST SWAP4 POP POP DUP3 DUP2 LT PUSH2 0xC03 JUMPI DUP3 JUMPDEST PUSH2 0xBF8 DUP5 PUSH2 0x855 DUP2 DUP6 PUSH2 0x1931 JUMP JUMPDEST PUSH1 0x5 DUP7 ADD SSTORE CODESIZE PUSH2 0x9C3 JUMP JUMPDEST DUP1 SWAP3 PUSH2 0xBEA JUMP JUMPDEST POP DUP3 ISZERO ISZERO PUSH2 0x9BE JUMP JUMPDEST PUSH1 0x40 MLOAD PUSH3 0x461BCD PUSH1 0xE5 SHL DUP2 MSTORE PUSH1 0x20 PUSH1 0x4 DUP3 ADD MSTORE PUSH1 0x19 PUSH1 0x24 DUP3 ADD MSTORE PUSH32 0x416D6F756E74206578636565647320746F74616C206F77656400000000000000 PUSH1 0x44 DUP3 ADD MSTORE PUSH1 0x64 SWAP1 REVERT JUMPDEST POP CALLVALUE PUSH2 0x1A5 JUMPI DUP1 PUSH1 0x3 NOT CALLDATASIZE ADD SLT PUSH2 0x1A5 JUMPI PUSH2 0xC71 PUSH2 0x1802 JUMP JUMPDEST PUSH2 0xC79 PUSH2 0x1873 JUMP JUMPDEST PUSH1 0x1 PUSH1 0xFF NOT PUSH1 0x2 SLOAD AND OR PUSH1 0x2 SSTORE PUSH32 0x62E78CEA01BEE320CD4E420270B5EA74000D11B0C9F74754EBDBFC544B05A258 PUSH1 0x20 PUSH1 0x40 MLOAD CALLER DUP2 MSTORE LOG1 DUP1 RETURN JUMPDEST POP CALLVALUE PUSH2 0x1A5 JUMPI PUSH1 0xA0 CALLDATASIZE PUSH1 0x3 NOT ADD SLT PUSH2 0x1A5 JUMPI PUSH1 0x44 CALLDATALOAD PUSH1 0x1 PUSH1 0x1 PUSH1 0xA0 SHL SUB DUP2 AND SWAP1 SUB PUSH2 0x1A5 JUMPI PUSH1 0x84 CALLDATALOAD PUSH8 0xFFFFFFFFFFFFFFFF DUP2 GT PUSH2 0x148F JUMPI CALLDATASIZE PUSH1 0x23 DUP3 ADD SLT ISZERO PUSH2 0x148F JUMPI DUP1 PUSH1 0x4 ADD CALLDATALOAD SWAP1 PUSH8 0xFFFFFFFFFFFFFFFF DUP3 GT PUSH2 0x1152 JUMPI DUP3 SWAP1 PUSH1 0x40 MLOAD SWAP3 PUSH2 0xD24 PUSH1 0x20 PUSH1 0x1F NOT PUSH1 0x1F DUP5 ADD AND ADD DUP6 PUSH2 0x1795 JUMP JUMPDEST DUP1 DUP5 MSTORE CALLDATASIZE PUSH1 0x24 DUP3 DUP5 ADD ADD GT PUSH2 0x148B JUMPI DUP1 PUSH1 0x24 PUSH1 0x20 SWAP4 ADD DUP4 DUP7 ADD CALLDATACOPY DUP4 ADD ADD MSTORE PUSH2 0xD4A PUSH2 0x1873 JUMP JUMPDEST PUSH2 0xD52 PUSH2 0x1891 JUMP JUMPDEST PUSH1 0x4 CALLDATALOAD ISZERO PUSH2 0x1446 JUMPI PUSH1 0x64 CALLDATALOAD ISZERO PUSH2 0x13F0 JUMPI PUSH1 0x5 SLOAD PUSH1 0x40 MLOAD PUSH4 0x5C575189 PUSH1 0xE1 SHL DUP2 MSTORE PUSH1 0x1 PUSH1 0x1 PUSH1 0xA0 SHL SUB PUSH1 0x44 CALLDATALOAD DUP2 AND PUSH1 0x4 DUP4 ADD MSTORE SWAP1 SWAP2 AND SWAP2 SWAP1 PUSH1 0x20 DUP2 PUSH1 0x24 DUP2 DUP7 GAS STATICCALL SWAP1 DUP2 ISZERO PUSH2 0x12A8 JUMPI DUP5 SWAP2 PUSH2 0x13B5 JUMPI JUMPDEST POP ISZERO PUSH2 0x1370 JUMPI PUSH1 0x24 SWAP2 PUSH1 0x20 PUSH1 0x1 DUP1 PUSH1 0xA0 SHL SUB PUSH1 0x4 SLOAD AND PUSH1 0x40 MLOAD SWAP5 DUP6 DUP1 SWAP3 PUSH4 0x5E09EEA1 PUSH1 0xE0 SHL DUP3 MSTORE CALLER PUSH1 0x4 DUP4 ADD MSTORE GAS STATICCALL DUP1 ISZERO PUSH2 0x12A8 JUMPI DUP5 SWAP1 PUSH2 0x133D JUMPI JUMPDEST PUSH1 0x6 SLOAD PUSH1 0x40 MLOAD PUSH4 0xA5796785 PUSH1 0xE0 SHL DUP2 MSTORE PUSH1 0x4 DUP1 CALLDATALOAD SWAP1 DUP3 ADD MSTORE PUSH1 0x24 DUP2 ADD DUP4 SWAP1 MSTORE SWAP5 POP PUSH1 0x20 SWAP1 DUP6 SWAP1 PUSH1 0x44 SWAP1 DUP3 SWAP1 PUSH1 0x1 PUSH1 0x1 PUSH1 0xA0 SHL SUB AND GAS STATICCALL SWAP4 DUP5 ISZERO PUSH2 0x1332 JUMPI DUP6 SWAP5 PUSH2 0x12FC JUMPI JUMPDEST POP PUSH2 0xE2D SWAP1 PUSH1 0x4 CALLDATALOAD PUSH2 0x1AEB JUMP JUMPDEST PUSH1 0x64 CALLDATALOAD LT PUSH2 0x12B7 JUMPI DUP1 EXTCODESIZE ISZERO PUSH2 0x12B3 JUMPI PUSH1 0x40 MLOAD PUSH4 0xEE826161 PUSH1 0xE0 SHL DUP2 MSTORE CALLER PUSH1 0x4 DUP3 ADD MSTORE PUSH1 0x44 DUP1 CALLDATALOAD PUSH1 0x1 PUSH1 0x1 PUSH1 0xA0 SHL SUB AND PUSH1 0x24 DUP4 ADD MSTORE PUSH1 0x64 DUP1 CALLDATALOAD SWAP2 DUP4 ADD SWAP2 SWAP1 SWAP2 MSTORE SWAP1 SWAP2 DUP6 SWAP2 DUP4 SWAP2 DUP3 SWAP1 DUP5 SWAP1 GAS CALL DUP1 ISZERO PUSH2 0x12A8 JUMPI PUSH2 0x1295 JUMPI JUMPDEST POP PUSH2 0xE8F PUSH1 0x3 SLOAD PUSH2 0x182E JUMP JUMPDEST SWAP2 DUP3 PUSH1 0x3 SSTORE PUSH2 0xEA0 PUSH1 0x24 CALLDATALOAD TIMESTAMP PUSH2 0x1853 JUMP JUMPDEST SWAP4 PUSH1 0x40 MLOAD DUP1 PUSH1 0x20 DUP2 ADD LT PUSH8 0xFFFFFFFFFFFFFFFF PUSH1 0x20 DUP4 ADD GT OR PUSH2 0x127F JUMPI PUSH1 0x20 DUP2 ADD PUSH1 0x40 MSTORE DUP2 DUP2 MSTORE PUSH1 0x40 MLOAD SWAP1 DUP2 PUSH2 0x1A0 DUP2 ADD LT PUSH8 0xFFFFFFFFFFFFFFFF PUSH2 0x1A0 DUP5 ADD GT OR PUSH2 0x127F JUMPI PUSH2 0x1A0 DUP3 ADD PUSH1 0x40 MSTORE DUP6 DUP3 MSTORE CALLER PUSH1 0x20 DUP4 ADD MSTORE PUSH1 0x4 CALLDATALOAD PUSH1 0x40 DUP4 ADD MSTORE PUSH1 0x4 CALLDATALOAD PUSH1 0x60 DUP4 ADD MSTORE DUP3 PUSH1 0x80 DUP4 ADD MSTORE DUP3 PUSH1 0xA0 DUP4 ADD MSTORE DUP4 PUSH1 0xC0 DUP4 ADD MSTORE TIMESTAMP PUSH1 0xE0 DUP4 ADD MSTORE DUP7 PUSH2 0x100 DUP4 ADD MSTORE PUSH1 0x1 PUSH2 0x120 DUP4 ADD MSTORE PUSH1 0x1 DUP1 PUSH1 0xA0 SHL SUB PUSH1 0x44 CALLDATALOAD AND PUSH2 0x140 DUP4 ADD MSTORE PUSH1 0x64 CALLDATALOAD PUSH2 0x160 DUP4 ADD MSTORE PUSH2 0x180 DUP3 ADD MSTORE DUP5 DUP3 MSTORE PUSH1 0x7 PUSH1 0x20 MSTORE PUSH1 0x40 DUP3 KECCAK256 SWAP1 DUP1 MLOAD DUP3 SSTORE PUSH1 0x1 DUP3 ADD PUSH1 0x1 DUP1 PUSH1 0xA0 SHL SUB PUSH1 0x20 DUP4 ADD MLOAD AND PUSH12 0xFFFFFFFFFFFFFFFFFFFFFFFF PUSH1 0xA0 SHL DUP3 SLOAD AND OR SWAP1 SSTORE PUSH1 0x40 DUP2 ADD MLOAD PUSH1 0x2 DUP4 ADD SSTORE PUSH1 0x60 DUP2 ADD MLOAD PUSH1 0x3 DUP4 ADD SSTORE PUSH1 0x80 DUP2 ADD MLOAD PUSH1 0x4 DUP4 ADD SSTORE PUSH1 0xA0 DUP2 ADD MLOAD PUSH1 0x5 DUP4 ADD SSTORE PUSH1 0xC0 DUP2 ADD MLOAD PUSH1 0x6 DUP4 ADD SSTORE PUSH1 0xE0 DUP2 ADD MLOAD PUSH1 0x7 DUP4 ADD SSTORE PUSH2 0x100 DUP2 ADD MLOAD PUSH1 0x8 DUP4 ADD SSTORE PUSH2 0x120 DUP2 ADD MLOAD PUSH1 0x5 DUP2 LT ISZERO PUSH2 0x126B JUMPI SWAP1 PUSH2 0x180 SWAP2 PUSH1 0x9 DUP5 ADD SLOAD PUSH1 0xFF PUSH2 0x100 PUSH1 0x1 PUSH1 0xA8 SHL SUB PUSH2 0x140 DUP6 ADD MLOAD PUSH1 0x8 SHL AND SWAP3 AND SWAP1 PUSH11 0xFFFFFFFFFFFFFFFFFFFFFF PUSH1 0xA8 SHL AND OR OR PUSH1 0x9 DUP5 ADD SSTORE PUSH2 0x160 DUP2 ADD MLOAD PUSH1 0xA DUP5 ADD SSTORE ADD MLOAD DUP1 MLOAD SWAP1 PUSH1 0x1 PUSH1 0x40 SHL DUP3 GT PUSH2 0x1257 JUMPI PUSH1 0xB DUP4 ADD SLOAD DUP3 PUSH1 0xB DUP6 ADD SSTORE DUP1 DUP4 LT PUSH2 0x11E5 JUMPI JUMPDEST POP PUSH1 0x20 PUSH1 0xB SWAP2 ADD SWAP3 ADD DUP4 MSTORE PUSH1 0x20 DUP4 KECCAK256 DUP4 SWAP3 JUMPDEST DUP3 DUP5 LT PUSH2 0x1166 JUMPI POP POP POP POP CALLER DUP2 MSTORE PUSH1 0x8 PUSH1 0x20 MSTORE PUSH1 0x40 DUP2 KECCAK256 SWAP5 DUP6 SLOAD SWAP6 PUSH1 0x1 PUSH1 0x40 SHL DUP8 LT ISZERO PUSH2 0x1152 JUMPI SWAP1 PUSH2 0x1092 DUP8 DUP8 SWAP6 SWAP5 SWAP4 PUSH1 0x1 PUSH1 0x20 SWAP11 ADD DUP2 SSTORE PUSH2 0x17D4 JUMP JUMPDEST DUP2 SLOAD SWAP1 PUSH1 0x3 SHL SWAP1 DUP7 DUP3 SHL SWAP2 PUSH1 0x0 NOT SWAP1 SHL NOT AND OR SWAP1 SSTORE PUSH2 0x10B2 PUSH1 0xA SLOAD PUSH2 0x182E JUMP JUMPDEST PUSH1 0xA SSTORE PUSH2 0x10C3 PUSH1 0x4 CALLDATALOAD PUSH1 0xB SLOAD PUSH2 0x1853 JUMP JUMPDEST PUSH1 0xB SSTORE PUSH1 0x40 MLOAD SWAP3 PUSH1 0x4 CALLDATALOAD DUP5 MSTORE DUP8 DUP5 ADD MSTORE PUSH1 0x40 DUP4 ADD MSTORE PUSH1 0x80 PUSH1 0x60 DUP4 ADD MSTORE DUP4 MLOAD SWAP4 DUP5 PUSH1 0x80 DUP5 ADD MSTORE DUP2 JUMPDEST DUP6 DUP2 LT PUSH2 0x113B JUMPI POP POP SWAP1 PUSH32 0x25245F11C01A8248F86437C8804406956A90129AFAA991E689E5BBFA23BD9228 SWAP2 PUSH1 0xA0 DUP6 DUP4 ADD ADD MSTORE PUSH1 0xA0 DUP2 CALLER SWAP6 PUSH1 0x1F DUP1 NOT SWAP2 ADD AND DUP2 ADD SUB ADD SWAP1 LOG3 PUSH1 0x1 DUP1 SSTORE PUSH1 0x40 MLOAD SWAP1 DUP2 MSTORE RETURN JUMPDEST DUP1 DUP3 ADD DUP9 ADD MLOAD DUP2 DUP6 ADD PUSH1 0xA0 ADD MSTORE DUP7 SWAP5 POP DUP8 ADD PUSH2 0x10EA JUMP JUMPDEST PUSH4 0x4E487B71 PUSH1 0xE0 SHL DUP4 MSTORE PUSH1 0x41 PUSH1 0x4 MSTORE PUSH1 0x24 DUP4 REVERT JUMPDEST DUP1 MLOAD DUP1 MLOAD DUP4 SSTORE PUSH1 0x20 DUP2 ADD MLOAD PUSH1 0x1 DUP5 ADD SSTORE PUSH1 0x40 DUP2 ADD MLOAD PUSH1 0x2 DUP5 ADD SSTORE PUSH1 0x60 DUP2 ADD MLOAD PUSH1 0x3 DUP5 ADD SSTORE PUSH1 0x80 DUP2 ADD MLOAD PUSH1 0x4 DUP5 ADD SSTORE PUSH1 0xA0 DUP2 ADD MLOAD PUSH1 0x3 DUP2 LT ISZERO PUSH2 0x11D1 JUMPI PUSH1 0x1 SWAP3 PUSH1 0xC0 PUSH1 0x7 SWAP4 PUSH1 0x20 SWAP4 PUSH1 0x5 DUP9 ADD SWAP1 PUSH1 0xFF DUP1 NOT DUP4 SLOAD AND SWAP2 AND OR SWAP1 SSTORE ADD MLOAD PUSH1 0x6 DUP7 ADD SSTORE ADD SWAP3 ADD SWAP4 ADD SWAP3 SWAP1 PUSH2 0x1055 JUMP JUMPDEST PUSH4 0x4E487B71 PUSH1 0xE0 SHL DUP8 MSTORE PUSH1 0x21 PUSH1 0x4 MSTORE PUSH1 0x24 DUP8 REVERT JUMPDEST PUSH1 0x7 DUP2 DUP2 MUL DIV DUP2 SUB PUSH2 0x50F JUMPI PUSH1 0x7 DUP4 DUP2 MUL DIV DUP4 SUB PUSH2 0x50F JUMPI PUSH1 0xB DUP5 ADD DUP6 MSTORE PUSH1 0x20 DUP6 KECCAK256 DUP4 PUSH1 0x7 MUL DUP2 ADD JUMPDEST DUP3 PUSH1 0x7 MUL DUP3 ADD DUP2 LT PUSH2 0x1221 JUMPI POP POP PUSH2 0x1043 JUMP JUMPDEST DUP1 PUSH1 0x0 PUSH1 0x7 SWAP3 SSTORE PUSH1 0x0 PUSH1 0x1 DUP3 ADD SSTORE PUSH1 0x0 PUSH1 0x2 DUP3 ADD SSTORE PUSH1 0x0 PUSH1 0x3 DUP3 ADD SSTORE PUSH1 0x0 PUSH1 0x4 DUP3 ADD SSTORE DUP8 PUSH1 0x5 DUP3 ADD SSTORE PUSH1 0x0 PUSH1 0x6 DUP3 ADD SSTORE ADD PUSH2 0x120E JUMP JUMPDEST PUSH4 0x4E487B71 PUSH1 0xE0 SHL DUP5 MSTORE PUSH1 0x41 PUSH1 0x4 MSTORE PUSH1 0x24 DUP5 REVERT JUMPDEST PUSH4 0x4E487B71 PUSH1 0xE0 SHL DUP5 MSTORE PUSH1 0x21 PUSH1 0x4 MSTORE PUSH1 0x24 DUP5 REVERT JUMPDEST PUSH4 0x4E487B71 PUSH1 0xE0 SHL PUSH1 0x0 MSTORE PUSH1 0x41 PUSH1 0x4 MSTORE PUSH1 0x24 PUSH1 0x0 REVERT JUMPDEST PUSH2 0x12A1 SWAP1 SWAP4 SWAP2 SWAP4 PUSH2 0x1781 JUMP JUMPDEST SWAP2 CODESIZE PUSH2 0xE83 JUMP JUMPDEST PUSH1 0x40 MLOAD RETURNDATASIZE DUP7 DUP3 RETURNDATACOPY RETURNDATASIZE SWAP1 REVERT JUMPDEST DUP4 DUP1 REVERT JUMPDEST PUSH1 0x40 MLOAD PUSH3 0x461BCD PUSH1 0xE5 SHL DUP2 MSTORE PUSH1 0x20 PUSH1 0x4 DUP3 ADD MSTORE PUSH1 0x17 PUSH1 0x24 DUP3 ADD MSTORE PUSH32 0x496E73756666696369656E7420636F6C6C61746572616C000000000000000000 PUSH1 0x44 DUP3 ADD MSTORE PUSH1 0x64 SWAP1 REVERT JUMPDEST SWAP1 SWAP4 POP PUSH1 0x20 DUP2 RETURNDATASIZE PUSH1 0x20 GT PUSH2 0x132A JUMPI JUMPDEST DUP2 PUSH2 0x1318 PUSH1 0x20 SWAP4 DUP4 PUSH2 0x1795 JUMP JUMPDEST DUP2 ADD SUB SLT PUSH2 0x4AF JUMPI MLOAD SWAP3 PUSH2 0xE2D PUSH2 0xE20 JUMP JUMPDEST RETURNDATASIZE SWAP2 POP PUSH2 0x130B JUMP JUMPDEST PUSH1 0x40 MLOAD RETURNDATASIZE DUP8 DUP3 RETURNDATACOPY RETURNDATASIZE SWAP1 REVERT JUMPDEST POP PUSH1 0x20 DUP4 RETURNDATASIZE PUSH1 0x20 GT PUSH2 0x1368 JUMPI JUMPDEST DUP2 PUSH2 0x1357 PUSH1 0x20 SWAP4 DUP4 PUSH2 0x1795 JUMP JUMPDEST DUP2 ADD SUB SLT PUSH2 0x12B3 JUMPI PUSH1 0x44 SWAP3 MLOAD PUSH2 0xDDC JUMP JUMPDEST RETURNDATASIZE SWAP2 POP PUSH2 0x134A JUMP JUMPDEST PUSH1 0x40 MLOAD PUSH3 0x461BCD PUSH1 0xE5 SHL DUP2 MSTORE PUSH1 0x20 PUSH1 0x4 DUP3 ADD MSTORE PUSH1 0x1D PUSH1 0x24 DUP3 ADD MSTORE PUSH32 0x556E61636365707461626C6520636F6C6C61746572616C20746F6B656E000000 PUSH1 0x44 DUP3 ADD MSTORE PUSH1 0x64 SWAP1 REVERT JUMPDEST SWAP1 POP PUSH1 0x20 DUP2 RETURNDATASIZE PUSH1 0x20 GT PUSH2 0x13E8 JUMPI JUMPDEST DUP2 PUSH2 0x13D0 PUSH1 0x20 SWAP4 DUP4 PUSH2 0x1795 JUMP JUMPDEST DUP2 ADD SUB SLT PUSH2 0x12B3 JUMPI MLOAD DUP1 ISZERO ISZERO DUP2 SUB PUSH2 0x12B3 JUMPI CODESIZE PUSH2 0xDA0 JUMP JUMPDEST RETURNDATASIZE SWAP2 POP PUSH2 0x13C3 JUMP JUMPDEST PUSH1 0x40 MLOAD PUSH3 0x461BCD PUSH1 0xE5 SHL DUP2 MSTORE PUSH1 0x20 PUSH1 0x4 DUP3 ADD MSTORE PUSH1 0x28 PUSH1 0x24 DUP3 ADD MSTORE PUSH32 0x436F6C6C61746572616C20616D6F756E74206D75737420626520677265617465 PUSH1 0x44 DUP3 ADD MSTORE PUSH8 0x72207468616E203 PUSH1 0xC4 SHL PUSH1 0x64 DUP3 ADD MSTORE PUSH1 0x84 SWAP1 REVERT JUMPDEST PUSH1 0x40 MLOAD PUSH3 0x461BCD PUSH1 0xE5 SHL DUP2 MSTORE PUSH1 0x20 PUSH1 0x4 DUP3 ADD MSTORE PUSH1 0x1D PUSH1 0x24 DUP3 ADD MSTORE PUSH32 0x416D6F756E74206D7573742062652067726561746572207468616E2030000000 PUSH1 0x44 DUP3 ADD MSTORE PUSH1 0x64 SWAP1 REVERT JUMPDEST DUP3 DUP1 REVERT JUMPDEST POP DUP1 REVERT JUMPDEST POP CALLVALUE PUSH2 0x1A5 JUMPI DUP1 PUSH1 0x3 NOT CALLDATASIZE ADD SLT PUSH2 0x1A5 JUMPI PUSH2 0x14AC PUSH2 0x1802 JUMP JUMPDEST DUP1 SLOAD PUSH1 0x1 PUSH1 0x1 PUSH1 0xA0 SHL SUB NOT DUP2 AND DUP3 SSTORE DUP2 SWAP1 PUSH1 0x1 PUSH1 0x1 PUSH1 0xA0 SHL SUB AND PUSH32 0x8BE0079C531659141344CD1FD0A4F28419497F9722A3DAAFE3B4186F6B6457E0 DUP3 DUP1 LOG3 DUP1 RETURN JUMPDEST POP CALLVALUE PUSH2 0x1A5 JUMPI PUSH2 0x14FC CALLDATASIZE PUSH2 0x1750 JUMP JUMPDEST SWAP1 DUP3 MSTORE PUSH1 0x9 PUSH1 0x20 MSTORE PUSH1 0x40 DUP3 KECCAK256 SWAP1 DUP3 MSTORE PUSH1 0x20 MSTORE PUSH1 0x40 DUP2 KECCAK256 DUP1 SLOAD SWAP1 PUSH1 0x1 DUP2 ADD SLOAD SWAP1 PUSH1 0x2 DUP2 ADD SLOAD PUSH1 0x3 DUP3 ADD SLOAD PUSH1 0x4 DUP4 ADD SLOAD SWAP2 PUSH1 0x6 PUSH1 0xFF PUSH1 0x5 DUP7 ADD SLOAD AND SWAP5 ADD SLOAD SWAP5 PUSH1 0x40 MLOAD SWAP7 DUP8 MSTORE PUSH1 0x20 DUP8 ADD MSTORE PUSH1 0x40 DUP7 ADD MSTORE PUSH1 0x60 DUP6 ADD MSTORE PUSH1 0x80 DUP5 ADD MSTORE PUSH1 0x3 DUP2 LT ISZERO PUSH2 0x126B JUMPI PUSH1 0xE0 SWAP4 POP PUSH1 0xA0 DUP4 ADD MSTORE PUSH1 0xC0 DUP3 ADD MSTORE RETURN JUMPDEST POP CALLVALUE PUSH2 0x1A5 JUMPI PUSH1 0x20 CALLDATASIZE PUSH1 0x3 NOT ADD SLT PUSH2 0x1A5 JUMPI PUSH1 0x40 PUSH2 0x120 SWAP2 PUSH1 0x4 CALLDATALOAD DUP2 MSTORE PUSH1 0x7 PUSH1 0x20 MSTORE KECCAK256 PUSH1 0x8 DUP2 ADD SLOAD SWAP1 PUSH1 0x1 DUP1 PUSH1 0xA0 SHL SUB SWAP1 DUP2 PUSH1 0x1 DUP3 ADD SLOAD AND SWAP3 PUSH1 0x2 DUP3 ADD SLOAD SWAP2 PUSH1 0x3 DUP2 ADD SLOAD PUSH1 0x4 DUP3 ADD SLOAD SWAP1 PUSH1 0x9 PUSH1 0x5 DUP5 ADD SLOAD SWAP4 ADD SLOAD SWAP5 PUSH1 0x40 MLOAD SWAP8 DUP9 MSTORE PUSH1 0x20 DUP9 ADD MSTORE PUSH1 0x40 DUP8 ADD MSTORE PUSH1 0x60 DUP7 ADD MSTORE PUSH1 0x80 DUP6 ADD MSTORE DUP1 PUSH1 0xA0 DUP6 ADD MSTORE TIMESTAMP GT PUSH1 0xC0 DUP5 ADD MSTORE PUSH2 0x15F8 PUSH1 0xE0 DUP5 ADD PUSH1 0xFF DUP4 AND PUSH2 0x172D JUMP JUMPDEST PUSH1 0x8 SHR AND PUSH2 0x100 DUP3 ADD MSTORE RETURN JUMPDEST POP CALLVALUE PUSH2 0x1A5 JUMPI DUP1 PUSH1 0x3 NOT CALLDATASIZE ADD SLT PUSH2 0x1A5 JUMPI PUSH1 0x20 PUSH1 0xFF PUSH1 0x2 SLOAD AND PUSH1 0x40 MLOAD SWAP1 ISZERO ISZERO DUP2 MSTORE RETURN JUMPDEST POP CALLVALUE PUSH2 0x1A5 JUMPI DUP1 PUSH1 0x3 NOT CALLDATASIZE ADD SLT PUSH2 0x1A5 JUMPI PUSH1 0x20 PUSH1 0xB SLOAD PUSH1 0x40 MLOAD SWAP1 DUP2 MSTORE RETURN JUMPDEST POP CALLVALUE PUSH2 0x1A5 JUMPI DUP1 PUSH1 0x3 NOT CALLDATASIZE ADD SLT PUSH2 0x1A5 JUMPI PUSH2 0x165E PUSH2 0x1802 JUMP JUMPDEST PUSH1 0x2 SLOAD PUSH1 0xFF DUP2 AND ISZERO PUSH2 0x169E JUMPI PUSH1 0xFF NOT AND PUSH1 0x2 SSTORE PUSH32 0x5DB9EE0A495BF2E6FF9C91A7834C1BA4FDD244A5E8AA4E537BD38AEAE4B073AA PUSH1 0x20 PUSH1 0x40 MLOAD CALLER DUP2 MSTORE LOG1 DUP1 RETURN JUMPDEST PUSH1 0x40 MLOAD PUSH4 0x8DFC202B PUSH1 0xE0 SHL DUP2 MSTORE PUSH1 0x4 SWAP1 REVERT JUMPDEST POP CALLVALUE PUSH2 0x1A5 JUMPI PUSH1 0x20 CALLDATASIZE PUSH1 0x3 NOT ADD SLT PUSH2 0x1A5 JUMPI PUSH1 0x8 PUSH1 0x40 PUSH1 0x20 SWAP3 PUSH1 0x4 CALLDATALOAD DUP2 MSTORE PUSH1 0x7 DUP5 MSTORE KECCAK256 ADD SLOAD TIMESTAMP GT PUSH1 0x40 MLOAD SWAP1 DUP2 MSTORE RETURN JUMPDEST POP CALLVALUE PUSH2 0x1A5 JUMPI DUP1 PUSH1 0x3 NOT CALLDATASIZE ADD SLT PUSH2 0x1A5 JUMPI PUSH1 0x4 SLOAD PUSH1 0x40 MLOAD PUSH1 0x1 PUSH1 0x1 PUSH1 0xA0 SHL SUB SWAP1 SWAP2 AND DUP2 MSTORE PUSH1 0x20 SWAP1 RETURN JUMPDEST SWAP1 POP CALLVALUE PUSH2 0x148F JUMPI DUP2 PUSH1 0x3 NOT CALLDATASIZE ADD SLT PUSH2 0x148F JUMPI PUSH1 0x5 SLOAD PUSH1 0x1 PUSH1 0x1 PUSH1 0xA0 SHL SUB AND DUP2 MSTORE PUSH1 0x20 SWAP1 RETURN JUMPDEST SWAP1 PUSH1 0x5 DUP3 LT ISZERO PUSH2 0x173A JUMPI MSTORE JUMP JUMPDEST PUSH4 0x4E487B71 PUSH1 0xE0 SHL PUSH1 0x0 MSTORE PUSH1 0x21 PUSH1 0x4 MSTORE PUSH1 0x24 PUSH1 0x0 REVERT JUMPDEST PUSH1 0x40 SWAP1 PUSH1 0x3 NOT ADD SLT PUSH2 0x1766 JUMPI PUSH1 0x4 CALLDATALOAD SWAP1 PUSH1 0x24 CALLDATALOAD SWAP1 JUMP JUMPDEST PUSH1 0x0 DUP1 REVERT JUMPDEST PUSH1 0x4 CALLDATALOAD SWAP1 PUSH1 0x1 PUSH1 0x1 PUSH1 0xA0 SHL SUB DUP3 AND DUP3 SUB PUSH2 0x1766 JUMPI JUMP JUMPDEST PUSH8 0xFFFFFFFFFFFFFFFF DUP2 GT PUSH2 0x127F JUMPI PUSH1 0x40 MSTORE JUMP JUMPDEST SWAP1 PUSH1 0x1F DUP1 NOT SWAP2 ADD AND DUP2 ADD SWAP1 DUP2 LT PUSH8 0xFFFFFFFFFFFFFFFF DUP3 GT OR PUSH2 0x127F JUMPI PUSH1 0x40 MSTORE JUMP JUMPDEST CALLVALUE PUSH2 0x1766 JUMPI PUSH1 0x0 CALLDATASIZE PUSH1 0x3 NOT ADD SLT PUSH2 0x1766 JUMPI PUSH1 0x20 PUSH1 0x40 MLOAD PUSH2 0x3E8 DUP2 MSTORE RETURN JUMPDEST DUP1 SLOAD DUP3 LT ISZERO PUSH2 0x17EC JUMPI PUSH1 0x0 MSTORE PUSH1 0x20 PUSH1 0x0 KECCAK256 ADD SWAP1 PUSH1 0x0 SWAP1 JUMP JUMPDEST PUSH4 0x4E487B71 PUSH1 0xE0 SHL PUSH1 0x0 MSTORE PUSH1 0x32 PUSH1 0x4 MSTORE PUSH1 0x24 PUSH1 0x0 REVERT JUMPDEST PUSH1 0x0 SLOAD PUSH1 0x1 PUSH1 0x1 PUSH1 0xA0 SHL SUB AND CALLER SUB PUSH2 0x1816 JUMPI JUMP JUMPDEST PUSH1 0x40 MLOAD PUSH4 0x118CDAA7 PUSH1 0xE0 SHL DUP2 MSTORE CALLER PUSH1 0x4 DUP3 ADD MSTORE PUSH1 0x24 SWAP1 REVERT JUMPDEST PUSH1 0x0 NOT DUP2 EQ PUSH2 0x183D JUMPI PUSH1 0x1 ADD SWAP1 JUMP JUMPDEST PUSH4 0x4E487B71 PUSH1 0xE0 SHL PUSH1 0x0 MSTORE PUSH1 0x11 PUSH1 0x4 MSTORE PUSH1 0x24 PUSH1 0x0 REVERT JUMPDEST SWAP2 SWAP1 DUP3 ADD DUP1 SWAP3 GT PUSH2 0x183D JUMPI JUMP JUMPDEST DUP2 DUP2 MUL SWAP3 SWAP2 DUP2 ISZERO SWAP2 DUP5 DIV EQ OR ISZERO PUSH2 0x183D JUMPI JUMP JUMPDEST PUSH1 0xFF PUSH1 0x2 SLOAD AND PUSH2 0x187F JUMPI JUMP JUMPDEST PUSH1 0x40 MLOAD PUSH4 0xD93C0665 PUSH1 0xE0 SHL DUP2 MSTORE PUSH1 0x4 SWAP1 REVERT JUMPDEST PUSH1 0x2 PUSH1 0x1 SLOAD EQ PUSH2 0x18A2 JUMPI PUSH1 0x2 PUSH1 0x1 SSTORE JUMP JUMPDEST PUSH1 0x40 MLOAD PUSH4 0x3EE5AEB5 PUSH1 0xE0 SHL DUP2 MSTORE PUSH1 0x4 SWAP1 REVERT JUMPDEST ISZERO PUSH2 0x18BB JUMPI JUMP JUMPDEST PUSH1 0x40 MLOAD PUSH3 0x461BCD PUSH1 0xE5 SHL DUP2 MSTORE PUSH1 0x20 PUSH1 0x4 DUP3 ADD MSTORE PUSH1 0xF PUSH1 0x24 DUP3 ADD MSTORE PUSH15 0x4C6F616E206E6F7420616374697665 PUSH1 0x88 SHL PUSH1 0x44 DUP3 ADD MSTORE PUSH1 0x64 SWAP1 REVERT JUMPDEST ISZERO PUSH2 0x18F9 JUMPI JUMP JUMPDEST PUSH1 0x40 MLOAD PUSH3 0x461BCD PUSH1 0xE5 SHL DUP2 MSTORE PUSH1 0x20 PUSH1 0x4 DUP3 ADD MSTORE PUSH1 0x10 PUSH1 0x24 DUP3 ADD MSTORE PUSH16 0x2737BA103A3432903137B93937BBB2B9 PUSH1 0x81 SHL PUSH1 0x44 DUP3 ADD MSTORE PUSH1 0x64 SWAP1 REVERT JUMPDEST SWAP2 SWAP1 DUP3 SUB SWAP2 DUP3 GT PUSH2 0x183D JUMPI JUMP JUMPDEST ISZERO PUSH2 0x1945 JUMPI JUMP JUMPDEST PUSH1 0x40 MLOAD PUSH3 0x461BCD PUSH1 0xE5 SHL DUP2 MSTORE PUSH1 0x20 PUSH1 0x4 DUP3 ADD MSTORE PUSH1 0x16 PUSH1 0x24 DUP3 ADD MSTORE PUSH22 0x125B9D985B1A59081C185E5B595B9D08185B5BDD5B9D PUSH1 0x52 SHL PUSH1 0x44 DUP3 ADD MSTORE PUSH1 0x64 SWAP1 REVERT JUMPDEST DUP1 PUSH1 0x0 MSTORE PUSH1 0x7 PUSH1 0x20 MSTORE PUSH1 0x40 PUSH1 0x0 KECCAK256 PUSH1 0xFF PUSH1 0x9 DUP3 ADD SLOAD AND PUSH1 0x5 DUP2 LT ISZERO PUSH2 0x173A JUMPI PUSH1 0x1 SUB PUSH2 0x19D4 JUMPI PUSH1 0x5 SWAP1 PUSH2 0x19BE PUSH2 0x19B8 DUP5 PUSH2 0x19D8 JUMP JUMPDEST SWAP4 PUSH2 0x1A19 JUMP JUMPDEST SWAP3 PUSH2 0x19CE PUSH1 0x4 DUP4 ADD SWAP2 DUP3 SLOAD PUSH2 0x1853 JUMP JUMPDEST SWAP1 SSTORE ADD SSTORE JUMP JUMPDEST POP POP JUMP JUMPDEST PUSH1 0x0 MSTORE PUSH1 0x7 PUSH1 0x20 MSTORE PUSH5 0x496CEBB800 PUSH2 0x1A15 PUSH1 0x40 PUSH1 0x0 KECCAK256 PUSH2 0x1A10 PUSH2 0x19FF PUSH1 0x7 DUP4 ADD SLOAD TIMESTAMP PUSH2 0x1931 JUMP JUMPDEST SWAP2 PUSH1 0x6 PUSH1 0x2 DUP3 ADD SLOAD SWAP2 ADD SLOAD SWAP1 PUSH2 0x1860 JUMP JUMPDEST PUSH2 0x1860 JUMP JUMPDEST DIV SWAP1 JUMP JUMPDEST PUSH1 0x0 SWAP1 DUP2 MSTORE PUSH1 0x7 PUSH1 0x20 MSTORE PUSH1 0x40 DUP2 KECCAK256 SWAP1 PUSH1 0x8 DUP3 ADD SLOAD DUP1 TIMESTAMP GT ISZERO PUSH2 0x1A99 JUMPI PUSH3 0x15180 PUSH2 0x1A45 PUSH1 0x2 SWAP3 TIMESTAMP PUSH2 0x1931 JUMP JUMPDEST DIV SWAP3 ADD SLOAD SWAP2 PUSH2 0x3E8 SWAP3 DUP4 DUP2 MUL SWAP4 DUP2 DUP6 DIV EQ SWAP1 ISZERO OR ISZERO PUSH2 0x1A85 JUMPI PUSH2 0x1A71 PUSH3 0x493E0 SWAP2 PUSH2 0x2710 DUP6 DIV SWAP5 PUSH2 0x1860 JUMP JUMPDEST DIV SWAP1 POP DUP2 DUP2 GT ISZERO PUSH2 0x1A80 JUMPI POP SWAP1 JUMP JUMPDEST SWAP1 POP SWAP1 JUMP JUMPDEST PUSH4 0x4E487B71 PUSH1 0xE0 SHL DUP3 MSTORE PUSH1 0x11 PUSH1 0x4 MSTORE PUSH1 0x24 DUP3 REVERT JUMPDEST POP SWAP1 POP SWAP1 JUMP JUMPDEST PUSH2 0x1AE8 SWAP1 DUP1 PUSH1 0x0 MSTORE PUSH1 0x7 PUSH1 0x20 MSTORE PUSH2 0x5BE PUSH1 0x40 PUSH1 0x0 KECCAK256 PUSH1 0x5 PUSH2 0x1ADF PUSH2 0x1ACB PUSH2 0x1AC5 DUP7 PUSH2 0x19D8 JUMP JUMPDEST SWAP6 PUSH2 0x1A19 JUMP JUMPDEST SWAP5 PUSH2 0x5BE PUSH1 0x3 DUP6 ADD SLOAD PUSH1 0x4 DUP7 ADD SLOAD SWAP1 PUSH2 0x1853 JUMP JUMPDEST SWAP2 ADD SLOAD SWAP1 PUSH2 0x1853 JUMP JUMPDEST SWAP1 JUMP JUMPDEST SWAP1 PUSH2 0x320 DUP2 LT PUSH2 0x1B10 JUMPI POP PUSH1 0x78 DUP2 MUL SWAP1 DUP1 DUP3 DIV PUSH1 0x78 EQ SWAP1 ISZERO OR ISZERO PUSH2 0x183D JUMPI PUSH1 0x64 SWAP1 DIV SWAP1 JUMP JUMPDEST PUSH2 0x258 DUP2 LT PUSH2 0x1B34 JUMPI POP PUSH1 0x82 DUP2 MUL SWAP1 DUP1 DUP3 DIV PUSH1 0x82 EQ SWAP1 ISZERO OR ISZERO PUSH2 0x183D JUMPI PUSH1 0x64 SWAP1 DIV SWAP1 JUMP JUMPDEST PUSH2 0x190 GT PUSH2 0x1B56 JUMPI PUSH1 0x96 DUP2 MUL SWAP1 DUP1 DUP3 DIV PUSH1 0x96 EQ SWAP1 ISZERO OR ISZERO PUSH2 0x183D JUMPI PUSH1 0x64 SWAP1 DIV SWAP1 JUMP JUMPDEST PUSH1 0xC8 DUP2 MUL SWAP1 DUP1 DUP3 DIV PUSH1 0xC8 EQ SWAP1 ISZERO OR ISZERO PUSH2 0x183D JUMPI PUSH1 0x64 SWAP1 DIV SWAP1 JUMP INVALID LOG2 PUSH5 0x6970667358 0x22 SLT KECCAK256 MSTORE8 0xFC ISZERO CALLVALUE SWAP9 0xA5 PUSH30 0xCC03FD3FC0474C538EA093BBC1EC7623B272808DA633A681E064736F6C63 NUMBER STOP ADDMOD EQ STOP CALLER "},"methodIdentifiers":{"GRACE_PERIOD()":"c1a287e2","LATE_FEE_BPS()":"a8c93057","MAX_LATE_FEE_BPS()":"791d000f","borrowerLoans(address,uint256)":"e3ed1902","calculateRepaymentAmount(uint256)":"b1197239","collateralManager()":"23be345c","createLoan(uint256,uint256,address,uint256,string)":"733330c0","getLoanDetails(uint256)":"66877b8d","getMaxLateFee(uint256)":"fe9f6241","interestRateModel()":"f3fdb15a","isLoanOverdue(uint256)":"3b498602","liquidateLoan(uint256)":"ccdd9f5d","loans(uint256)":"e1ec3c68","owner()":"8da5cb5b","pause()":"8456cb59","paused()":"5c975abb","renounceOwnership()":"715018a6","repayLoan(uint256,uint256)":"8a700b53","repayLoanFull(uint256)":"9a11e339","repaymentSchedules(uint256,uint256)":"6c22f60b","totalAmountLent()":"562fbdff","totalDefaulted()":"8d461c89","totalLoansIssued()":"c7959d04","totalRepaid()":"a72dad05","transferOwnership(address)":"f2fde38b","trustScore()":"3078d998","unpause()":"3f4ba83a"}}}}}