{"contracts/CollateralManager.sol":{"CollateralManager":{"abi":[{"inputs":[{"internalType":"address","name":"initialOwner","type":"address"}],"stateMutability":"nonpayable","type":"constructor"},{"inputs":[],"name":"EnforcedPause","type":"error"},{"inputs":[],"name":"ExpectedPause","type":"error"},{"inputs":[{"internalType":"address","name":"owner","type":"address"}],"name":"OwnableInvalidOwner","type":"error"},{"inputs":[{"internalType":"address","name":"account","type":"address"}],"name":"OwnableUnauthorizedAccount","type":"error"},{"inputs":[],"name":"ReentrancyGuardReentrantCall","type":"error"},{"anonymous":false,"inputs":[{"indexed":true,"internalType":"address","name":"user","type":"address"},{"indexed":true,"internalType":"address","name":"token","type":"address"},{"indexed":false,"internalType":"uint256","name":"amount","type":"uint256"}],"name":"CollateralLiquidated","type":"event"},{"anonymous":false,"inputs":[{"indexed":true,"internalType":"address","name":"user","type":"address"},{"indexed":true,"internalType":"address","name":"token","type":"address"},{"indexed":false,"internalType":"uint256","name":"amount","type":"uint256"}],"name":"CollateralLocked","type":"event"},{"anonymous":false,"inputs":[{"indexed":true,"internalType":"address","name":"user","type":"address"},{"indexed":true,"internalType":"address","name":"token","type":"address"},{"indexed":false,"internalType":"uint256","name":"amount","type":"uint256"}],"name":"CollateralReleased","type":"event"},{"anonymous":false,"inputs":[{"indexed":true,"internalType":"address","name":"previousOwner","type":"address"},{"indexed":true,"internalType":"address","name":"newOwner","type":"address"}],"name":"OwnershipTransferred","type":"event"},{"anonymous":false,"inputs":[{"indexed":false,"internalType":"address","name":"account","type":"address"}],"name":"Paused","type":"event"},{"anonymous":false,"inputs":[{"indexed":false,"internalType":"address","name":"account","type":"address"}],"name":"Unpaused","type":"event"},{"inputs":[{"internalType":"address","name":"","type":"address"}],"name":"acceptableCollaterals","outputs":[{"internalType":"bool","name":"","type":"bool"}],"stateMutability":"view","type":"function"},{"inputs":[{"internalType":"address","name":"user","type":"address"},{"internalType":"address","name":"collateralToken","type":"address"}],"name":"getLockedCollateral","outputs":[{"internalType":"uint256","name":"","type":"uint256"}],"stateMutability":"view","type":"function"},{"inputs":[{"internalType":"address","name":"token","type":"address"}],"name":"isAcceptableCollateral","outputs":[{"internalType":"bool","name":"","type":"bool"}],"stateMutability":"view","type":"function"},{"inputs":[{"internalType":"address","name":"user","type":"address"},{"internalType":"address","name":"collateralToken","type":"address"},{"internalType":"uint256","name":"amount","type":"uint256"}],"name":"liquidateCollateral","outputs":[],"stateMutability":"nonpayable","type":"function"},{"inputs":[{"internalType":"address","name":"user","type":"address"},{"internalType":"address","name":"collateralToken","type":"address"},{"internalType":"uint256","name":"amount","type":"uint256"}],"name":"lockCollateral","outputs":[],"stateMutability":"payable","type":"function"},{"inputs":[{"internalType":"address","name":"","type":"address"},{"internalType":"address","name":"","type":"address"}],"name":"lockedCollateral","outputs":[{"internalType":"uint256","name":"","type":"uint256"}],"stateMutability":"view","type":"function"},{"inputs":[],"name":"owner","outputs":[{"internalType":"address","name":"","type":"address"}],"stateMutability":"view","type":"function"},{"inputs":[],"name":"pause","outputs":[],"stateMutability":"nonpayable","type":"function"},{"inputs":[],"name":"paused","outputs":[{"internalType":"bool","name":"","type":"bool"}],"stateMutability":"view","type":"function"},{"inputs":[{"internalType":"address","name":"user","type":"address"},{"internalType":"address","name":"collateralToken","type":"address"},{"internalType":"uint256","name":"amount","type":"uint256"}],"name":"releaseCollateral","outputs":[],"stateMutability":"nonpayable","type":"function"},{"inputs":[],"name":"renounceOwnership","outputs":[],"stateMutability":"nonpayable","type":"function"},{"inputs":[{"internalType":"address","name":"token","type":"address"},{"internalType":"bool","name":"acceptable","type":"bool"}],"name":"setAcceptableCollateral","outputs":[],"stateMutability":"nonpayable","type":"function"},{"inputs":[{"internalType":"address","name":"newOwner","type":"address"}],"name":"transferOwnership","outputs":[],"stateMutability":"nonpayable","type":"function"},{"inputs":[],"name":"unpause","outputs":[],"stateMutability":"nonpayable","type":"function"}],"evm":{"bytecode":{"linkReferences":{},"object":"6080346100d657601f610bf138819003918201601f19168301916001600160401b038311848410176100db578084926020946040528339810103126100d657516001600160a01b0390818116908190036100d65780156100bd57600080546001600160a01b03198116831782556040805194909391167f8be0079c531659141344cd1fd0a4f28419497f9722a3daafe3b4186f6b6457e08380a360018055808052600460205220600160ff19825416179055610aff90816100f28239f35b604051631e4fbdf760e01b815260006004820152602490fd5b600080fd5b634e487b7160e01b600052604160045260246000fdfe6040608081526004908136101561001557600080fd5b600091823560e01c806295372414610797578063044727be1461069157806327a73789146107435780633f4ba83a146106da57806340f895ea146106915780635c975abb1461066d578063715018a6146106105780638456cb59146105b55780638da5cb5b14610589578063b8aea31214610281578063ee82616114610343578063f2fde38b146102bd578063fa3ba35c146102815763fbd24bbb146100ba57600080fd5b3461027d576100c836610968565b6100d3939193610a19565b6100db610a37565b60018060a01b03918284169384885260209360038552878920961695868952845261010b83888a20541015610a5a565b848852600384528688208689528452868820610128848254610aa6565b90558561018c575050858184828215610183575b839283928392f115610179577f61934a17c11b5044643161fe4f0b02bec50109892c048066a3b19507bdc59bb99293945b51908152a36001805580f35b84513d87823e3d90fd5b506108fc61013c565b865163a9059cbb60e01b81526001600160a01b0390911682820190815260208101849052959694959394929385908290819060400103818b8b5af1908115610273578891610246575b50156102055750907f61934a17c11b5044643161fe4f0b02bec50109892c048066a3b19507bdc59bb9929161016d565b83606492519162461bcd60e51b8352820152601960248201527f436f6c6c61746572616c2072656c65617365206661696c6564000000000000006044820152fd5b6102669150853d871161026c575b61025e81836109c9565b810190610a01565b386101d5565b503d610254565b83513d8a823e3d90fd5b8280fd5b503461027d57602036600319011261027d5760209260ff918391906001600160a01b036102ac610937565b168252855220541690519015158152f35b503461027d57602036600319011261027d576102d7610937565b906102e061099d565b6001600160a01b0391821692831561032d57505082546001600160a01b0319811683178455167f8be0079c531659141344cd1fd0a4f28419497f9722a3daafe3b4186f6b6457e08380a380f35b51631e4fbdf760e01b8152908101849052602490fd5b50919061034f36610968565b61035b93929193610a19565b610363610a37565b60018060a01b038094169384865260209287845260ff85882054161561054657169283330361050457846104625781340361042957858083801561041f575b8280929181923090f115610416575b838652600383528086208587528352808620805490838201809211610403577f9d952b9056b1ad31790d622a7f5ecf49004b370b41add0e429ac1e9f4b8a333595969798505551908152a36001805580f35b634e487b7160e01b885260118952602488fd5b513d86823e3d90fd5b6108fc91506103a2565b5162461bcd60e51b81528087018390526014602482015273125b98dbdc9c9958dd0811551208185b5bdd5b9d60621b6044820152606490fd5b80516323b872dd60e01b8152848882015230602482015282604482015283816064818a8a5af19081156104fa5787916104dd575b506103b1575162461bcd60e51b8152808701839052601a60248201527f436f6c6c61746572616c207472616e73666572206661696c65640000000000006044820152606490fd5b6104f49150843d861161026c5761025e81836109c9565b38610496565b82513d89823e3d90fd5b5162461bcd60e51b8152808701839052601c60248201527f43616e206f6e6c79206c6f636b206f776e20636f6c6c61746572616c000000006044820152606490fd5b845162461bcd60e51b8152808901859052601760248201527f556e61636365707461626c6520636f6c6c61746572616c0000000000000000006044820152606490fd5b5050346105b157816003193601126105b157905490516001600160a01b039091168152602090f35b5080fd5b5050346105b157816003193601126105b15760207f62e78cea01bee320cd4e420270b5ea74000d11b0c9f74754ebdbfc544b05a258916105f361099d565b6105fb610a19565b600160ff19600254161760025551338152a180f35b833461066a578060031936011261066a5761062961099d565b80546001600160a01b03198116825581906001600160a01b03167f8be0079c531659141344cd1fd0a4f28419497f9722a3daafe3b4186f6b6457e08280a380f35b80fd5b5050346105b157816003193601126105b15760209060ff6002541690519015158152f35b5050346105b157806003193601126105b157806020926106af610937565b6106b7610952565b6001600160a01b0391821683526003865283832091168252845220549051908152f35b503461027d578260031936011261027d576106f361099d565b6002549060ff821615610735575060ff1916600255513381527f5db9ee0a495bf2e6ff9c91a7834c1ba4fdd244a5e8aa4e537bd38aeae4b073aa90602090a180f35b8251638dfc202b60e01b8152fd5b50903461027d578060031936011261027d5761075d610937565b91602435928315158094036107935761077461099d565b60018060a01b0316845260205282209060ff8019835416911617905580f35b8480fd5b503461027d576107a636610968565b6107b1939193610a19565b6107b9610a37565b8560018060a01b0380941693848252602093600385528188842097169687845285526107ea84898520541015610a5a565b858352600385528783208784528552878320610807858254610aa6565b90558661085e57508180848193825416828215610855575bf115610179577fa921f03ec5892bc5a2db676d49b6d93e3f24c3c63f070cc5b139a317f976a20592939451908152a36001805580f35b506108fc61081f565b9154875163a9059cbb60e01b815291166001600160a01b031681830190815260208101849052959694959394929385908290819060400103818b8b5af190811561027357889161091a575b50156108d95750907fa921f03ec5892bc5a2db676d49b6d93e3f24c3c63f070cc5b139a317f976a205929161016d565b83606492519162461bcd60e51b8352820152601d60248201527f436f6c6c61746572616c206c69717569646174696f6e206661696c65640000006044820152fd5b6109319150853d871161026c5761025e81836109c9565b386108a9565b600435906001600160a01b038216820361094d57565b600080fd5b602435906001600160a01b038216820361094d57565b606090600319011261094d576001600160a01b0390600435828116810361094d5791602435908116810361094d579060443590565b6000546001600160a01b031633036109b157565b60405163118cdaa760e01b8152336004820152602490fd5b90601f8019910116810190811067ffffffffffffffff8211176109eb57604052565b634e487b7160e01b600052604160045260246000fd5b9081602091031261094d5751801515810361094d5790565b60ff60025416610a2557565b60405163d93c066560e01b8152600490fd5b600260015414610a48576002600155565b604051633ee5aeb560e01b8152600490fd5b15610a6157565b60405162461bcd60e51b815260206004820152601e60248201527f496e73756666696369656e74206c6f636b656420636f6c6c61746572616c00006044820152606490fd5b91908203918211610ab357565b634e487b7160e01b600052601160045260246000fdfea2646970667358221220c741bd434f421472b0d65bfbb28c8920ed0d4ea71a6a77927c29f23ae8d2655e64736f6c63430008140033","opcodes":"PUSH1 0x80 CALLVALUE PUSH2 0xD6 JUMPI PUSH1 0x1F PUSH2 0xBF1 CODESIZE DUP2 SWAP1 SUB SWAP2 DUP3 ADD PUSH1 0x1F NOT AND DUP4 ADD SWAP2 PUSH1 0x1 PUSH1 0x1 PUSH1 0x40 SHL SUB DUP4 GT DUP5 DUP5 LT OR PUSH2 0xDB JUMPI DUP1 DUP5 SWAP3 PUSH1 0x20 SWAP5 PUSH1 0x40 MSTORE DUP4 CODECOPY DUP2 ADD SUB SLT PUSH2 0xD6 JUMPI MLOAD PUSH1 0x1 PUSH1 0x1 PUSH1 0xA0 SHL SUB SWAP1 DUP2 DUP2 AND SWAP1 DUP2 SWAP1 SUB PUSH2 0xD6 JUMPI DUP1 ISZERO PUSH2 0xBD JUMPI PUSH1 0x0 DUP1 SLOAD PUSH1 0x1 PUSH1 0x1 PUSH1 0xA0 SHL SUB NOT DUP2 AND DUP4 OR DUP3 SSTORE PUSH1 0x40 DUP1 MLOAD SWAP5 SWAP1 SWAP4 SWAP2 AND PUSH32 0x8BE0079C531659141344CD1FD0A4F28419497F9722A3DAAFE3B4186F6B6457E0 DUP4 DUP1 LOG3 PUSH1 0x1 DUP1 SSTORE DUP1 DUP1 MSTORE PUSH1 0x4 PUSH1 0x20 MSTORE KECCAK256 PUSH1 0x1 PUSH1 0xFF NOT DUP3 SLOAD AND OR SWAP1 SSTORE PUSH2 0xAFF SWAP1 DUP2 PUSH2 0xF2 DUP3 CODECOPY RETURN JUMPDEST PUSH1 0x40 MLOAD PUSH4 0x1E4FBDF7 PUSH1 0xE0 SHL DUP2 MSTORE PUSH1 0x0 PUSH1 0x4 DUP3 ADD MSTORE PUSH1 0x24 SWAP1 REVERT JUMPDEST PUSH1 0x0 DUP1 REVERT JUMPDEST PUSH4 0x4E487B71 PUSH1 0xE0 SHL PUSH1 0x0 MSTORE PUSH1 0x41 PUSH1 0x4 MSTORE PUSH1 0x24 PUSH1 0x0 REVERT INVALID PUSH1 0x40 PUSH1 0x80 DUP2 MSTORE PUSH1 0x4 SWAP1 DUP2 CALLDATASIZE LT ISZERO PUSH2 0x15 JUMPI PUSH1 0x0 DUP1 REVERT JUMPDEST PUSH1 0x0 SWAP2 DUP3 CALLDATALOAD PUSH1 0xE0 SHR DUP1 PUSH3 0x953724 EQ PUSH2 0x797 JUMPI DUP1 PUSH4 0x44727BE EQ PUSH2 0x691 JUMPI DUP1 PUSH4 0x27A73789 EQ PUSH2 0x743 JUMPI DUP1 PUSH4 0x3F4BA83A EQ PUSH2 0x6DA JUMPI DUP1 PUSH4 0x40F895EA EQ PUSH2 0x691 JUMPI DUP1 PUSH4 0x5C975ABB EQ PUSH2 0x66D JUMPI DUP1 PUSH4 0x715018A6 EQ PUSH2 0x610 JUMPI DUP1 PUSH4 0x8456CB59 EQ PUSH2 0x5B5 JUMPI DUP1 PUSH4 0x8DA5CB5B EQ PUSH2 0x589 JUMPI DUP1 PUSH4 0xB8AEA312 EQ PUSH2 0x281 JUMPI DUP1 PUSH4 0xEE826161 EQ PUSH2 0x343 JUMPI DUP1 PUSH4 0xF2FDE38B EQ PUSH2 0x2BD JUMPI DUP1 PUSH4 0xFA3BA35C EQ PUSH2 0x281 JUMPI PUSH4 0xFBD24BBB EQ PUSH2 0xBA JUMPI PUSH1 0x0 DUP1 REVERT JUMPDEST CALLVALUE PUSH2 0x27D JUMPI PUSH2 0xC8 CALLDATASIZE PUSH2 0x968 JUMP JUMPDEST PUSH2 0xD3 SWAP4 SWAP2 SWAP4 PUSH2 0xA19 JUMP JUMPDEST PUSH2 0xDB PUSH2 0xA37 JUMP JUMPDEST PUSH1 0x1 DUP1 PUSH1 0xA0 SHL SUB SWAP2 DUP3 DUP5 AND SWAP4 DUP5 DUP9 MSTORE PUSH1 0x20 SWAP4 PUSH1 0x3 DUP6 MSTORE DUP8 DUP10 KECCAK256 SWAP7 AND SWAP6 DUP7 DUP10 MSTORE DUP5 MSTORE PUSH2 0x10B DUP4 DUP9 DUP11 KECCAK256 SLOAD LT ISZERO PUSH2 0xA5A JUMP JUMPDEST DUP5 DUP9 MSTORE PUSH1 0x3 DUP5 MSTORE DUP7 DUP9 KECCAK256 DUP7 DUP10 MSTORE DUP5 MSTORE DUP7 DUP9 KECCAK256 PUSH2 0x128 DUP5 DUP3 SLOAD PUSH2 0xAA6 JUMP JUMPDEST SWAP1 SSTORE DUP6 PUSH2 0x18C JUMPI POP POP DUP6 DUP2 DUP5 DUP3 DUP3 ISZERO PUSH2 0x183 JUMPI JUMPDEST DUP4 SWAP3 DUP4 SWAP3 DUP4 SWAP3 CALL ISZERO PUSH2 0x179 JUMPI PUSH32 0x61934A17C11B5044643161FE4F0B02BEC50109892C048066A3B19507BDC59BB9 SWAP3 SWAP4 SWAP5 JUMPDEST MLOAD SWAP1 DUP2 MSTORE LOG3 PUSH1 0x1 DUP1 SSTORE DUP1 RETURN JUMPDEST DUP5 MLOAD RETURNDATASIZE DUP8 DUP3 RETURNDATACOPY RETURNDATASIZE SWAP1 REVERT JUMPDEST POP PUSH2 0x8FC PUSH2 0x13C JUMP JUMPDEST DUP7 MLOAD PUSH4 0xA9059CBB PUSH1 0xE0 SHL DUP2 MSTORE PUSH1 0x1 PUSH1 0x1 PUSH1 0xA0 SHL SUB SWAP1 SWAP2 AND DUP3 DUP3 ADD SWAP1 DUP2 MSTORE PUSH1 0x20 DUP2 ADD DUP5 SWAP1 MSTORE SWAP6 SWAP7 SWAP5 SWAP6 SWAP4 SWAP5 SWAP3 SWAP4 DUP6 SWAP1 DUP3 SWAP1 DUP2 SWAP1 PUSH1 0x40 ADD SUB DUP2 DUP12 DUP12 GAS CALL SWAP1 DUP2 ISZERO PUSH2 0x273 JUMPI DUP9 SWAP2 PUSH2 0x246 JUMPI JUMPDEST POP ISZERO PUSH2 0x205 JUMPI POP SWAP1 PUSH32 0x61934A17C11B5044643161FE4F0B02BEC50109892C048066A3B19507BDC59BB9 SWAP3 SWAP2 PUSH2 0x16D JUMP JUMPDEST DUP4 PUSH1 0x64 SWAP3 MLOAD SWAP2 PUSH3 0x461BCD PUSH1 0xE5 SHL DUP4 MSTORE DUP3 ADD MSTORE PUSH1 0x19 PUSH1 0x24 DUP3 ADD MSTORE PUSH32 0x436F6C6C61746572616C2072656C65617365206661696C656400000000000000 PUSH1 0x44 DUP3 ADD MSTORE REVERT JUMPDEST PUSH2 0x266 SWAP2 POP DUP6 RETURNDATASIZE DUP8 GT PUSH2 0x26C JUMPI JUMPDEST PUSH2 0x25E DUP2 DUP4 PUSH2 0x9C9 JUMP JUMPDEST DUP2 ADD SWAP1 PUSH2 0xA01 JUMP JUMPDEST CODESIZE PUSH2 0x1D5 JUMP JUMPDEST POP RETURNDATASIZE PUSH2 0x254 JUMP JUMPDEST DUP4 MLOAD RETURNDATASIZE DUP11 DUP3 RETURNDATACOPY RETURNDATASIZE SWAP1 REVERT JUMPDEST DUP3 DUP1 REVERT JUMPDEST POP CALLVALUE PUSH2 0x27D JUMPI PUSH1 0x20 CALLDATASIZE PUSH1 0x3 NOT ADD SLT PUSH2 0x27D JUMPI PUSH1 0x20 SWAP3 PUSH1 0xFF SWAP2 DUP4 SWAP2 SWAP1 PUSH1 0x1 PUSH1 0x1 PUSH1 0xA0 SHL SUB PUSH2 0x2AC PUSH2 0x937 JUMP JUMPDEST AND DUP3 MSTORE DUP6 MSTORE KECCAK256 SLOAD AND SWAP1 MLOAD SWAP1 ISZERO ISZERO DUP2 MSTORE RETURN JUMPDEST POP CALLVALUE PUSH2 0x27D JUMPI PUSH1 0x20 CALLDATASIZE PUSH1 0x3 NOT ADD SLT PUSH2 0x27D JUMPI PUSH2 0x2D7 PUSH2 0x937 JUMP JUMPDEST SWAP1 PUSH2 0x2E0 PUSH2 0x99D JUMP JUMPDEST PUSH1 0x1 PUSH1 0x1 PUSH1 0xA0 SHL SUB SWAP2 DUP3 AND SWAP3 DUP4 ISZERO PUSH2 0x32D JUMPI POP POP DUP3 SLOAD PUSH1 0x1 PUSH1 0x1 PUSH1 0xA0 SHL SUB NOT DUP2 AND DUP4 OR DUP5 SSTORE AND PUSH32 0x8BE0079C531659141344CD1FD0A4F28419497F9722A3DAAFE3B4186F6B6457E0 DUP4 DUP1 LOG3 DUP1 RETURN JUMPDEST MLOAD PUSH4 0x1E4FBDF7 PUSH1 0xE0 SHL DUP2 MSTORE SWAP1 DUP2 ADD DUP5 SWAP1 MSTORE PUSH1 0x24 SWAP1 REVERT JUMPDEST POP SWAP2 SWAP1 PUSH2 0x34F CALLDATASIZE PUSH2 0x968 JUMP JUMPDEST PUSH2 0x35B SWAP4 SWAP3 SWAP2 SWAP4 PUSH2 0xA19 JUMP JUMPDEST PUSH2 0x363 PUSH2 0xA37 JUMP JUMPDEST PUSH1 0x1 DUP1 PUSH1 0xA0 SHL SUB DUP1 SWAP5 AND SWAP4 DUP5 DUP7 MSTORE PUSH1 0x20 SWAP3 DUP8 DUP5 MSTORE PUSH1 0xFF DUP6 DUP9 KECCAK256 SLOAD AND ISZERO PUSH2 0x546 JUMPI AND SWAP3 DUP4 CALLER SUB PUSH2 0x504 JUMPI DUP5 PUSH2 0x462 JUMPI DUP2 CALLVALUE SUB PUSH2 0x429 JUMPI DUP6 DUP1 DUP4 DUP1 ISZERO PUSH2 0x41F JUMPI JUMPDEST DUP3 DUP1 SWAP3 SWAP2 DUP2 SWAP3 ADDRESS SWAP1 CALL ISZERO PUSH2 0x416 JUMPI JUMPDEST DUP4 DUP7 MSTORE PUSH1 0x3 DUP4 MSTORE DUP1 DUP7 KECCAK256 DUP6 DUP8 MSTORE DUP4 MSTORE DUP1 DUP7 KECCAK256 DUP1 SLOAD SWAP1 DUP4 DUP3 ADD DUP1 SWAP3 GT PUSH2 0x403 JUMPI PUSH32 0x9D952B9056B1AD31790D622A7F5ECF49004B370B41ADD0E429AC1E9F4B8A3335 SWAP6 SWAP7 SWAP8 SWAP9 POP SSTORE MLOAD SWAP1 DUP2 MSTORE LOG3 PUSH1 0x1 DUP1 SSTORE DUP1 RETURN JUMPDEST PUSH4 0x4E487B71 PUSH1 0xE0 SHL DUP9 MSTORE PUSH1 0x11 DUP10 MSTORE PUSH1 0x24 DUP9 REVERT JUMPDEST MLOAD RETURNDATASIZE DUP7 DUP3 RETURNDATACOPY RETURNDATASIZE SWAP1 REVERT JUMPDEST PUSH2 0x8FC SWAP2 POP PUSH2 0x3A2 JUMP JUMPDEST MLOAD PUSH3 0x461BCD PUSH1 0xE5 SHL DUP2 MSTORE DUP1 DUP8 ADD DUP4 SWAP1 MSTORE PUSH1 0x14 PUSH1 0x24 DUP3 ADD MSTORE PUSH20 0x125B98DBDC9C9958DD0811551208185B5BDD5B9D PUSH1 0x62 SHL PUSH1 0x44 DUP3 ADD MSTORE PUSH1 0x64 SWAP1 REVERT JUMPDEST DUP1 MLOAD PUSH4 0x23B872DD PUSH1 0xE0 SHL DUP2 MSTORE DUP5 DUP9 DUP3 ADD MSTORE ADDRESS PUSH1 0x24 DUP3 ADD MSTORE DUP3 PUSH1 0x44 DUP3 ADD MSTORE DUP4 DUP2 PUSH1 0x64 DUP2 DUP11 DUP11 GAS CALL SWAP1 DUP2 ISZERO PUSH2 0x4FA JUMPI DUP8 SWAP2 PUSH2 0x4DD JUMPI JUMPDEST POP PUSH2 0x3B1 JUMPI MLOAD PUSH3 0x461BCD PUSH1 0xE5 SHL DUP2 MSTORE DUP1 DUP8 ADD DUP4 SWAP1 MSTORE PUSH1 0x1A PUSH1 0x24 DUP3 ADD MSTORE PUSH32 0x436F6C6C61746572616C207472616E73666572206661696C6564000000000000 PUSH1 0x44 DUP3 ADD MSTORE PUSH1 0x64 SWAP1 REVERT JUMPDEST PUSH2 0x4F4 SWAP2 POP DUP5 RETURNDATASIZE DUP7 GT PUSH2 0x26C JUMPI PUSH2 0x25E DUP2 DUP4 PUSH2 0x9C9 JUMP JUMPDEST CODESIZE PUSH2 0x496 JUMP JUMPDEST DUP3 MLOAD RETURNDATASIZE DUP10 DUP3 RETURNDATACOPY RETURNDATASIZE SWAP1 REVERT JUMPDEST MLOAD PUSH3 0x461BCD PUSH1 0xE5 SHL DUP2 MSTORE DUP1 DUP8 ADD DUP4 SWAP1 MSTORE PUSH1 0x1C PUSH1 0x24 DUP3 ADD MSTORE PUSH32 0x43616E206F6E6C79206C6F636B206F776E20636F6C6C61746572616C00000000 PUSH1 0x44 DUP3 ADD MSTORE PUSH1 0x64 SWAP1 REVERT JUMPDEST DUP5 MLOAD PUSH3 0x461BCD PUSH1 0xE5 SHL DUP2 MSTORE DUP1 DUP10 ADD DUP6 SWAP1 MSTORE PUSH1 0x17 PUSH1 0x24 DUP3 ADD MSTORE PUSH32 0x556E61636365707461626C6520636F6C6C61746572616C000000000000000000 PUSH1 0x44 DUP3 ADD MSTORE PUSH1 0x64 SWAP1 REVERT JUMPDEST POP POP CALLVALUE PUSH2 0x5B1 JUMPI DUP2 PUSH1 0x3 NOT CALLDATASIZE ADD SLT PUSH2 0x5B1 JUMPI SWAP1 SLOAD SWAP1 MLOAD PUSH1 0x1 PUSH1 0x1 PUSH1 0xA0 SHL SUB SWAP1 SWAP2 AND DUP2 MSTORE PUSH1 0x20 SWAP1 RETURN JUMPDEST POP DUP1 REVERT JUMPDEST POP POP CALLVALUE PUSH2 0x5B1 JUMPI DUP2 PUSH1 0x3 NOT CALLDATASIZE ADD SLT PUSH2 0x5B1 JUMPI PUSH1 0x20 PUSH32 0x62E78CEA01BEE320CD4E420270B5EA74000D11B0C9F74754EBDBFC544B05A258 SWAP2 PUSH2 0x5F3 PUSH2 0x99D JUMP JUMPDEST PUSH2 0x5FB PUSH2 0xA19 JUMP JUMPDEST PUSH1 0x1 PUSH1 0xFF NOT PUSH1 0x2 SLOAD AND OR PUSH1 0x2 SSTORE MLOAD CALLER DUP2 MSTORE LOG1 DUP1 RETURN JUMPDEST DUP4 CALLVALUE PUSH2 0x66A JUMPI DUP1 PUSH1 0x3 NOT CALLDATASIZE ADD SLT PUSH2 0x66A JUMPI PUSH2 0x629 PUSH2 0x99D JUMP JUMPDEST DUP1 SLOAD PUSH1 0x1 PUSH1 0x1 PUSH1 0xA0 SHL SUB NOT DUP2 AND DUP3 SSTORE DUP2 SWAP1 PUSH1 0x1 PUSH1 0x1 PUSH1 0xA0 SHL SUB AND PUSH32 0x8BE0079C531659141344CD1FD0A4F28419497F9722A3DAAFE3B4186F6B6457E0 DUP3 DUP1 LOG3 DUP1 RETURN JUMPDEST DUP1 REVERT JUMPDEST POP POP CALLVALUE PUSH2 0x5B1 JUMPI DUP2 PUSH1 0x3 NOT CALLDATASIZE ADD SLT PUSH2 0x5B1 JUMPI PUSH1 0x20 SWAP1 PUSH1 0xFF PUSH1 0x2 SLOAD AND SWAP1 MLOAD SWAP1 ISZERO ISZERO DUP2 MSTORE RETURN JUMPDEST POP POP CALLVALUE PUSH2 0x5B1 JUMPI DUP1 PUSH1 0x3 NOT CALLDATASIZE ADD SLT PUSH2 0x5B1 JUMPI DUP1 PUSH1 0x20 SWAP3 PUSH2 0x6AF PUSH2 0x937 JUMP JUMPDEST PUSH2 0x6B7 PUSH2 0x952 JUMP JUMPDEST PUSH1 0x1 PUSH1 0x1 PUSH1 0xA0 SHL SUB SWAP2 DUP3 AND DUP4 MSTORE PUSH1 0x3 DUP7 MSTORE DUP4 DUP4 KECCAK256 SWAP2 AND DUP3 MSTORE DUP5 MSTORE KECCAK256 SLOAD SWAP1 MLOAD SWAP1 DUP2 MSTORE RETURN JUMPDEST POP CALLVALUE PUSH2 0x27D JUMPI DUP3 PUSH1 0x3 NOT CALLDATASIZE ADD SLT PUSH2 0x27D JUMPI PUSH2 0x6F3 PUSH2 0x99D JUMP JUMPDEST PUSH1 0x2 SLOAD SWAP1 PUSH1 0xFF DUP3 AND ISZERO PUSH2 0x735 JUMPI POP PUSH1 0xFF NOT AND PUSH1 0x2 SSTORE MLOAD CALLER DUP2 MSTORE PUSH32 0x5DB9EE0A495BF2E6FF9C91A7834C1BA4FDD244A5E8AA4E537BD38AEAE4B073AA SWAP1 PUSH1 0x20 SWAP1 LOG1 DUP1 RETURN JUMPDEST DUP3 MLOAD PUSH4 0x8DFC202B PUSH1 0xE0 SHL DUP2 MSTORE REVERT JUMPDEST POP SWAP1 CALLVALUE PUSH2 0x27D JUMPI DUP1 PUSH1 0x3 NOT CALLDATASIZE ADD SLT PUSH2 0x27D JUMPI PUSH2 0x75D PUSH2 0x937 JUMP JUMPDEST SWAP2 PUSH1 0x24 CALLDATALOAD SWAP3 DUP4 ISZERO ISZERO DUP1 SWAP5 SUB PUSH2 0x793 JUMPI PUSH2 0x774 PUSH2 0x99D JUMP JUMPDEST PUSH1 0x1 DUP1 PUSH1 0xA0 SHL SUB AND DUP5 MSTORE PUSH1 0x20 MSTORE DUP3 KECCAK256 SWAP1 PUSH1 0xFF DUP1 NOT DUP4 SLOAD AND SWAP2 AND OR SWAP1 SSTORE DUP1 RETURN JUMPDEST DUP5 DUP1 REVERT JUMPDEST POP CALLVALUE PUSH2 0x27D JUMPI PUSH2 0x7A6 CALLDATASIZE PUSH2 0x968 JUMP JUMPDEST PUSH2 0x7B1 SWAP4 SWAP2 SWAP4 PUSH2 0xA19 JUMP JUMPDEST PUSH2 0x7B9 PUSH2 0xA37 JUMP JUMPDEST DUP6 PUSH1 0x1 DUP1 PUSH1 0xA0 SHL SUB DUP1 SWAP5 AND SWAP4 DUP5 DUP3 MSTORE PUSH1 0x20 SWAP4 PUSH1 0x3 DUP6 MSTORE DUP2 DUP9 DUP5 KECCAK256 SWAP8 AND SWAP7 DUP8 DUP5 MSTORE DUP6 MSTORE PUSH2 0x7EA DUP5 DUP10 DUP6 KECCAK256 SLOAD LT ISZERO PUSH2 0xA5A JUMP JUMPDEST DUP6 DUP4 MSTORE PUSH1 0x3 DUP6 MSTORE DUP8 DUP4 KECCAK256 DUP8 DUP5 MSTORE DUP6 MSTORE DUP8 DUP4 KECCAK256 PUSH2 0x807 DUP6 DUP3 SLOAD PUSH2 0xAA6 JUMP JUMPDEST SWAP1 SSTORE DUP7 PUSH2 0x85E JUMPI POP DUP2 DUP1 DUP5 DUP2 SWAP4 DUP3 SLOAD AND DUP3 DUP3 ISZERO PUSH2 0x855 JUMPI JUMPDEST CALL ISZERO PUSH2 0x179 JUMPI PUSH32 0xA921F03EC5892BC5A2DB676D49B6D93E3F24C3C63F070CC5B139A317F976A205 SWAP3 SWAP4 SWAP5 MLOAD SWAP1 DUP2 MSTORE LOG3 PUSH1 0x1 DUP1 SSTORE DUP1 RETURN JUMPDEST POP PUSH2 0x8FC PUSH2 0x81F JUMP JUMPDEST SWAP2 SLOAD DUP8 MLOAD PUSH4 0xA9059CBB PUSH1 0xE0 SHL DUP2 MSTORE SWAP2 AND PUSH1 0x1 PUSH1 0x1 PUSH1 0xA0 SHL SUB AND DUP2 DUP4 ADD SWAP1 DUP2 MSTORE PUSH1 0x20 DUP2 ADD DUP5 SWAP1 MSTORE SWAP6 SWAP7 SWAP5 SWAP6 SWAP4 SWAP5 SWAP3 SWAP4 DUP6 SWAP1 DUP3 SWAP1 DUP2 SWAP1 PUSH1 0x40 ADD SUB DUP2 DUP12 DUP12 GAS CALL SWAP1 DUP2 ISZERO PUSH2 0x273 JUMPI DUP9 SWAP2 PUSH2 0x91A JUMPI JUMPDEST POP ISZERO PUSH2 0x8D9 JUMPI POP SWAP1 PUSH32 0xA921F03EC5892BC5A2DB676D49B6D93E3F24C3C63F070CC5B139A317F976A205 SWAP3 SWAP2 PUSH2 0x16D JUMP JUMPDEST DUP4 PUSH1 0x64 SWAP3 MLOAD SWAP2 PUSH3 0x461BCD PUSH1 0xE5 SHL DUP4 MSTORE DUP3 ADD MSTORE PUSH1 0x1D PUSH1 0x24 DUP3 ADD MSTORE PUSH32 0x436F6C6C61746572616C206C69717569646174696F6E206661696C6564000000 PUSH1 0x44 DUP3 ADD MSTORE REVERT JUMPDEST PUSH2 0x931 SWAP2 POP DUP6 RETURNDATASIZE DUP8 GT PUSH2 0x26C JUMPI PUSH2 0x25E DUP2 DUP4 PUSH2 0x9C9 JUMP JUMPDEST CODESIZE PUSH2 0x8A9 JUMP JUMPDEST PUSH1 0x4 CALLDATALOAD SWAP1 PUSH1 0x1 PUSH1 0x1 PUSH1 0xA0 SHL SUB DUP3 AND DUP3 SUB PUSH2 0x94D JUMPI JUMP JUMPDEST PUSH1 0x0 DUP1 REVERT JUMPDEST PUSH1 0x24 CALLDATALOAD SWAP1 PUSH1 0x1 PUSH1 0x1 PUSH1 0xA0 SHL SUB DUP3 AND DUP3 SUB PUSH2 0x94D JUMPI JUMP JUMPDEST PUSH1 0x60 SWAP1 PUSH1 0x3 NOT ADD SLT PUSH2 0x94D JUMPI PUSH1 0x1 PUSH1 0x1 PUSH1 0xA0 SHL SUB SWAP1 PUSH1 0x4 CALLDATALOAD DUP3 DUP2 AND DUP2 SUB PUSH2 0x94D JUMPI SWAP2 PUSH1 0x24 CALLDATALOAD SWAP1 DUP2 AND DUP2 SUB PUSH2 0x94D JUMPI SWAP1 PUSH1 0x44 CALLDATALOAD SWAP1 JUMP JUMPDEST PUSH1 0x0 SLOAD PUSH1 0x1 PUSH1 0x1 PUSH1 0xA0 SHL SUB AND CALLER SUB PUSH2 0x9B1 JUMPI JUMP JUMPDEST PUSH1 0x40 MLOAD PUSH4 0x118CDAA7 PUSH1 0xE0 SHL DUP2 MSTORE CALLER PUSH1 0x4 DUP3 ADD MSTORE PUSH1 0x24 SWAP1 REVERT JUMPDEST SWAP1 PUSH1 0x1F DUP1 NOT SWAP2 ADD AND DUP2 ADD SWAP1 DUP2 LT PUSH8 0xFFFFFFFFFFFFFFFF DUP3 GT OR PUSH2 0x9EB JUMPI PUSH1 0x40 MSTORE JUMP JUMPDEST PUSH4 0x4E487B71 PUSH1 0xE0 SHL PUSH1 0x0 MSTORE PUSH1 0x41 PUSH1 0x4 MSTORE PUSH1 0x24 PUSH1 0x0 REVERT JUMPDEST SWAP1 DUP2 PUSH1 0x20 SWAP2 SUB SLT PUSH2 0x94D JUMPI MLOAD DUP1 ISZERO ISZERO DUP2 SUB PUSH2 0x94D JUMPI SWAP1 JUMP JUMPDEST PUSH1 0xFF PUSH1 0x2 SLOAD AND PUSH2 0xA25 JUMPI JUMP JUMPDEST PUSH1 0x40 MLOAD PUSH4 0xD93C0665 PUSH1 0xE0 SHL DUP2 MSTORE PUSH1 0x4 SWAP1 REVERT JUMPDEST PUSH1 0x2 PUSH1 0x1 SLOAD EQ PUSH2 0xA48 JUMPI PUSH1 0x2 PUSH1 0x1 SSTORE JUMP JUMPDEST PUSH1 0x40 MLOAD PUSH4 0x3EE5AEB5 PUSH1 0xE0 SHL DUP2 MSTORE PUSH1 0x4 SWAP1 REVERT JUMPDEST ISZERO PUSH2 0xA61 JUMPI JUMP JUMPDEST PUSH1 0x40 MLOAD PUSH3 0x461BCD PUSH1 0xE5 SHL DUP2 MSTORE PUSH1 0x20 PUSH1 0x4 DUP3 ADD MSTORE PUSH1 0x1E PUSH1 0x24 DUP3 ADD MSTORE PUSH32 0x496E73756666696369656E74206C6F636B656420636F6C6C61746572616C0000 PUSH1 0x44 DUP3 ADD MSTORE PUSH1 0x64 SWAP1 REVERT JUMPDEST SWAP2 SWAP1 DUP3 SUB SWAP2 DUP3 GT PUSH2 0xAB3 JUMPI JUMP JUMPDEST PUSH4 0x4E487B71 PUSH1 0xE0 SHL PUSH1 0x0 MSTORE PUSH1 0x11 PUSH1 0x4 MSTORE PUSH1 0x24 PUSH1 0x0 REVERT INVALID LOG2 PUSH5 0x6970667358 0x22 SLT KECCAK256 0xC7 COINBASE 0xBD NUMBER 0x4F TIMESTAMP EQ PUSH19 0xB0D65BFBB28C8920ED0D4EA71A6A77927C29F2 GASPRICE 0xE8 0xD2 PUSH6 0x5E64736F6C63 NUMBER STOP ADDMOD EQ STOP CALLER "},"methodIdentifiers":{"acceptableCollaterals(address)":"fa3ba35c","getLockedCollateral(address,address)":"40f895ea","isAcceptableCollateral(address)":"b8aea312","liquidateCollateral(address,address,uint256)":"00953724","lockCollateral(address,address,uint256)":"ee826161","lockedCollateral(address,address)":"044727be","owner()":"8da5cb5b","pause()":"8456cb59","paused()":"5c975abb","releaseCollateral(address,address,uint256)":"fbd24bbb","renounceOwnership()":"715018a6","setAcceptableCollateral(address,bool)":"27a73789","transferOwnership(address)":"f2fde38b","unpause()":"3f4ba83a"}}}}}