{"contracts/TrustScore.sol":{"TrustScore":{"abi":[{"inputs":[{"internalType":"address","name":"initialOwner","type":"address"}],"stateMutability":"nonpayable","type":"constructor"},{"inputs":[{"internalType":"address","name":"owner","type":"address"}],"name":"OwnableInvalidOwner","type":"error"},{"inputs":[{"internalType":"address","name":"account","type":"address"}],"name":"OwnableUnauthorizedAccount","type":"error"},{"inputs":[],"name":"ReentrancyGuardReentrantCall","type":"error"},{"anonymous":false,"inputs":[{"indexed":true,"internalType":"address","name":"previousOwner","type":"address"},{"indexed":true,"internalType":"address","name":"newOwner","type":"address"}],"name":"OwnershipTransferred","type":"event"},{"anonymous":false,"inputs":[{"indexed":true,"internalType":"address","name":"user","type":"address"},{"indexed":false,"internalType":"uint256","name":"newScore","type":"uint256"},{"indexed":false,"internalType":"uint256","name":"creditHistory","type":"uint256"},{"indexed":false,"internalType":"uint256","name":"repaymentRecord","type":"uint256"},{"indexed":false,"internalType":"uint256","name":"collateralValue","type":"uint256"}],"name":"TrustScoreUpdated","type":"event"},{"inputs":[],"name":"BASE_SCORE","outputs":[{"internalType":"uint256","name":"","type":"uint256"}],"stateMutability":"view","type":"function"},{"inputs":[],"name":"MAX_CREDIT_HISTORY","outputs":[{"internalType":"uint256","name":"","type":"uint256"}],"stateMutability":"view","type":"function"},{"inputs":[],"name":"MAX_REPAYMENT_RECORD","outputs":[{"internalType":"uint256","name":"","type":"uint256"}],"stateMutability":"view","type":"function"},{"inputs":[],"name":"MAX_TRUST_SCORE","outputs":[{"internalType":"uint256","name":"","type":"uint256"}],"stateMutability":"view","type":"function"},{"inputs":[{"internalType":"address","name":"user","type":"address"}],"name":"getTrustScore","outputs":[{"internalType":"uint256","name":"","type":"uint256"}],"stateMutability":"view","type":"function"},{"inputs":[{"internalType":"address","name":"user","type":"address"}],"name":"getTrustScoreData","outputs":[{"internalType":"uint256","name":"score","type":"uint256"},{"internalType":"uint256","name":"creditHistory","type":"uint256"},{"internalType":"uint256","name":"repaymentRecord","type":"uint256"},{"internalType":"uint256","name":"collateralValue","type":"uint256"},{"internalType":"uint256","name":"lastUpdated","type":"uint256"}],"stateMutability":"view","type":"function"},{"inputs":[{"internalType":"address","name":"","type":"address"},{"internalType":"uint256","name":"","type":"uint256"}],"name":"loanHistory","outputs":[{"internalType":"uint256","name":"","type":"uint256"}],"stateMutability":"view","type":"function"},{"inputs":[],"name":"owner","outputs":[{"internalType":"address","name":"","type":"address"}],"stateMutability":"view","type":"function"},{"inputs":[{"internalType":"address","name":"user","type":"address"},{"internalType":"bool","name":"repaidOnTime","type":"bool"},{"internalType":"bool","name":"fullyRepaid","type":"bool"}],"name":"recordLoanCompletion","outputs":[],"stateMutability":"nonpayable","type":"function"},{"inputs":[{"internalType":"address","name":"user","type":"address"}],"name":"recordLoanDefault","outputs":[],"stateMutability":"nonpayable","type":"function"},{"inputs":[],"name":"renounceOwnership","outputs":[],"stateMutability":"nonpayable","type":"function"},{"inputs":[{"internalType":"address","name":"newOwner","type":"address"}],"name":"transferOwnership","outputs":[],"stateMutability":"nonpayable","type":"function"},{"inputs":[{"internalType":"address","name":"","type":"address"}],"name":"trustScores","outputs":[{"internalType":"uint256","name":"score","type":"uint256"},{"internalType":"uint256","name":"creditHistory","type":"uint256"},{"internalType":"uint256","name":"repaymentRecord","type":"uint256"},{"internalType":"uint256","name":"collateralValue","type":"uint256"},{"internalType":"uint256","name":"lastUpdated","type":"uint256"}],"stateMutability":"view","type":"function"},{"inputs":[{"internalType":"address","name":"user","type":"address"},{"internalType":"uint256","name":"creditHistoryPoints","type":"uint256"},{"internalType":"uint256","name":"repaymentPoints","type":"uint256"},{"internalType":"uint256","name":"collateralValuePoints","type":"uint256"}],"name":"updateTrustScore","outputs":[],"stateMutability":"nonpayable","type":"function"}],"evm":{"bytecode":{"linkReferences":{},"object":"6080346100bf57601f6109bf38819003918201601f19168301916001600160401b038311848410176100c4578084926020946040528339810103126100bf57516001600160a01b0390818116908190036100bf5780156100a657600080546001600160a01b03198116831782556040519316907f8be0079c531659141344cd1fd0a4f28419497f9722a3daafe3b4186f6b6457e09080a3600180556108e490816100db8239f35b604051631e4fbdf760e01b815260006004820152602490fd5b600080fd5b634e487b7160e01b600052604160045260246000fdfe6080604081815260048036101561001557600080fd5b600092833560e01c9081630de4f25c146106c35750806312df0fc41461052b5780631aeb105f146106be5780632822cc8e146106be578063417914d5146105a35780635724f4ae1461052b5780635e09eea1146104f3578063715018a61461049657806374c8d377146104795780637effe5681461045c5780638da5cb5b146104345780639268ffe814610313578063a9b427c9146101465763f2fde38b146100bd57600080fd5b34610142576020366003190112610142576100d661070c565b906100df610743565b6001600160a01b0391821692831561012c57505082546001600160a01b0319811683178455167f8be0079c531659141344cd1fd0a4f28419497f9722a3daafe3b4186f6b6457e08380a380f35b51631e4fbdf760e01b8152908101849052602490fd5b8280fd5b5091903461030f57606036600319011261030f5761016261070c565b9060243591821515830361030b57604435801515810361030757610184610743565b61018c6107f5565b610199575b836001805580f35b60018060a01b031691828452600260205281842091858301918254156102fa575b1561028f576001830180546005810180911161027657606481111561028957506064905b55600283018054600a810180911161027657959650939460008051602061088f833981519152946102649291606481111561027057506064905b555b61022b61022685610792565b610818565b92838555429055600184015493600360028201549101549151948594859094939260609260808301968352602083015260408201520152565b0390a280388080610191565b90610218565b634e487b7160e01b875260118852602487fd5b906101de565b600183018054600281018091116102765760648111156102f457506064905b556002830180546005810180911161027657959650939460008051602061088f83398151915294610264929160648111156102ee57506064905b5561021a565b906102e8565b906102ae565b6101f484554283556101ba565b8480fd5b8380fd5b5080fd5b5091903461030f57602036600319011261030f5761032f61070c565b610337610743565b61033f6107f5565b60018060a01b0316908183526002602052808320906002820191600a8354101560001461042c57825460091981019081116104195783555b6001810180546005116103f7578054600419810190811161027657916003826103ed9460008051602061088f83398151915298999a9694555b6103bc61022684610792565b9586845542908401555495549101549151948594859094939260609260808301968352602083015260408201520152565b0390a26001805580f35b916103ed916003848860008051602061088f83398151915298999a96556103b0565b634e487b7160e01b865260118752602486fd5b848355610377565b50503461030f578160031936011261030f57905490516001600160a01b039091168152602090f35b50503461030f578160031936011261030f57602090516101f48152f35b50503461030f578160031936011261030f57602090516103e88152f35b83346104f057806003193601126104f0576104af610743565b80546001600160a01b03198116825581906001600160a01b03167f8be0079c531659141344cd1fd0a4f28419497f9722a3daafe3b4186f6b6457e08280a380f35b80fd5b50503461030f57602036600319011261030f5760209181906001600160a01b0361051b61070c565b1681526002845220549051908152f35b5091346104f05760203660031901126104f05761059f9082906001600160a01b0361055461070c565b1681526002602052209182549260018101549460028201549060038301549201549251958695869192608093969594919660a084019784526020840152604083015260608201520152565b0390f35b50346101425760803660031901126101425760008051602061088f833981519152906105cd61070c565b926103ed6024359160443595606435906105e5610743565b6105ed6107f5565b60018060a01b0316968789526002602052828920958601948554156106b1575b8061067b575b5080610645575b508061062e575b5061022b61022685610792565b61063d6003860191825461076f565b905538610621565b60028601908154906064610659828461076f565b111561066c5750506064905b553861061a565b6106759161076f565b90610665565b6001870190815490606461068f828461076f565b11156106a25750506064905b5538610613565b6106ab9161076f565b9061069b565b6101f4875542865561060d565b610727565b849084346101425780600319360112610142576106de61070c565b6001600160a01b03168352600360205282208054602435919082101561030b57835260209283902001548152f35b600435906001600160a01b038216820361072257565b600080fd5b3461072257600036600319011261072257602060405160648152f35b6000546001600160a01b0316330361075757565b60405163118cdaa760e01b8152336004820152602490fd5b9190820180921161077c57565b634e487b7160e01b600052601160045260246000fd5b9060405160a0810181811067ffffffffffffffff8211176107df57604052608060048294805484526001810154602085015260028101546040850152600381015460608501520154910152565b634e487b7160e01b600052604160045260246000fd5b600260015414610806576002600155565b604051633ee5aeb560e01b8152600490fd5b60208101519060038202918083046003149015171561077c576101f491820180921161077c576040810151918260011b928084046002149015171561077c57606061086f61087994670de0b6b3a76400009361076f565b920151049061076f565b6103e89081811115610889575090565b90509056fe7d8d89116e982d341b4884970594df5c66bfb5d4e82b7e703df4303e4b3e0135a2646970667358221220bb384f265b3ffde7b5e3b44a5bea93a06d87b59f4d8bc838ed899db165fc21a464736f6c63430008140033","opcodes":"PUSH1 0x80 CALLVALUE PUSH2 0xBF JUMPI PUSH1 0x1F PUSH2 0x9BF CODESIZE DUP2 SWAP1 SUB SWAP2 DUP3 ADD PUSH1 0x1F NOT AND DUP4 ADD SWAP2 PUSH1 0x1 PUSH1 0x1 PUSH1 0x40 SHL SUB DUP4 GT DUP5 DUP5 LT OR PUSH2 0xC4 JUMPI DUP1 DUP5 SWAP3 PUSH1 0x20 SWAP5 PUSH1 0x40 MSTORE DUP4 CODECOPY DUP2 ADD SUB SLT PUSH2 0xBF JUMPI MLOAD PUSH1 0x1 PUSH1 0x1 PUSH1 0xA0 SHL SUB SWAP1 DUP2 DUP2 AND SWAP1 DUP2 SWAP1 SUB PUSH2 0xBF JUMPI DUP1 ISZERO PUSH2 0xA6 JUMPI PUSH1 0x0 DUP1 SLOAD PUSH1 0x1 PUSH1 0x1 PUSH1 0xA0 SHL SUB NOT DUP2 AND DUP4 OR DUP3 SSTORE PUSH1 0x40 MLOAD SWAP4 AND SWAP1 PUSH32 0x8BE0079C531659141344CD1FD0A4F28419497F9722A3DAAFE3B4186F6B6457E0 SWAP1 DUP1 LOG3 PUSH1 0x1 DUP1 SSTORE PUSH2 0x8E4 SWAP1 DUP2 PUSH2 0xDB DUP3 CODECOPY RETURN JUMPDEST PUSH1 0x40 MLOAD PUSH4 0x1E4FBDF7 PUSH1 0xE0 SHL DUP2 MSTORE PUSH1 0x0 PUSH1 0x4 DUP3 ADD MSTORE PUSH1 0x24 SWAP1 REVERT JUMPDEST PUSH1 0x0 DUP1 REVERT JUMPDEST PUSH4 0x4E487B71 PUSH1 0xE0 SHL PUSH1 0x0 MSTORE PUSH1 0x41 PUSH1 0x4 MSTORE PUSH1 0x24 PUSH1 0x0 REVERT INVALID PUSH1 0x80 PUSH1 0x40 DUP2 DUP2 MSTORE PUSH1 0x4 DUP1 CALLDATASIZE LT ISZERO PUSH2 0x15 JUMPI PUSH1 0x0 DUP1 REVERT JUMPDEST PUSH1 0x0 SWAP3 DUP4 CALLDATALOAD PUSH1 0xE0 SHR SWAP1 DUP2 PUSH4 0xDE4F25C EQ PUSH2 0x6C3 JUMPI POP DUP1 PUSH4 0x12DF0FC4 EQ PUSH2 0x52B JUMPI DUP1 PUSH4 0x1AEB105F EQ PUSH2 0x6BE JUMPI DUP1 PUSH4 0x2822CC8E EQ PUSH2 0x6BE JUMPI DUP1 PUSH4 0x417914D5 EQ PUSH2 0x5A3 JUMPI DUP1 PUSH4 0x5724F4AE EQ PUSH2 0x52B JUMPI DUP1 PUSH4 0x5E09EEA1 EQ PUSH2 0x4F3 JUMPI DUP1 PUSH4 0x715018A6 EQ PUSH2 0x496 JUMPI DUP1 PUSH4 0x74C8D377 EQ PUSH2 0x479 JUMPI DUP1 PUSH4 0x7EFFE568 EQ PUSH2 0x45C JUMPI DUP1 PUSH4 0x8DA5CB5B EQ PUSH2 0x434 JUMPI DUP1 PUSH4 0x9268FFE8 EQ PUSH2 0x313 JUMPI DUP1 PUSH4 0xA9B427C9 EQ PUSH2 0x146 JUMPI PUSH4 0xF2FDE38B EQ PUSH2 0xBD JUMPI PUSH1 0x0 DUP1 REVERT JUMPDEST CALLVALUE PUSH2 0x142 JUMPI PUSH1 0x20 CALLDATASIZE PUSH1 0x3 NOT ADD SLT PUSH2 0x142 JUMPI PUSH2 0xD6 PUSH2 0x70C JUMP JUMPDEST SWAP1 PUSH2 0xDF PUSH2 0x743 JUMP JUMPDEST PUSH1 0x1 PUSH1 0x1 PUSH1 0xA0 SHL SUB SWAP2 DUP3 AND SWAP3 DUP4 ISZERO PUSH2 0x12C JUMPI POP POP DUP3 SLOAD PUSH1 0x1 PUSH1 0x1 PUSH1 0xA0 SHL SUB NOT DUP2 AND DUP4 OR DUP5 SSTORE AND PUSH32 0x8BE0079C531659141344CD1FD0A4F28419497F9722A3DAAFE3B4186F6B6457E0 DUP4 DUP1 LOG3 DUP1 RETURN JUMPDEST MLOAD PUSH4 0x1E4FBDF7 PUSH1 0xE0 SHL DUP2 MSTORE SWAP1 DUP2 ADD DUP5 SWAP1 MSTORE PUSH1 0x24 SWAP1 REVERT JUMPDEST DUP3 DUP1 REVERT JUMPDEST POP SWAP2 SWAP1 CALLVALUE PUSH2 0x30F JUMPI PUSH1 0x60 CALLDATASIZE PUSH1 0x3 NOT ADD SLT PUSH2 0x30F JUMPI PUSH2 0x162 PUSH2 0x70C JUMP JUMPDEST SWAP1 PUSH1 0x24 CALLDATALOAD SWAP2 DUP3 ISZERO ISZERO DUP4 SUB PUSH2 0x30B JUMPI PUSH1 0x44 CALLDATALOAD DUP1 ISZERO ISZERO DUP2 SUB PUSH2 0x307 JUMPI PUSH2 0x184 PUSH2 0x743 JUMP JUMPDEST PUSH2 0x18C PUSH2 0x7F5 JUMP JUMPDEST PUSH2 0x199 JUMPI JUMPDEST DUP4 PUSH1 0x1 DUP1 SSTORE DUP1 RETURN JUMPDEST PUSH1 0x1 DUP1 PUSH1 0xA0 SHL SUB AND SWAP2 DUP3 DUP5 MSTORE PUSH1 0x2 PUSH1 0x20 MSTORE DUP2 DUP5 KECCAK256 SWAP2 DUP6 DUP4 ADD SWAP2 DUP3 SLOAD ISZERO PUSH2 0x2FA JUMPI JUMPDEST ISZERO PUSH2 0x28F JUMPI PUSH1 0x1 DUP4 ADD DUP1 SLOAD PUSH1 0x5 DUP2 ADD DUP1 SWAP2 GT PUSH2 0x276 JUMPI PUSH1 0x64 DUP2 GT ISZERO PUSH2 0x289 JUMPI POP PUSH1 0x64 SWAP1 JUMPDEST SSTORE PUSH1 0x2 DUP4 ADD DUP1 SLOAD PUSH1 0xA DUP2 ADD DUP1 SWAP2 GT PUSH2 0x276 JUMPI SWAP6 SWAP7 POP SWAP4 SWAP5 PUSH1 0x0 DUP1 MLOAD PUSH1 0x20 PUSH2 0x88F DUP4 CODECOPY DUP2 MLOAD SWAP2 MSTORE SWAP5 PUSH2 0x264 SWAP3 SWAP2 PUSH1 0x64 DUP2 GT ISZERO PUSH2 0x270 JUMPI POP PUSH1 0x64 SWAP1 JUMPDEST SSTORE JUMPDEST PUSH2 0x22B PUSH2 0x226 DUP6 PUSH2 0x792 JUMP JUMPDEST PUSH2 0x818 JUMP JUMPDEST SWAP3 DUP4 DUP6 SSTORE TIMESTAMP SWAP1 SSTORE PUSH1 0x1 DUP5 ADD SLOAD SWAP4 PUSH1 0x3 PUSH1 0x2 DUP3 ADD SLOAD SWAP2 ADD SLOAD SWAP2 MLOAD SWAP5 DUP6 SWAP5 DUP6 SWAP1 SWAP5 SWAP4 SWAP3 PUSH1 0x60 SWAP3 PUSH1 0x80 DUP4 ADD SWAP7 DUP4 MSTORE PUSH1 0x20 DUP4 ADD MSTORE PUSH1 0x40 DUP3 ADD MSTORE ADD MSTORE JUMP JUMPDEST SUB SWAP1 LOG2 DUP1 CODESIZE DUP1 DUP1 PUSH2 0x191 JUMP JUMPDEST SWAP1 PUSH2 0x218 JUMP JUMPDEST PUSH4 0x4E487B71 PUSH1 0xE0 SHL DUP8 MSTORE PUSH1 0x11 DUP9 MSTORE PUSH1 0x24 DUP8 REVERT JUMPDEST SWAP1 PUSH2 0x1DE JUMP JUMPDEST PUSH1 0x1 DUP4 ADD DUP1 SLOAD PUSH1 0x2 DUP2 ADD DUP1 SWAP2 GT PUSH2 0x276 JUMPI PUSH1 0x64 DUP2 GT ISZERO PUSH2 0x2F4 JUMPI POP PUSH1 0x64 SWAP1 JUMPDEST SSTORE PUSH1 0x2 DUP4 ADD DUP1 SLOAD PUSH1 0x5 DUP2 ADD DUP1 SWAP2 GT PUSH2 0x276 JUMPI SWAP6 SWAP7 POP SWAP4 SWAP5 PUSH1 0x0 DUP1 MLOAD PUSH1 0x20 PUSH2 0x88F DUP4 CODECOPY DUP2 MLOAD SWAP2 MSTORE SWAP5 PUSH2 0x264 SWAP3 SWAP2 PUSH1 0x64 DUP2 GT ISZERO PUSH2 0x2EE JUMPI POP PUSH1 0x64 SWAP1 JUMPDEST SSTORE PUSH2 0x21A JUMP JUMPDEST SWAP1 PUSH2 0x2E8 JUMP JUMPDEST SWAP1 PUSH2 0x2AE JUMP JUMPDEST PUSH2 0x1F4 DUP5 SSTORE TIMESTAMP DUP4 SSTORE PUSH2 0x1BA JUMP JUMPDEST DUP5 DUP1 REVERT JUMPDEST DUP4 DUP1 REVERT JUMPDEST POP DUP1 REVERT JUMPDEST POP SWAP2 SWAP1 CALLVALUE PUSH2 0x30F JUMPI PUSH1 0x20 CALLDATASIZE PUSH1 0x3 NOT ADD SLT PUSH2 0x30F JUMPI PUSH2 0x32F PUSH2 0x70C JUMP JUMPDEST PUSH2 0x337 PUSH2 0x743 JUMP JUMPDEST PUSH2 0x33F PUSH2 0x7F5 JUMP JUMPDEST PUSH1 0x1 DUP1 PUSH1 0xA0 SHL SUB AND SWAP1 DUP2 DUP4 MSTORE PUSH1 0x2 PUSH1 0x20 MSTORE DUP1 DUP4 KECCAK256 SWAP1 PUSH1 0x2 DUP3 ADD SWAP2 PUSH1 0xA DUP4 SLOAD LT ISZERO PUSH1 0x0 EQ PUSH2 0x42C JUMPI DUP3 SLOAD PUSH1 0x9 NOT DUP2 ADD SWAP1 DUP2 GT PUSH2 0x419 JUMPI DUP4 SSTORE JUMPDEST PUSH1 0x1 DUP2 ADD DUP1 SLOAD PUSH1 0x5 GT PUSH2 0x3F7 JUMPI DUP1 SLOAD PUSH1 0x4 NOT DUP2 ADD SWAP1 DUP2 GT PUSH2 0x276 JUMPI SWAP2 PUSH1 0x3 DUP3 PUSH2 0x3ED SWAP5 PUSH1 0x0 DUP1 MLOAD PUSH1 0x20 PUSH2 0x88F DUP4 CODECOPY DUP2 MLOAD SWAP2 MSTORE SWAP9 SWAP10 SWAP11 SWAP7 SWAP5 SSTORE JUMPDEST PUSH2 0x3BC PUSH2 0x226 DUP5 PUSH2 0x792 JUMP JUMPDEST SWAP6 DUP7 DUP5 SSTORE TIMESTAMP SWAP1 DUP5 ADD SSTORE SLOAD SWAP6 SLOAD SWAP2 ADD SLOAD SWAP2 MLOAD SWAP5 DUP6 SWAP5 DUP6 SWAP1 SWAP5 SWAP4 SWAP3 PUSH1 0x60 SWAP3 PUSH1 0x80 DUP4 ADD SWAP7 DUP4 MSTORE PUSH1 0x20 DUP4 ADD MSTORE PUSH1 0x40 DUP3 ADD MSTORE ADD MSTORE JUMP JUMPDEST SUB SWAP1 LOG2 PUSH1 0x1 DUP1 SSTORE DUP1 RETURN JUMPDEST SWAP2 PUSH2 0x3ED SWAP2 PUSH1 0x3 DUP5 DUP9 PUSH1 0x0 DUP1 MLOAD PUSH1 0x20 PUSH2 0x88F DUP4 CODECOPY DUP2 MLOAD SWAP2 MSTORE SWAP9 SWAP10 SWAP11 SWAP7 SSTORE PUSH2 0x3B0 JUMP JUMPDEST PUSH4 0x4E487B71 PUSH1 0xE0 SHL DUP7 MSTORE PUSH1 0x11 DUP8 MSTORE PUSH1 0x24 DUP7 REVERT JUMPDEST DUP5 DUP4 SSTORE PUSH2 0x377 JUMP JUMPDEST POP POP CALLVALUE PUSH2 0x30F JUMPI DUP2 PUSH1 0x3 NOT CALLDATASIZE ADD SLT PUSH2 0x30F JUMPI SWAP1 SLOAD SWAP1 MLOAD PUSH1 0x1 PUSH1 0x1 PUSH1 0xA0 SHL SUB SWAP1 SWAP2 AND DUP2 MSTORE PUSH1 0x20 SWAP1 RETURN JUMPDEST POP POP CALLVALUE PUSH2 0x30F JUMPI DUP2 PUSH1 0x3 NOT CALLDATASIZE ADD SLT PUSH2 0x30F JUMPI PUSH1 0x20 SWAP1 MLOAD PUSH2 0x1F4 DUP2 MSTORE RETURN JUMPDEST POP POP CALLVALUE PUSH2 0x30F JUMPI DUP2 PUSH1 0x3 NOT CALLDATASIZE ADD SLT PUSH2 0x30F JUMPI PUSH1 0x20 SWAP1 MLOAD PUSH2 0x3E8 DUP2 MSTORE RETURN JUMPDEST DUP4 CALLVALUE PUSH2 0x4F0 JUMPI DUP1 PUSH1 0x3 NOT CALLDATASIZE ADD SLT PUSH2 0x4F0 JUMPI PUSH2 0x4AF PUSH2 0x743 JUMP JUMPDEST DUP1 SLOAD PUSH1 0x1 PUSH1 0x1 PUSH1 0xA0 SHL SUB NOT DUP2 AND DUP3 SSTORE DUP2 SWAP1 PUSH1 0x1 PUSH1 0x1 PUSH1 0xA0 SHL SUB AND PUSH32 0x8BE0079C531659141344CD1FD0A4F28419497F9722A3DAAFE3B4186F6B6457E0 DUP3 DUP1 LOG3 DUP1 RETURN JUMPDEST DUP1 REVERT JUMPDEST POP POP CALLVALUE PUSH2 0x30F JUMPI PUSH1 0x20 CALLDATASIZE PUSH1 0x3 NOT ADD SLT PUSH2 0x30F JUMPI PUSH1 0x20 SWAP2 DUP2 SWAP1 PUSH1 0x1 PUSH1 0x1 PUSH1 0xA0 SHL SUB PUSH2 0x51B PUSH2 0x70C JUMP JUMPDEST AND DUP2 MSTORE PUSH1 0x2 DUP5 MSTORE KECCAK256 SLOAD SWAP1 MLOAD SWAP1 DUP2 MSTORE RETURN JUMPDEST POP SWAP2 CALLVALUE PUSH2 0x4F0 JUMPI PUSH1 0x20 CALLDATASIZE PUSH1 0x3 NOT ADD SLT PUSH2 0x4F0 JUMPI PUSH2 0x59F SWAP1 DUP3 SWAP1 PUSH1 0x1 PUSH1 0x1 PUSH1 0xA0 SHL SUB PUSH2 0x554 PUSH2 0x70C JUMP JUMPDEST AND DUP2 MSTORE PUSH1 0x2 PUSH1 0x20 MSTORE KECCAK256 SWAP2 DUP3 SLOAD SWAP3 PUSH1 0x1 DUP2 ADD SLOAD SWAP5 PUSH1 0x2 DUP3 ADD SLOAD SWAP1 PUSH1 0x3 DUP4 ADD SLOAD SWAP3 ADD SLOAD SWAP3 MLOAD SWAP6 DUP7 SWAP6 DUP7 SWAP2 SWAP3 PUSH1 0x80 SWAP4 SWAP7 SWAP6 SWAP5 SWAP2 SWAP7 PUSH1 0xA0 DUP5 ADD SWAP8 DUP5 MSTORE PUSH1 0x20 DUP5 ADD MSTORE PUSH1 0x40 DUP4 ADD MSTORE PUSH1 0x60 DUP3 ADD MSTORE ADD MSTORE JUMP JUMPDEST SUB SWAP1 RETURN JUMPDEST POP CALLVALUE PUSH2 0x142 JUMPI PUSH1 0x80 CALLDATASIZE PUSH1 0x3 NOT ADD SLT PUSH2 0x142 JUMPI PUSH1 0x0 DUP1 MLOAD PUSH1 0x20 PUSH2 0x88F DUP4 CODECOPY DUP2 MLOAD SWAP2 MSTORE SWAP1 PUSH2 0x5CD PUSH2 0x70C JUMP JUMPDEST SWAP3 PUSH2 0x3ED PUSH1 0x24 CALLDATALOAD SWAP2 PUSH1 0x44 CALLDATALOAD SWAP6 PUSH1 0x64 CALLDATALOAD SWAP1 PUSH2 0x5E5 PUSH2 0x743 JUMP JUMPDEST PUSH2 0x5ED PUSH2 0x7F5 JUMP JUMPDEST PUSH1 0x1 DUP1 PUSH1 0xA0 SHL SUB AND SWAP7 DUP8 DUP10 MSTORE PUSH1 0x2 PUSH1 0x20 MSTORE DUP3 DUP10 KECCAK256 SWAP6 DUP7 ADD SWAP5 DUP6 SLOAD ISZERO PUSH2 0x6B1 JUMPI JUMPDEST DUP1 PUSH2 0x67B JUMPI JUMPDEST POP DUP1 PUSH2 0x645 JUMPI JUMPDEST POP DUP1 PUSH2 0x62E JUMPI JUMPDEST POP PUSH2 0x22B PUSH2 0x226 DUP6 PUSH2 0x792 JUMP JUMPDEST PUSH2 0x63D PUSH1 0x3 DUP7 ADD SWAP2 DUP3 SLOAD PUSH2 0x76F JUMP JUMPDEST SWAP1 SSTORE CODESIZE PUSH2 0x621 JUMP JUMPDEST PUSH1 0x2 DUP7 ADD SWAP1 DUP2 SLOAD SWAP1 PUSH1 0x64 PUSH2 0x659 DUP3 DUP5 PUSH2 0x76F JUMP JUMPDEST GT ISZERO PUSH2 0x66C JUMPI POP POP PUSH1 0x64 SWAP1 JUMPDEST SSTORE CODESIZE PUSH2 0x61A JUMP JUMPDEST PUSH2 0x675 SWAP2 PUSH2 0x76F JUMP JUMPDEST SWAP1 PUSH2 0x665 JUMP JUMPDEST PUSH1 0x1 DUP8 ADD SWAP1 DUP2 SLOAD SWAP1 PUSH1 0x64 PUSH2 0x68F DUP3 DUP5 PUSH2 0x76F JUMP JUMPDEST GT ISZERO PUSH2 0x6A2 JUMPI POP POP PUSH1 0x64 SWAP1 JUMPDEST SSTORE CODESIZE PUSH2 0x613 JUMP JUMPDEST PUSH2 0x6AB SWAP2 PUSH2 0x76F JUMP JUMPDEST SWAP1 PUSH2 0x69B JUMP JUMPDEST PUSH2 0x1F4 DUP8 SSTORE TIMESTAMP DUP7 SSTORE PUSH2 0x60D JUMP JUMPDEST PUSH2 0x727 JUMP JUMPDEST DUP5 SWAP1 DUP5 CALLVALUE PUSH2 0x142 JUMPI DUP1 PUSH1 0x3 NOT CALLDATASIZE ADD SLT PUSH2 0x142 JUMPI PUSH2 0x6DE PUSH2 0x70C JUMP JUMPDEST PUSH1 0x1 PUSH1 0x1 PUSH1 0xA0 SHL SUB AND DUP4 MSTORE PUSH1 0x3 PUSH1 0x20 MSTORE DUP3 KECCAK256 DUP1 SLOAD PUSH1 0x24 CALLDATALOAD SWAP2 SWAP1 DUP3 LT ISZERO PUSH2 0x30B JUMPI DUP4 MSTORE PUSH1 0x20 SWAP3 DUP4 SWAP1 KECCAK256 ADD SLOAD DUP2 MSTORE RETURN JUMPDEST PUSH1 0x4 CALLDATALOAD SWAP1 PUSH1 0x1 PUSH1 0x1 PUSH1 0xA0 SHL SUB DUP3 AND DUP3 SUB PUSH2 0x722 JUMPI JUMP JUMPDEST PUSH1 0x0 DUP1 REVERT JUMPDEST CALLVALUE PUSH2 0x722 JUMPI PUSH1 0x0 CALLDATASIZE PUSH1 0x3 NOT ADD SLT PUSH2 0x722 JUMPI PUSH1 0x20 PUSH1 0x40 MLOAD PUSH1 0x64 DUP2 MSTORE RETURN JUMPDEST PUSH1 0x0 SLOAD PUSH1 0x1 PUSH1 0x1 PUSH1 0xA0 SHL SUB AND CALLER SUB PUSH2 0x757 JUMPI JUMP JUMPDEST PUSH1 0x40 MLOAD PUSH4 0x118CDAA7 PUSH1 0xE0 SHL DUP2 MSTORE CALLER PUSH1 0x4 DUP3 ADD MSTORE PUSH1 0x24 SWAP1 REVERT JUMPDEST SWAP2 SWAP1 DUP3 ADD DUP1 SWAP3 GT PUSH2 0x77C JUMPI JUMP JUMPDEST PUSH4 0x4E487B71 PUSH1 0xE0 SHL PUSH1 0x0 MSTORE PUSH1 0x11 PUSH1 0x4 MSTORE PUSH1 0x24 PUSH1 0x0 REVERT JUMPDEST SWAP1 PUSH1 0x40 MLOAD PUSH1 0xA0 DUP2 ADD DUP2 DUP2 LT PUSH8 0xFFFFFFFFFFFFFFFF DUP3 GT OR PUSH2 0x7DF JUMPI PUSH1 0x40 MSTORE PUSH1 0x80 PUSH1 0x4 DUP3 SWAP5 DUP1 SLOAD DUP5 MSTORE PUSH1 0x1 DUP2 ADD SLOAD PUSH1 0x20 DUP6 ADD MSTORE PUSH1 0x2 DUP2 ADD SLOAD PUSH1 0x40 DUP6 ADD MSTORE PUSH1 0x3 DUP2 ADD SLOAD PUSH1 0x60 DUP6 ADD MSTORE ADD SLOAD SWAP2 ADD MSTORE JUMP JUMPDEST PUSH4 0x4E487B71 PUSH1 0xE0 SHL PUSH1 0x0 MSTORE PUSH1 0x41 PUSH1 0x4 MSTORE PUSH1 0x24 PUSH1 0x0 REVERT JUMPDEST PUSH1 0x2 PUSH1 0x1 SLOAD EQ PUSH2 0x806 JUMPI PUSH1 0x2 PUSH1 0x1 SSTORE JUMP JUMPDEST PUSH1 0x40 MLOAD PUSH4 0x3EE5AEB5 PUSH1 0xE0 SHL DUP2 MSTORE PUSH1 0x4 SWAP1 REVERT JUMPDEST PUSH1 0x20 DUP2 ADD MLOAD SWAP1 PUSH1 0x3 DUP3 MUL SWAP2 DUP1 DUP4 DIV PUSH1 0x3 EQ SWAP1 ISZERO OR ISZERO PUSH2 0x77C JUMPI PUSH2 0x1F4 SWAP2 DUP3 ADD DUP1 SWAP3 GT PUSH2 0x77C JUMPI PUSH1 0x40 DUP2 ADD MLOAD SWAP2 DUP3 PUSH1 0x1 SHL SWAP3 DUP1 DUP5 DIV PUSH1 0x2 EQ SWAP1 ISZERO OR ISZERO PUSH2 0x77C JUMPI PUSH1 0x60 PUSH2 0x86F PUSH2 0x879 SWAP5 PUSH8 0xDE0B6B3A7640000 SWAP4 PUSH2 0x76F JUMP JUMPDEST SWAP3 ADD MLOAD DIV SWAP1 PUSH2 0x76F JUMP JUMPDEST PUSH2 0x3E8 SWAP1 DUP2 DUP2 GT ISZERO PUSH2 0x889 JUMPI POP SWAP1 JUMP JUMPDEST SWAP1 POP SWAP1 JUMP INVALID PUSH30 0x8D89116E982D341B4884970594DF5C66BFB5D4E82B7E703DF4303E4B3E01 CALLDATALOAD LOG2 PUSH5 0x6970667358 0x22 SLT KECCAK256 0xBB CODESIZE 0x4F 0x26 JUMPDEST EXTCODEHASH REVERT 0xE7 0xB5 0xE3 0xB4 0x4A JUMPDEST 0xEA SWAP4 LOG0 PUSH14 0x87B59F4D8BC838ED899DB165FC21 LOG4 PUSH5 0x736F6C6343 STOP ADDMOD EQ STOP CALLER "},"methodIdentifiers":{"BASE_SCORE()":"7effe568","MAX_CREDIT_HISTORY()":"1aeb105f","MAX_REPAYMENT_RECORD()":"2822cc8e","MAX_TRUST_SCORE()":"74c8d377","getTrustScore(address)":"5e09eea1","getTrustScoreData(address)":"5724f4ae","loanHistory(address,uint256)":"0de4f25c","owner()":"8da5cb5b","recordLoanCompletion(address,bool,bool)":"a9b427c9","recordLoanDefault(address)":"9268ffe8","renounceOwnership()":"715018a6","transferOwnership(address)":"f2fde38b","trustScores(address)":"12df0fc4","updateTrustScore(address,uint256,uint256,uint256)":"417914d5"}}}}}