{"contracts/InterestRateModel.sol":{"InterestRateModel":{"abi":[{"inputs":[{"internalType":"address","name":"initialOwner","type":"address"}],"stateMutability":"nonpayable","type":"constructor"},{"inputs":[{"internalType":"address","name":"owner","type":"address"}],"name":"OwnableInvalidOwner","type":"error"},{"inputs":[{"internalType":"address","name":"account","type":"address"}],"name":"OwnableUnauthorizedAccount","type":"error"},{"anonymous":false,"inputs":[{"indexed":false,"internalType":"uint256","name":"newBaseRate","type":"uint256"}],"name":"InterestRateUpdated","type":"event"},{"anonymous":false,"inputs":[{"indexed":true,"internalType":"address","name":"previousOwner","type":"address"},{"indexed":true,"internalType":"address","name":"newOwner","type":"address"}],"name":"OwnershipTransferred","type":"event"},{"inputs":[],"name":"MAX_INTEREST_RATE_BPS","outputs":[{"internalType":"uint256","name":"","type":"uint256"}],"stateMutability":"view","type":"function"},{"inputs":[],"name":"MIN_INTEREST_RATE_BPS","outputs":[{"internalType":"uint256","name":"","type":"uint256"}],"stateMutability":"view","type":"function"},{"inputs":[],"name":"baseInterestRateBps","outputs":[{"internalType":"uint256","name":"","type":"uint256"}],"stateMutability":"view","type":"function"},{"inputs":[{"internalType":"uint256","name":"amount","type":"uint256"},{"internalType":"uint256","name":"trustScore","type":"uint256"}],"name":"calculateInterestRate","outputs":[{"internalType":"uint256","name":"","type":"uint256"}],"stateMutability":"view","type":"function"},{"inputs":[{"internalType":"uint256","name":"trustScore","type":"uint256"}],"name":"getInterestRateForTrustScore","outputs":[{"internalType":"uint256","name":"","type":"uint256"}],"stateMutability":"view","type":"function"},{"inputs":[],"name":"owner","outputs":[{"internalType":"address","name":"","type":"address"}],"stateMutability":"view","type":"function"},{"inputs":[],"name":"renounceOwnership","outputs":[],"stateMutability":"nonpayable","type":"function"},{"inputs":[{"internalType":"uint256","name":"newRate","type":"uint256"}],"name":"setBaseInterestRate","outputs":[],"stateMutability":"nonpayable","type":"function"},{"inputs":[{"internalType":"address","name":"newOwner","type":"address"}],"name":"transferOwnership","outputs":[],"stateMutability":"nonpayable","type":"function"}],"evm":{"bytecode":{"linkReferences":{},"object":"6080346100c157601f6105a338819003918201601f19168301916001600160401b038311848410176100c6578084926020946040528339810103126100c157516001600160a01b0390818116908190036100c15780156100a857600080546001600160a01b03198116831782556040519316907f8be0079c531659141344cd1fd0a4f28419497f9722a3daafe3b4186f6b6457e09080a36103206001556104c690816100dd8239f35b604051631e4fbdf760e01b815260006004820152602490fd5b600080fd5b634e487b7160e01b600052604160045260246000fdfe60406080815260048036101561001457600080fd5b600091823560e01c80630d561555146103c457806317b1867e14610317578063709ae441146102fa578063715018a6146102a05780638da5cb5b14610278578063a579678514610152578063a5b5904a14610133578063b71aa4d5146101135763f2fde38b1461008357600080fd5b3461010f57602036600319011261010f576001600160a01b0382358181169391929084900361010b576100b4610464565b83156100f557505082546001600160a01b0319811683178455167f8be0079c531659141344cd1fd0a4f28419497f9722a3daafe3b4186f6b6457e08380a380f35b51631e4fbdf760e01b8152908101849052602490fd5b8480fd5b8280fd5b83823461012f578160031936011261012f576020905160648152f35b5080fd5b83823461012f578160031936011261012f576020906001549051908152f35b5082346102755781600319360112610275576001546024938035918535610320811061023a575061012b19810190811161022857915b68056bc75e2d6310000081106101ef575060311982019182116101dd575060209350905b60648210156101c15750506064905b51908152f35b5061138890818111156101d657505b906101bb565b90506101d0565b634e487b7160e01b8352601190528382fd5b678ac7230489e8000090939293101561020d575b50602093506101ac565b90916013198101919082116101dd5750602093509084610203565b634e487b7160e01b8452601182528584fd5b6102588110610256575060951981019081116102285791610188565b610190116102645791610188565b60c881018091116102285791610188565b80fd5b83823461012f578160031936011261012f57905490516001600160a01b039091168152602090f35b83346102755780600319360112610275576102b9610464565b80546001600160a01b03198116825581906001600160a01b03167f8be0079c531659141344cd1fd0a4f28419497f9722a3daafe3b4186f6b6457e08280a380f35b83823461012f578160031936011261012f57602090516113888152f35b503461010f57602036600319011261010f57813591610334610464565b6064831015806103b8575b156103765750816020917fa90e14be5aa57b910aa6dc16c31ff1b5cda380ae25a793b0d3f74df6131a7d749360015551908152a180f35b6020606492519162461bcd60e51b8352820152601b60248201527f496e7465726573742072617465206f7574206f6620626f756e647300000000006044820152fd5b5061138883111561033f565b508234610275576020366003190112610275576001548335610320811061041d575061012b19810190811161040a57602093509060648210156101c15750505160648152f35b634e487b7160e01b825260118452602482fd5b610258811061043d5750609519810190811161040a5760209350906101ac565b6101901161044f5760209350906101ac565b60c8810180911161040a5760209350906101ac565b6000546001600160a01b0316330361047857565b60405163118cdaa760e01b8152336004820152602490fdfea264697066735822122089a578974d37f47948c0af9be57a2a1097a120427469ec90bfa55e5ea8416f7864736f6c63430008140033","opcodes":"PUSH1 0x80 CALLVALUE PUSH2 0xC1 JUMPI PUSH1 0x1F PUSH2 0x5A3 CODESIZE DUP2 SWAP1 SUB SWAP2 DUP3 ADD PUSH1 0x1F NOT AND DUP4 ADD SWAP2 PUSH1 0x1 PUSH1 0x1 PUSH1 0x40 SHL SUB DUP4 GT DUP5 DUP5 LT OR PUSH2 0xC6 JUMPI DUP1 DUP5 SWAP3 PUSH1 0x20 SWAP5 PUSH1 0x40 MSTORE DUP4 CODECOPY DUP2 ADD SUB SLT PUSH2 0xC1 JUMPI MLOAD PUSH1 0x1 PUSH1 0x1 PUSH1 0xA0 SHL SUB SWAP1 DUP2 DUP2 AND SWAP1 DUP2 SWAP1 SUB PUSH2 0xC1 JUMPI DUP1 ISZERO PUSH2 0xA8 JUMPI PUSH1 0x0 DUP1 SLOAD PUSH1 0x1 PUSH1 0x1 PUSH1 0xA0 SHL SUB NOT DUP2 AND DUP4 OR DUP3 SSTORE PUSH1 0x40 MLOAD SWAP4 AND SWAP1 PUSH32 0x8BE0079C531659141344CD1FD0A4F28419497F9722A3DAAFE3B4186F6B6457E0 SWAP1 DUP1 LOG3 PUSH2 0x320 PUSH1 0x1 SSTORE PUSH2 0x4C6 SWAP1 DUP2 PUSH2 0xDD DUP3 CODECOPY RETURN JUMPDEST PUSH1 0x40 MLOAD PUSH4 0x1E4FBDF7 PUSH1 0xE0 SHL DUP2 MSTORE PUSH1 0x0 PUSH1 0x4 DUP3 ADD MSTORE PUSH1 0x24 SWAP1 REVERT JUMPDEST PUSH1 0x0 DUP1 REVERT JUMPDEST PUSH4 0x4E487B71 PUSH1 0xE0 SHL PUSH1 0x0 MSTORE PUSH1 0x41 PUSH1 0x4 MSTORE PUSH1 0x24 PUSH1 0x0 REVERT INVALID PUSH1 0x40 PUSH1 0x80 DUP2 MSTORE PUSH1 0x4 DUP1 CALLDATASIZE LT ISZERO PUSH2 0x14 JUMPI PUSH1 0x0 DUP1 REVERT JUMPDEST PUSH1 0x0 SWAP2 DUP3 CALLDATALOAD PUSH1 0xE0 SHR DUP1 PUSH4 0xD561555 EQ PUSH2 0x3C4 JUMPI DUP1 PUSH4 0x17B1867E EQ PUSH2 0x317 JUMPI DUP1 PUSH4 0x709AE441 EQ PUSH2 0x2FA JUMPI DUP1 PUSH4 0x715018A6 EQ PUSH2 0x2A0 JUMPI DUP1 PUSH4 0x8DA5CB5B EQ PUSH2 0x278 JUMPI DUP1 PUSH4 0xA5796785 EQ PUSH2 0x152 JUMPI DUP1 PUSH4 0xA5B5904A EQ PUSH2 0x133 JUMPI DUP1 PUSH4 0xB71AA4D5 EQ PUSH2 0x113 JUMPI PUSH4 0xF2FDE38B EQ PUSH2 0x83 JUMPI PUSH1 0x0 DUP1 REVERT JUMPDEST CALLVALUE PUSH2 0x10F JUMPI PUSH1 0x20 CALLDATASIZE PUSH1 0x3 NOT ADD SLT PUSH2 0x10F JUMPI PUSH1 0x1 PUSH1 0x1 PUSH1 0xA0 SHL SUB DUP3 CALLDATALOAD DUP2 DUP2 AND SWAP4 SWAP2 SWAP3 SWAP1 DUP5 SWAP1 SUB PUSH2 0x10B JUMPI PUSH2 0xB4 PUSH2 0x464 JUMP JUMPDEST DUP4 ISZERO PUSH2 0xF5 JUMPI POP POP DUP3 SLOAD PUSH1 0x1 PUSH1 0x1 PUSH1 0xA0 SHL SUB NOT DUP2 AND DUP4 OR DUP5 SSTORE AND PUSH32 0x8BE0079C531659141344CD1FD0A4F28419497F9722A3DAAFE3B4186F6B6457E0 DUP4 DUP1 LOG3 DUP1 RETURN JUMPDEST MLOAD PUSH4 0x1E4FBDF7 PUSH1 0xE0 SHL DUP2 MSTORE SWAP1 DUP2 ADD DUP5 SWAP1 MSTORE PUSH1 0x24 SWAP1 REVERT JUMPDEST DUP5 DUP1 REVERT JUMPDEST DUP3 DUP1 REVERT JUMPDEST DUP4 DUP3 CALLVALUE PUSH2 0x12F JUMPI DUP2 PUSH1 0x3 NOT CALLDATASIZE ADD SLT PUSH2 0x12F JUMPI PUSH1 0x20 SWAP1 MLOAD PUSH1 0x64 DUP2 MSTORE RETURN JUMPDEST POP DUP1 REVERT JUMPDEST DUP4 DUP3 CALLVALUE PUSH2 0x12F JUMPI DUP2 PUSH1 0x3 NOT CALLDATASIZE ADD SLT PUSH2 0x12F JUMPI PUSH1 0x20 SWAP1 PUSH1 0x1 SLOAD SWAP1 MLOAD SWAP1 DUP2 MSTORE RETURN JUMPDEST POP DUP3 CALLVALUE PUSH2 0x275 JUMPI DUP2 PUSH1 0x3 NOT CALLDATASIZE ADD SLT PUSH2 0x275 JUMPI PUSH1 0x1 SLOAD PUSH1 0x24 SWAP4 DUP1 CALLDATALOAD SWAP2 DUP6 CALLDATALOAD PUSH2 0x320 DUP2 LT PUSH2 0x23A JUMPI POP PUSH2 0x12B NOT DUP2 ADD SWAP1 DUP2 GT PUSH2 0x228 JUMPI SWAP2 JUMPDEST PUSH9 0x56BC75E2D63100000 DUP2 LT PUSH2 0x1EF JUMPI POP PUSH1 0x31 NOT DUP3 ADD SWAP2 DUP3 GT PUSH2 0x1DD JUMPI POP PUSH1 0x20 SWAP4 POP SWAP1 JUMPDEST PUSH1 0x64 DUP3 LT ISZERO PUSH2 0x1C1 JUMPI POP POP PUSH1 0x64 SWAP1 JUMPDEST MLOAD SWAP1 DUP2 MSTORE RETURN JUMPDEST POP PUSH2 0x1388 SWAP1 DUP2 DUP2 GT ISZERO PUSH2 0x1D6 JUMPI POP JUMPDEST SWAP1 PUSH2 0x1BB JUMP JUMPDEST SWAP1 POP PUSH2 0x1D0 JUMP JUMPDEST PUSH4 0x4E487B71 PUSH1 0xE0 SHL DUP4 MSTORE PUSH1 0x11 SWAP1 MSTORE DUP4 DUP3 REVERT JUMPDEST PUSH8 0x8AC7230489E80000 SWAP1 SWAP4 SWAP3 SWAP4 LT ISZERO PUSH2 0x20D JUMPI JUMPDEST POP PUSH1 0x20 SWAP4 POP PUSH2 0x1AC JUMP JUMPDEST SWAP1 SWAP2 PUSH1 0x13 NOT DUP2 ADD SWAP2 SWAP1 DUP3 GT PUSH2 0x1DD JUMPI POP PUSH1 0x20 SWAP4 POP SWAP1 DUP5 PUSH2 0x203 JUMP JUMPDEST PUSH4 0x4E487B71 PUSH1 0xE0 SHL DUP5 MSTORE PUSH1 0x11 DUP3 MSTORE DUP6 DUP5 REVERT JUMPDEST PUSH2 0x258 DUP2 LT PUSH2 0x256 JUMPI POP PUSH1 0x95 NOT DUP2 ADD SWAP1 DUP2 GT PUSH2 0x228 JUMPI SWAP2 PUSH2 0x188 JUMP JUMPDEST PUSH2 0x190 GT PUSH2 0x264 JUMPI SWAP2 PUSH2 0x188 JUMP JUMPDEST PUSH1 0xC8 DUP2 ADD DUP1 SWAP2 GT PUSH2 0x228 JUMPI SWAP2 PUSH2 0x188 JUMP JUMPDEST DUP1 REVERT JUMPDEST DUP4 DUP3 CALLVALUE PUSH2 0x12F JUMPI DUP2 PUSH1 0x3 NOT CALLDATASIZE ADD SLT PUSH2 0x12F JUMPI SWAP1 SLOAD SWAP1 MLOAD PUSH1 0x1 PUSH1 0x1 PUSH1 0xA0 SHL SUB SWAP1 SWAP2 AND DUP2 MSTORE PUSH1 0x20 SWAP1 RETURN JUMPDEST DUP4 CALLVALUE PUSH2 0x275 JUMPI DUP1 PUSH1 0x3 NOT CALLDATASIZE ADD SLT PUSH2 0x275 JUMPI PUSH2 0x2B9 PUSH2 0x464 JUMP JUMPDEST DUP1 SLOAD PUSH1 0x1 PUSH1 0x1 PUSH1 0xA0 SHL SUB NOT DUP2 AND DUP3 SSTORE DUP2 SWAP1 PUSH1 0x1 PUSH1 0x1 PUSH1 0xA0 SHL SUB AND PUSH32 0x8BE0079C531659141344CD1FD0A4F28419497F9722A3DAAFE3B4186F6B6457E0 DUP3 DUP1 LOG3 DUP1 RETURN JUMPDEST DUP4 DUP3 CALLVALUE PUSH2 0x12F JUMPI DUP2 PUSH1 0x3 NOT CALLDATASIZE ADD SLT PUSH2 0x12F JUMPI PUSH1 0x20 SWAP1 MLOAD PUSH2 0x1388 DUP2 MSTORE RETURN JUMPDEST POP CALLVALUE PUSH2 0x10F JUMPI PUSH1 0x20 CALLDATASIZE PUSH1 0x3 NOT ADD SLT PUSH2 0x10F JUMPI DUP2 CALLDATALOAD SWAP2 PUSH2 0x334 PUSH2 0x464 JUMP JUMPDEST PUSH1 0x64 DUP4 LT ISZERO DUP1 PUSH2 0x3B8 JUMPI JUMPDEST ISZERO PUSH2 0x376 JUMPI POP DUP2 PUSH1 0x20 SWAP2 PUSH32 0xA90E14BE5AA57B910AA6DC16C31FF1B5CDA380AE25A793B0D3F74DF6131A7D74 SWAP4 PUSH1 0x1 SSTORE MLOAD SWAP1 DUP2 MSTORE LOG1 DUP1 RETURN JUMPDEST PUSH1 0x20 PUSH1 0x64 SWAP3 MLOAD SWAP2 PUSH3 0x461BCD PUSH1 0xE5 SHL DUP4 MSTORE DUP3 ADD MSTORE PUSH1 0x1B PUSH1 0x24 DUP3 ADD MSTORE PUSH32 0x496E7465726573742072617465206F7574206F6620626F756E64730000000000 PUSH1 0x44 DUP3 ADD MSTORE REVERT JUMPDEST POP PUSH2 0x1388 DUP4 GT ISZERO PUSH2 0x33F JUMP JUMPDEST POP DUP3 CALLVALUE PUSH2 0x275 JUMPI PUSH1 0x20 CALLDATASIZE PUSH1 0x3 NOT ADD SLT PUSH2 0x275 JUMPI PUSH1 0x1 SLOAD DUP4 CALLDATALOAD PUSH2 0x320 DUP2 LT PUSH2 0x41D JUMPI POP PUSH2 0x12B NOT DUP2 ADD SWAP1 DUP2 GT PUSH2 0x40A JUMPI PUSH1 0x20 SWAP4 POP SWAP1 PUSH1 0x64 DUP3 LT ISZERO PUSH2 0x1C1 JUMPI POP POP MLOAD PUSH1 0x64 DUP2 MSTORE RETURN JUMPDEST PUSH4 0x4E487B71 PUSH1 0xE0 SHL DUP3 MSTORE PUSH1 0x11 DUP5 MSTORE PUSH1 0x24 DUP3 REVERT JUMPDEST PUSH2 0x258 DUP2 LT PUSH2 0x43D JUMPI POP PUSH1 0x95 NOT DUP2 ADD SWAP1 DUP2 GT PUSH2 0x40A JUMPI PUSH1 0x20 SWAP4 POP SWAP1 PUSH2 0x1AC JUMP JUMPDEST PUSH2 0x190 GT PUSH2 0x44F JUMPI PUSH1 0x20 SWAP4 POP SWAP1 PUSH2 0x1AC JUMP JUMPDEST PUSH1 0xC8 DUP2 ADD DUP1 SWAP2 GT PUSH2 0x40A JUMPI PUSH1 0x20 SWAP4 POP SWAP1 PUSH2 0x1AC JUMP JUMPDEST PUSH1 0x0 SLOAD PUSH1 0x1 PUSH1 0x1 PUSH1 0xA0 SHL SUB AND CALLER SUB PUSH2 0x478 JUMPI JUMP JUMPDEST PUSH1 0x40 MLOAD PUSH4 0x118CDAA7 PUSH1 0xE0 SHL DUP2 MSTORE CALLER PUSH1 0x4 DUP3 ADD MSTORE PUSH1 0x24 SWAP1 REVERT INVALID LOG2 PUSH5 0x6970667358 0x22 SLT KECCAK256 DUP10 0xA5 PUSH25 0x974D37F47948C0AF9BE57A2A1097A120427469EC90BFA55E5E 0xA8 COINBASE PUSH16 0x7864736F6C6343000814003300000000 "},"methodIdentifiers":{"MAX_INTEREST_RATE_BPS()":"709ae441","MIN_INTEREST_RATE_BPS()":"b71aa4d5","baseInterestRateBps()":"a5b5904a","calculateInterestRate(uint256,uint256)":"a5796785","getInterestRateForTrustScore(uint256)":"0d561555","owner()":"8da5cb5b","renounceOwnership()":"715018a6","setBaseInterestRate(uint256)":"17b1867e","transferOwnership(address)":"f2fde38b"}}}}}