{
  "_format": "hh-sol-artifact-1",
  "contractName": "CollateralManager",
  "sourceName": "contracts/CollateralManager.sol",
  "abi": [
    {
      "inputs": [
        {
          "internalType": "address",
          "name": "initialOwner",
          "type": "address"
        }
      ],
      "stateMutability": "nonpayable",
      "type": "constructor"
    },
    {
      "inputs": [],
      "name": "EnforcedPause",
      "type": "error"
    },
    {
      "inputs": [],
      "name": "ExpectedPause",
      "type": "error"
    },
    {
      "inputs": [
        {
          "internalType": "address",
          "name": "owner",
          "type": "address"
        }
      ],
      "name": "OwnableInvalidOwner",
      "type": "error"
    },
    {
      "inputs": [
        {
          "internalType": "address",
          "name": "account",
          "type": "address"
        }
      ],
      "name": "OwnableUnauthorizedAccount",
      "type": "error"
    },
    {
      "inputs": [],
      "name": "ReentrancyGuardReentrantCall",
      "type": "error"
    },
    {
      "anonymous": false,
      "inputs": [
        {
          "indexed": true,
          "internalType": "address",
          "name": "user",
          "type": "address"
        },
        {
          "indexed": true,
          "internalType": "address",
          "name": "token",
          "type": "address"
        },
        {
          "indexed": false,
          "internalType": "uint256",
          "name": "amount",
          "type": "uint256"
        }
      ],
      "name": "CollateralLiquidated",
      "type": "event"
    },
    {
      "anonymous": false,
      "inputs": [
        {
          "indexed": true,
          "internalType": "address",
          "name": "user",
          "type": "address"
        },
        {
          "indexed": true,
          "internalType": "address",
          "name": "token",
          "type": "address"
        },
        {
          "indexed": false,
          "internalType": "uint256",
          "name": "amount",
          "type": "uint256"
        }
      ],
      "name": "CollateralLocked",
      "type": "event"
    },
    {
      "anonymous": false,
      "inputs": [
        {
          "indexed": true,
          "internalType": "address",
          "name": "user",
          "type": "address"
        },
        {
          "indexed": true,
          "internalType": "address",
          "name": "token",
          "type": "address"
        },
        {
          "indexed": false,
          "internalType": "uint256",
          "name": "amount",
          "type": "uint256"
        }
      ],
      "name": "CollateralReleased",
      "type": "event"
    },
    {
      "anonymous": false,
      "inputs": [
        {
          "indexed": true,
          "internalType": "address",
          "name": "previousOwner",
          "type": "address"
        },
        {
          "indexed": true,
          "internalType": "address",
          "name": "newOwner",
          "type": "address"
        }
      ],
      "name": "OwnershipTransferred",
      "type": "event"
    },
    {
      "anonymous": false,
      "inputs": [
        {
          "indexed": false,
          "internalType": "address",
          "name": "account",
          "type": "address"
        }
      ],
      "name": "Paused",
      "type": "event"
    },
    {
      "anonymous": false,
      "inputs": [
        {
          "indexed": false,
          "internalType": "address",
          "name": "account",
          "type": "address"
        }
      ],
      "name": "Unpaused",
      "type": "event"
    },
    {
      "inputs": [
        {
          "internalType": "address",
          "name": "",
          "type": "address"
        }
      ],
      "name": "acceptableCollaterals",
      "outputs": [
        {
          "internalType": "bool",
          "name": "",
          "type": "bool"
        }
      ],
      "stateMutability": "view",
      "type": "function"
    },
    {
      "inputs": [
        {
          "internalType": "address",
          "name": "user",
          "type": "address"
        },
        {
          "internalType": "address",
          "name": "collateralToken",
          "type": "address"
        }
      ],
      "name": "getLockedCollateral",
      "outputs": [
        {
          "internalType": "uint256",
          "name": "",
          "type": "uint256"
        }
      ],
      "stateMutability": "view",
      "type": "function"
    },
    {
      "inputs": [
        {
          "internalType": "address",
          "name": "token",
          "type": "address"
        }
      ],
      "name": "isAcceptableCollateral",
      "outputs": [
        {
          "internalType": "bool",
          "name": "",
          "type": "bool"
        }
      ],
      "stateMutability": "view",
      "type": "function"
    },
    {
      "inputs": [
        {
          "internalType": "address",
          "name": "user",
          "type": "address"
        },
        {
          "internalType": "address",
          "name": "collateralToken",
          "type": "address"
        },
        {
          "internalType": "uint256",
          "name": "amount",
          "type": "uint256"
        }
      ],
      "name": "liquidateCollateral",
      "outputs": [],
      "stateMutability": "nonpayable",
      "type": "function"
    },
    {
      "inputs": [
        {
          "internalType": "address",
          "name": "user",
          "type": "address"
        },
        {
          "internalType": "address",
          "name": "collateralToken",
          "type": "address"
        },
        {
          "internalType": "uint256",
          "name": "amount",
          "type": "uint256"
        }
      ],
      "name": "lockCollateral",
      "outputs": [],
      "stateMutability": "payable",
      "type": "function"
    },
    {
      "inputs": [
        {
          "internalType": "address",
          "name": "",
          "type": "address"
        },
        {
          "internalType": "address",
          "name": "",
          "type": "address"
        }
      ],
      "name": "lockedCollateral",
      "outputs": [
        {
          "internalType": "uint256",
          "name": "",
          "type": "uint256"
        }
      ],
      "stateMutability": "view",
      "type": "function"
    },
    {
      "inputs": [],
      "name": "owner",
      "outputs": [
        {
          "internalType": "address",
          "name": "",
          "type": "address"
        }
      ],
      "stateMutability": "view",
      "type": "function"
    },
    {
      "inputs": [],
      "name": "pause",
      "outputs": [],
      "stateMutability": "nonpayable",
      "type": "function"
    },
    {
      "inputs": [],
      "name": "paused",
      "outputs": [
        {
          "internalType": "bool",
          "name": "",
          "type": "bool"
        }
      ],
      "stateMutability": "view",
      "type": "function"
    },
    {
      "inputs": [
        {
          "internalType": "address",
          "name": "user",
          "type": "address"
        },
        {
          "internalType": "address",
          "name": "collateralToken",
          "type": "address"
        },
        {
          "internalType": "uint256",
          "name": "amount",
          "type": "uint256"
        }
      ],
      "name": "releaseCollateral",
      "outputs": [],
      "stateMutability": "nonpayable",
      "type": "function"
    },
    {
      "inputs": [],
      "name": "renounceOwnership",
      "outputs": [],
      "stateMutability": "nonpayable",
      "type": "function"
    },
    {
      "inputs": [
        {
          "internalType": "address",
          "name": "token",
          "type": "address"
        },
        {
          "internalType": "bool",
          "name": "acceptable",
          "type": "bool"
        }
      ],
      "name": "setAcceptableCollateral",
      "outputs": [],
      "stateMutability": "nonpayable",
      "type": "function"
    },
    {
      "inputs": [
        {
          "internalType": "address",
          "name": "newOwner",
          "type": "address"
        }
      ],
      "name": "transferOwnership",
      "outputs": [],
      "stateMutability": "nonpayable",
      "type": "function"
    },
    {
      "inputs": [],
      "name": "unpause",
      "outputs": [],
      "stateMutability": "nonpayable",
      "type": "function"
    }
  ],
  "bytecode": "0x6080346100d657601f610bf138819003918201601f19168301916001600160401b038311848410176100db578084926020946040528339810103126100d657516001600160a01b0390818116908190036100d65780156100bd57600080546001600160a01b03198116831782556040805194909391167f8be0079c531659141344cd1fd0a4f28419497f9722a3daafe3b4186f6b6457e08380a360018055808052600460205220600160ff19825416179055610aff90816100f28239f35b604051631e4fbdf760e01b815260006004820152602490fd5b600080fd5b634e487b7160e01b600052604160045260246000fdfe6040608081526004908136101561001557600080fd5b600091823560e01c806295372414610797578063044727be1461069157806327a73789146107435780633f4ba83a146106da57806340f895ea146106915780635c975abb1461066d578063715018a6146106105780638456cb59146105b55780638da5cb5b14610589578063b8aea31214610281578063ee82616114610343578063f2fde38b146102bd578063fa3ba35c146102815763fbd24bbb146100ba57600080fd5b3461027d576100c836610968565b6100d3939193610a19565b6100db610a37565b60018060a01b03918284169384885260209360038552878920961695868952845261010b83888a20541015610a5a565b848852600384528688208689528452868820610128848254610aa6565b90558561018c575050858184828215610183575b839283928392f115610179577f61934a17c11b5044643161fe4f0b02bec50109892c048066a3b19507bdc59bb99293945b51908152a36001805580f35b84513d87823e3d90fd5b506108fc61013c565b865163a9059cbb60e01b81526001600160a01b0390911682820190815260208101849052959694959394929385908290819060400103818b8b5af1908115610273578891610246575b50156102055750907f61934a17c11b5044643161fe4f0b02bec50109892c048066a3b19507bdc59bb9929161016d565b83606492519162461bcd60e51b8352820152601960248201527f436f6c6c61746572616c2072656c65617365206661696c6564000000000000006044820152fd5b6102669150853d871161026c575b61025e81836109c9565b810190610a01565b386101d5565b503d610254565b83513d8a823e3d90fd5b8280fd5b503461027d57602036600319011261027d5760209260ff918391906001600160a01b036102ac610937565b168252855220541690519015158152f35b503461027d57602036600319011261027d576102d7610937565b906102e061099d565b6001600160a01b0391821692831561032d57505082546001600160a01b0319811683178455167f8be0079c531659141344cd1fd0a4f28419497f9722a3daafe3b4186f6b6457e08380a380f35b51631e4fbdf760e01b8152908101849052602490fd5b50919061034f36610968565b61035b93929193610a19565b610363610a37565b60018060a01b038094169384865260209287845260ff85882054161561054657169283330361050457846104625781340361042957858083801561041f575b8280929181923090f115610416575b838652600383528086208587528352808620805490838201809211610403577f9d952b9056b1ad31790d622a7f5ecf49004b370b41add0e429ac1e9f4b8a333595969798505551908152a36001805580f35b634e487b7160e01b885260118952602488fd5b513d86823e3d90fd5b6108fc91506103a2565b5162461bcd60e51b81528087018390526014602482015273125b98dbdc9c9958dd0811551208185b5bdd5b9d60621b6044820152606490fd5b80516323b872dd60e01b8152848882015230602482015282604482015283816064818a8a5af19081156104fa5787916104dd575b506103b1575162461bcd60e51b8152808701839052601a60248201527f436f6c6c61746572616c207472616e73666572206661696c65640000000000006044820152606490fd5b6104f49150843d861161026c5761025e81836109c9565b38610496565b82513d89823e3d90fd5b5162461bcd60e51b8152808701839052601c60248201527f43616e206f6e6c79206c6f636b206f776e20636f6c6c61746572616c000000006044820152606490fd5b845162461bcd60e51b8152808901859052601760248201527f556e61636365707461626c6520636f6c6c61746572616c0000000000000000006044820152606490fd5b5050346105b157816003193601126105b157905490516001600160a01b039091168152602090f35b5080fd5b5050346105b157816003193601126105b15760207f62e78cea01bee320cd4e420270b5ea74000d11b0c9f74754ebdbfc544b05a258916105f361099d565b6105fb610a19565b600160ff19600254161760025551338152a180f35b833461066a578060031936011261066a5761062961099d565b80546001600160a01b03198116825581906001600160a01b03167f8be0079c531659141344cd1fd0a4f28419497f9722a3daafe3b4186f6b6457e08280a380f35b80fd5b5050346105b157816003193601126105b15760209060ff6002541690519015158152f35b5050346105b157806003193601126105b157806020926106af610937565b6106b7610952565b6001600160a01b0391821683526003865283832091168252845220549051908152f35b503461027d578260031936011261027d576106f361099d565b6002549060ff821615610735575060ff1916600255513381527f5db9ee0a495bf2e6ff9c91a7834c1ba4fdd244a5e8aa4e537bd38aeae4b073aa90602090a180f35b8251638dfc202b60e01b8152fd5b50903461027d578060031936011261027d5761075d610937565b91602435928315158094036107935761077461099d565b60018060a01b0316845260205282209060ff8019835416911617905580f35b8480fd5b503461027d576107a636610968565b6107b1939193610a19565b6107b9610a37565b8560018060a01b0380941693848252602093600385528188842097169687845285526107ea84898520541015610a5a565b858352600385528783208784528552878320610807858254610aa6565b90558661085e57508180848193825416828215610855575bf115610179577fa921f03ec5892bc5a2db676d49b6d93e3f24c3c63f070cc5b139a317f976a20592939451908152a36001805580f35b506108fc61081f565b9154875163a9059cbb60e01b815291166001600160a01b031681830190815260208101849052959694959394929385908290819060400103818b8b5af190811561027357889161091a575b50156108d95750907fa921f03ec5892bc5a2db676d49b6d93e3f24c3c63f070cc5b139a317f976a205929161016d565b83606492519162461bcd60e51b8352820152601d60248201527f436f6c6c61746572616c206c69717569646174696f6e206661696c65640000006044820152fd5b6109319150853d871161026c5761025e81836109c9565b386108a9565b600435906001600160a01b038216820361094d57565b600080fd5b602435906001600160a01b038216820361094d57565b606090600319011261094d576001600160a01b0390600435828116810361094d5791602435908116810361094d579060443590565b6000546001600160a01b031633036109b157565b60405163118cdaa760e01b8152336004820152602490fd5b90601f8019910116810190811067ffffffffffffffff8211176109eb57604052565b634e487b7160e01b600052604160045260246000fd5b9081602091031261094d5751801515810361094d5790565b60ff60025416610a2557565b60405163d93c066560e01b8152600490fd5b600260015414610a48576002600155565b604051633ee5aeb560e01b8152600490fd5b15610a6157565b60405162461bcd60e51b815260206004820152601e60248201527f496e73756666696369656e74206c6f636b656420636f6c6c61746572616c00006044820152606490fd5b91908203918211610ab357565b634e487b7160e01b600052601160045260246000fdfea2646970667358221220c741bd434f421472b0d65bfbb28c8920ed0d4ea71a6a77927c29f23ae8d2655e64736f6c63430008140033",
  "linkReferences": {},
  "deployedLinkReferences": {}
}