{
  "_format": "hh-sol-artifact-1",
  "contractName": "TrustScore",
  "sourceName": "contracts/TrustScore.sol",
  "abi": [
    {
      "inputs": [
        {
          "internalType": "address",
          "name": "initialOwner",
          "type": "address"
        }
      ],
      "stateMutability": "nonpayable",
      "type": "constructor"
    },
    {
      "inputs": [
        {
          "internalType": "address",
          "name": "owner",
          "type": "address"
        }
      ],
      "name": "OwnableInvalidOwner",
      "type": "error"
    },
    {
      "inputs": [
        {
          "internalType": "address",
          "name": "account",
          "type": "address"
        }
      ],
      "name": "OwnableUnauthorizedAccount",
      "type": "error"
    },
    {
      "inputs": [],
      "name": "ReentrancyGuardReentrantCall",
      "type": "error"
    },
    {
      "anonymous": false,
      "inputs": [
        {
          "indexed": true,
          "internalType": "address",
          "name": "previousOwner",
          "type": "address"
        },
        {
          "indexed": true,
          "internalType": "address",
          "name": "newOwner",
          "type": "address"
        }
      ],
      "name": "OwnershipTransferred",
      "type": "event"
    },
    {
      "anonymous": false,
      "inputs": [
        {
          "indexed": true,
          "internalType": "address",
          "name": "user",
          "type": "address"
        },
        {
          "indexed": false,
          "internalType": "uint256",
          "name": "newScore",
          "type": "uint256"
        },
        {
          "indexed": false,
          "internalType": "uint256",
          "name": "creditHistory",
          "type": "uint256"
        },
        {
          "indexed": false,
          "internalType": "uint256",
          "name": "repaymentRecord",
          "type": "uint256"
        },
        {
          "indexed": false,
          "internalType": "uint256",
          "name": "collateralValue",
          "type": "uint256"
        }
      ],
      "name": "TrustScoreUpdated",
      "type": "event"
    },
    {
      "inputs": [],
      "name": "BASE_SCORE",
      "outputs": [
        {
          "internalType": "uint256",
          "name": "",
          "type": "uint256"
        }
      ],
      "stateMutability": "view",
      "type": "function"
    },
    {
      "inputs": [],
      "name": "MAX_CREDIT_HISTORY",
      "outputs": [
        {
          "internalType": "uint256",
          "name": "",
          "type": "uint256"
        }
      ],
      "stateMutability": "view",
      "type": "function"
    },
    {
      "inputs": [],
      "name": "MAX_REPAYMENT_RECORD",
      "outputs": [
        {
          "internalType": "uint256",
          "name": "",
          "type": "uint256"
        }
      ],
      "stateMutability": "view",
      "type": "function"
    },
    {
      "inputs": [],
      "name": "MAX_TRUST_SCORE",
      "outputs": [
        {
          "internalType": "uint256",
          "name": "",
          "type": "uint256"
        }
      ],
      "stateMutability": "view",
      "type": "function"
    },
    {
      "inputs": [
        {
          "internalType": "address",
          "name": "user",
          "type": "address"
        }
      ],
      "name": "getTrustScore",
      "outputs": [
        {
          "internalType": "uint256",
          "name": "",
          "type": "uint256"
        }
      ],
      "stateMutability": "view",
      "type": "function"
    },
    {
      "inputs": [
        {
          "internalType": "address",
          "name": "user",
          "type": "address"
        }
      ],
      "name": "getTrustScoreData",
      "outputs": [
        {
          "internalType": "uint256",
          "name": "score",
          "type": "uint256"
        },
        {
          "internalType": "uint256",
          "name": "creditHistory",
          "type": "uint256"
        },
        {
          "internalType": "uint256",
          "name": "repaymentRecord",
          "type": "uint256"
        },
        {
          "internalType": "uint256",
          "name": "collateralValue",
          "type": "uint256"
        },
        {
          "internalType": "uint256",
          "name": "lastUpdated",
          "type": "uint256"
        }
      ],
      "stateMutability": "view",
      "type": "function"
    },
    {
      "inputs": [
        {
          "internalType": "address",
          "name": "",
          "type": "address"
        },
        {
          "internalType": "uint256",
          "name": "",
          "type": "uint256"
        }
      ],
      "name": "loanHistory",
      "outputs": [
        {
          "internalType": "uint256",
          "name": "",
          "type": "uint256"
        }
      ],
      "stateMutability": "view",
      "type": "function"
    },
    {
      "inputs": [],
      "name": "owner",
      "outputs": [
        {
          "internalType": "address",
          "name": "",
          "type": "address"
        }
      ],
      "stateMutability": "view",
      "type": "function"
    },
    {
      "inputs": [
        {
          "internalType": "address",
          "name": "user",
          "type": "address"
        },
        {
          "internalType": "bool",
          "name": "repaidOnTime",
          "type": "bool"
        },
        {
          "internalType": "bool",
          "name": "fullyRepaid",
          "type": "bool"
        }
      ],
      "name": "recordLoanCompletion",
      "outputs": [],
      "stateMutability": "nonpayable",
      "type": "function"
    },
    {
      "inputs": [
        {
          "internalType": "address",
          "name": "user",
          "type": "address"
        }
      ],
      "name": "recordLoanDefault",
      "outputs": [],
      "stateMutability": "nonpayable",
      "type": "function"
    },
    {
      "inputs": [],
      "name": "renounceOwnership",
      "outputs": [],
      "stateMutability": "nonpayable",
      "type": "function"
    },
    {
      "inputs": [
        {
          "internalType": "address",
          "name": "newOwner",
          "type": "address"
        }
      ],
      "name": "transferOwnership",
      "outputs": [],
      "stateMutability": "nonpayable",
      "type": "function"
    },
    {
      "inputs": [
        {
          "internalType": "address",
          "name": "",
          "type": "address"
        }
      ],
      "name": "trustScores",
      "outputs": [
        {
          "internalType": "uint256",
          "name": "score",
          "type": "uint256"
        },
        {
          "internalType": "uint256",
          "name": "creditHistory",
          "type": "uint256"
        },
        {
          "internalType": "uint256",
          "name": "repaymentRecord",
          "type": "uint256"
        },
        {
          "internalType": "uint256",
          "name": "collateralValue",
          "type": "uint256"
        },
        {
          "internalType": "uint256",
          "name": "lastUpdated",
          "type": "uint256"
        }
      ],
      "stateMutability": "view",
      "type": "function"
    },
    {
      "inputs": [
        {
          "internalType": "address",
          "name": "user",
          "type": "address"
        },
        {
          "internalType": "uint256",
          "name": "creditHistoryPoints",
          "type": "uint256"
        },
        {
          "internalType": "uint256",
          "name": "repaymentPoints",
          "type": "uint256"
        },
        {
          "internalType": "uint256",
          "name": "collateralValuePoints",
          "type": "uint256"
        }
      ],
      "name": "updateTrustScore",
      "outputs": [],
      "stateMutability": "nonpayable",
      "type": "function"
    }
  ],
  "bytecode": "0x6080346100bf57601f6109bf38819003918201601f19168301916001600160401b038311848410176100c4578084926020946040528339810103126100bf57516001600160a01b0390818116908190036100bf5780156100a657600080546001600160a01b03198116831782556040519316907f8be0079c531659141344cd1fd0a4f28419497f9722a3daafe3b4186f6b6457e09080a3600180556108e490816100db8239f35b604051631e4fbdf760e01b815260006004820152602490fd5b600080fd5b634e487b7160e01b600052604160045260246000fdfe6080604081815260048036101561001557600080fd5b600092833560e01c9081630de4f25c146106c35750806312df0fc41461052b5780631aeb105f146106be5780632822cc8e146106be578063417914d5146105a35780635724f4ae1461052b5780635e09eea1146104f3578063715018a61461049657806374c8d377146104795780637effe5681461045c5780638da5cb5b146104345780639268ffe814610313578063a9b427c9146101465763f2fde38b146100bd57600080fd5b34610142576020366003190112610142576100d661070c565b906100df610743565b6001600160a01b0391821692831561012c57505082546001600160a01b0319811683178455167f8be0079c531659141344cd1fd0a4f28419497f9722a3daafe3b4186f6b6457e08380a380f35b51631e4fbdf760e01b8152908101849052602490fd5b8280fd5b5091903461030f57606036600319011261030f5761016261070c565b9060243591821515830361030b57604435801515810361030757610184610743565b61018c6107f5565b610199575b836001805580f35b60018060a01b031691828452600260205281842091858301918254156102fa575b1561028f576001830180546005810180911161027657606481111561028957506064905b55600283018054600a810180911161027657959650939460008051602061088f833981519152946102649291606481111561027057506064905b555b61022b61022685610792565b610818565b92838555429055600184015493600360028201549101549151948594859094939260609260808301968352602083015260408201520152565b0390a280388080610191565b90610218565b634e487b7160e01b875260118852602487fd5b906101de565b600183018054600281018091116102765760648111156102f457506064905b556002830180546005810180911161027657959650939460008051602061088f83398151915294610264929160648111156102ee57506064905b5561021a565b906102e8565b906102ae565b6101f484554283556101ba565b8480fd5b8380fd5b5080fd5b5091903461030f57602036600319011261030f5761032f61070c565b610337610743565b61033f6107f5565b60018060a01b0316908183526002602052808320906002820191600a8354101560001461042c57825460091981019081116104195783555b6001810180546005116103f7578054600419810190811161027657916003826103ed9460008051602061088f83398151915298999a9694555b6103bc61022684610792565b9586845542908401555495549101549151948594859094939260609260808301968352602083015260408201520152565b0390a26001805580f35b916103ed916003848860008051602061088f83398151915298999a96556103b0565b634e487b7160e01b865260118752602486fd5b848355610377565b50503461030f578160031936011261030f57905490516001600160a01b039091168152602090f35b50503461030f578160031936011261030f57602090516101f48152f35b50503461030f578160031936011261030f57602090516103e88152f35b83346104f057806003193601126104f0576104af610743565b80546001600160a01b03198116825581906001600160a01b03167f8be0079c531659141344cd1fd0a4f28419497f9722a3daafe3b4186f6b6457e08280a380f35b80fd5b50503461030f57602036600319011261030f5760209181906001600160a01b0361051b61070c565b1681526002845220549051908152f35b5091346104f05760203660031901126104f05761059f9082906001600160a01b0361055461070c565b1681526002602052209182549260018101549460028201549060038301549201549251958695869192608093969594919660a084019784526020840152604083015260608201520152565b0390f35b50346101425760803660031901126101425760008051602061088f833981519152906105cd61070c565b926103ed6024359160443595606435906105e5610743565b6105ed6107f5565b60018060a01b0316968789526002602052828920958601948554156106b1575b8061067b575b5080610645575b508061062e575b5061022b61022685610792565b61063d6003860191825461076f565b905538610621565b60028601908154906064610659828461076f565b111561066c5750506064905b553861061a565b6106759161076f565b90610665565b6001870190815490606461068f828461076f565b11156106a25750506064905b5538610613565b6106ab9161076f565b9061069b565b6101f4875542865561060d565b610727565b849084346101425780600319360112610142576106de61070c565b6001600160a01b03168352600360205282208054602435919082101561030b57835260209283902001548152f35b600435906001600160a01b038216820361072257565b600080fd5b3461072257600036600319011261072257602060405160648152f35b6000546001600160a01b0316330361075757565b60405163118cdaa760e01b8152336004820152602490fd5b9190820180921161077c57565b634e487b7160e01b600052601160045260246000fd5b9060405160a0810181811067ffffffffffffffff8211176107df57604052608060048294805484526001810154602085015260028101546040850152600381015460608501520154910152565b634e487b7160e01b600052604160045260246000fd5b600260015414610806576002600155565b604051633ee5aeb560e01b8152600490fd5b60208101519060038202918083046003149015171561077c576101f491820180921161077c576040810151918260011b928084046002149015171561077c57606061086f61087994670de0b6b3a76400009361076f565b920151049061076f565b6103e89081811115610889575090565b90509056fe7d8d89116e982d341b4884970594df5c66bfb5d4e82b7e703df4303e4b3e0135a2646970667358221220bb384f265b3ffde7b5e3b44a5bea93a06d87b59f4d8bc838ed899db165fc21a464736f6c63430008140033",
  "linkReferences": {},
  "deployedLinkReferences": {}
}