{
  "_format": "hh-sol-artifact-1",
  "contractName": "CollateralVault",
  "sourceName": "evm/contracts/core/CollateralVault.sol",
  "abi": [
    {
      "inputs": [],
      "stateMutability": "nonpayable",
      "type": "constructor"
    },
    {
      "inputs": [
        {
          "internalType": "address",
          "name": "owner",
          "type": "address"
        }
      ],
      "name": "OwnableInvalidOwner",
      "type": "error"
    },
    {
      "inputs": [
        {
          "internalType": "address",
          "name": "account",
          "type": "address"
        }
      ],
      "name": "OwnableUnauthorizedAccount",
      "type": "error"
    },
    {
      "inputs": [],
      "name": "ReentrancyGuardReentrantCall",
      "type": "error"
    },
    {
      "anonymous": false,
      "inputs": [
        {
          "indexed": true,
          "internalType": "uint256",
          "name": "collateralId",
          "type": "uint256"
        },
        {
          "indexed": true,
          "internalType": "address",
          "name": "owner",
          "type": "address"
        },
        {
          "indexed": false,
          "internalType": "address",
          "name": "token",
          "type": "address"
        },
        {
          "indexed": false,
          "internalType": "uint256",
          "name": "amount",
          "type": "uint256"
        },
        {
          "indexed": false,
          "internalType": "uint256",
          "name": "loanId",
          "type": "uint256"
        }
      ],
      "name": "CollateralLocked",
      "type": "event"
    },
    {
      "anonymous": false,
      "inputs": [
        {
          "indexed": true,
          "internalType": "uint256",
          "name": "collateralId",
          "type": "uint256"
        }
      ],
      "name": "CollateralUnlocked",
      "type": "event"
    },
    {
      "anonymous": false,
      "inputs": [
        {
          "indexed": true,
          "internalType": "address",
          "name": "previousOwner",
          "type": "address"
        },
        {
          "indexed": true,
          "internalType": "address",
          "name": "newOwner",
          "type": "address"
        }
      ],
      "name": "OwnershipTransferred",
      "type": "event"
    },
    {
      "inputs": [
        {
          "internalType": "uint256",
          "name": "",
          "type": "uint256"
        }
      ],
      "name": "collaterals",
      "outputs": [
        {
          "internalType": "address",
          "name": "owner",
          "type": "address"
        },
        {
          "internalType": "address",
          "name": "token",
          "type": "address"
        },
        {
          "internalType": "uint256",
          "name": "amount",
          "type": "uint256"
        },
        {
          "internalType": "uint256",
          "name": "loanId",
          "type": "uint256"
        },
        {
          "internalType": "bool",
          "name": "locked",
          "type": "bool"
        }
      ],
      "stateMutability": "view",
      "type": "function"
    },
    {
      "inputs": [
        {
          "internalType": "uint256",
          "name": "collateralId",
          "type": "uint256"
        }
      ],
      "name": "getCollateralValue",
      "outputs": [
        {
          "internalType": "uint256",
          "name": "",
          "type": "uint256"
        }
      ],
      "stateMutability": "view",
      "type": "function"
    },
    {
      "inputs": [],
      "name": "loanCore",
      "outputs": [
        {
          "internalType": "address",
          "name": "",
          "type": "address"
        }
      ],
      "stateMutability": "view",
      "type": "function"
    },
    {
      "inputs": [
        {
          "internalType": "address",
          "name": "token",
          "type": "address"
        },
        {
          "internalType": "uint256",
          "name": "amount",
          "type": "uint256"
        },
        {
          "internalType": "uint256",
          "name": "loanId",
          "type": "uint256"
        }
      ],
      "name": "lockCollateral",
      "outputs": [
        {
          "internalType": "uint256",
          "name": "",
          "type": "uint256"
        }
      ],
      "stateMutability": "nonpayable",
      "type": "function"
    },
    {
      "inputs": [
        {
          "internalType": "address",
          "name": "owner",
          "type": "address"
        },
        {
          "internalType": "address",
          "name": "token",
          "type": "address"
        },
        {
          "internalType": "uint256",
          "name": "amount",
          "type": "uint256"
        },
        {
          "internalType": "uint256",
          "name": "loanId",
          "type": "uint256"
        }
      ],
      "name": "lockCollateralFor",
      "outputs": [
        {
          "internalType": "uint256",
          "name": "",
          "type": "uint256"
        }
      ],
      "stateMutability": "nonpayable",
      "type": "function"
    },
    {
      "inputs": [],
      "name": "owner",
      "outputs": [
        {
          "internalType": "address",
          "name": "",
          "type": "address"
        }
      ],
      "stateMutability": "view",
      "type": "function"
    },
    {
      "inputs": [],
      "name": "renounceOwnership",
      "outputs": [],
      "stateMutability": "nonpayable",
      "type": "function"
    },
    {
      "inputs": [
        {
          "internalType": "address",
          "name": "_loanCore",
          "type": "address"
        }
      ],
      "name": "setLoanCore",
      "outputs": [],
      "stateMutability": "nonpayable",
      "type": "function"
    },
    {
      "inputs": [
        {
          "internalType": "address",
          "name": "newOwner",
          "type": "address"
        }
      ],
      "name": "transferOwnership",
      "outputs": [],
      "stateMutability": "nonpayable",
      "type": "function"
    },
    {
      "inputs": [
        {
          "internalType": "uint256",
          "name": "collateralId",
          "type": "uint256"
        }
      ],
      "name": "unlockCollateral",
      "outputs": [],
      "stateMutability": "nonpayable",
      "type": "function"
    },
    {
      "inputs": [
        {
          "internalType": "address",
          "name": "",
          "type": "address"
        }
      ],
      "name": "userNonce",
      "outputs": [
        {
          "internalType": "uint256",
          "name": "",
          "type": "uint256"
        }
      ],
      "stateMutability": "view",
      "type": "function"
    },
    {
      "inputs": [
        {
          "internalType": "address",
          "name": "",
          "type": "address"
        },
        {
          "internalType": "address",
          "name": "",
          "type": "address"
        }
      ],
      "name": "userTokenBalance",
      "outputs": [
        {
          "internalType": "uint256",
          "name": "",
          "type": "uint256"
        }
      ],
      "stateMutability": "view",
      "type": "function"
    }
  ],
  "bytecode": "0x608060405234801561001057600080fd5b50338061003757604051631e4fbdf760e01b81526000600482015260240160405180910390fd5b6100408161004a565b506001805561009a565b600080546001600160a01b038381166001600160a01b0319831681178455604051919092169283917f8be0079c531659141344cd1fd0a4f28419497f9722a3daafe3b4186f6b6457e09190a35050565b610a06806100a96000396000f3fe608060405234801561001057600080fd5b50600436106100b45760003560e01c8063715018a611610071578063715018a6146101d457806382fee08f146101dc5780638da5cb5b14610200578063b47064c814610211578063cacbe5461461023c578063f2fde38b1461024f57600080fd5b80630fcc834e146100b95780631691f706146100ce57806324c1173b146100f45780632692f36d146101765780632e04b8e7146101a1578063522d26a2146101c1575b600080fd5b6100cc6100c736600461085b565b610262565b005b6100e16100dc366004610890565b61043f565b6040519081526020015b60405180910390f35b61014161010236600461085b565b6002602081905260009182526040909120805460018201549282015460038301546004909301546001600160a01b039283169490921692909160ff1685565b604080516001600160a01b0396871681529590941660208601529284019190915260608301521515608082015260a0016100eb565b600554610189906001600160a01b031681565b6040516001600160a01b0390911681526020016100eb565b6100e16101af3660046108c3565b60046020526000908152604090205481565b6100cc6101cf3660046108c3565b610467565b6100cc610491565b6100e16101ea36600461085b565b6000908152600260208190526040909120015490565b6000546001600160a01b0316610189565b6100e161021f3660046108de565b600360209081526000928352604080842090915290825290205481565b6100e161024a366004610911565b6104a5565b6100cc61025d3660046108c3565b610779565b61026a6107b4565b6000818152600260205260409020600481015460ff166102c45760405162461bcd60e51b815260206004820152601060248201526f105b1c9958591e481d5b9b1bd8dad95960821b60448201526064015b60405180910390fd5b80546001600160a01b03163314806102e657506005546001600160a01b031633145b6103325760405162461bcd60e51b815260206004820152601860248201527f4e6f7420617574686f72697a656420746f20756e6c6f636b000000000000000060448201526064016102bb565b60048101805460ff19169055600281015481546001600160a01b039081166000908152600360209081526040808320600187015490941683529290529081208054909190610381908490610969565b909155505060018101548154600283015460405163a9059cbb60e01b81526001600160a01b039283166004820152602481019190915291169063a9059cbb906044016020604051808303816000875af11580156103e2573d6000803e3d6000fd5b505050506040513d601f19601f820116820180604052508101906104069190610982565b5060405182907f16bff137dc9a751d3af96d5df7f9066925d7a7e669ec46ebf86326aea0696e1890600090a25061043c60018055565b50565b60006104496107b4565b610455338585856104a5565b905061046060018055565b9392505050565b61046f6107de565b600580546001600160a01b0319166001600160a01b0392909216919091179055565b6104996107de565b6104a3600061080b565b565b60006104af6107b4565b600083116104f45760405162461bcd60e51b81526020600482015260126024820152710416d6f756e74206d757374206265203e20360741b60448201526064016102bb565b6005546001600160a01b03163314806105155750336001600160a01b038616145b6105525760405162461bcd60e51b815260206004820152600e60248201526d139bdd08185d5d1a1bdc9a5e995960921b60448201526064016102bb565b6040516323b872dd60e01b81526001600160a01b038681166004830152306024830152604482018590528516906323b872dd906064016020604051808303816000875af11580156105a7573d6000803e3d6000fd5b505050506040513d601f19601f820116820180604052508101906105cb9190610982565b506001600160a01b0385166000908152600460205260408120805490826105f1836109a4565b909155506040516bffffffffffffffffffffffff19606089811b8216602084015288901b166034820152604881018690524260688201526088810182905290915060009060a80160408051601f19818403018152828252805160209182012060a0840183526001600160a01b03808c168086528b82168685018181528787018d8152606089018d8152600160808b0181815260008981526002808c528c82209d518e54908b166001600160a01b0319918216178f559651938e01805494909a1693909616929092179097559151928a019290925590516003808a019190915593516004909801805498151560ff199099169890981790975590865290835283852090855290915290822080549193508792909161070f9084906109bd565b9091555050604080516001600160a01b038881168252602082018890529181018690529088169082907f7c9e3dd33affc36306d56576c3879e849f3f8c1919bd182786d96482c00694809060600160405180910390a391505061077160018055565b949350505050565b6107816107de565b6001600160a01b0381166107ab57604051631e4fbdf760e01b8152600060048201526024016102bb565b61043c8161080b565b6002600154036107d757604051633ee5aeb560e01b815260040160405180910390fd5b6002600155565b6000546001600160a01b031633146104a35760405163118cdaa760e01b81523360048201526024016102bb565b600080546001600160a01b038381166001600160a01b0319831681178455604051919092169283917f8be0079c531659141344cd1fd0a4f28419497f9722a3daafe3b4186f6b6457e09190a35050565b60006020828403121561086d57600080fd5b5035919050565b80356001600160a01b038116811461088b57600080fd5b919050565b6000806000606084860312156108a557600080fd5b6108ae84610874565b95602085013595506040909401359392505050565b6000602082840312156108d557600080fd5b61046082610874565b600080604083850312156108f157600080fd5b6108fa83610874565b915061090860208401610874565b90509250929050565b6000806000806080858703121561092757600080fd5b61093085610874565b935061093e60208601610874565b93969395505050506040820135916060013590565b634e487b7160e01b600052601160045260246000fd5b8181038181111561097c5761097c610953565b92915050565b60006020828403121561099457600080fd5b8151801515811461046057600080fd5b6000600182016109b6576109b6610953565b5060010190565b8082018082111561097c5761097c61095356fea2646970667358221220d431797bcbd378eacbe6e78d3394ca4fe118fc8c943249f92d1fed5933dd9ad664736f6c63430008140033",
  "linkReferences": {},
  "deployedLinkReferences": {}
}