{
  "_format": "hh-sol-artifact-1",
  "contractName": "LoanPlatform",
  "sourceName": "contracts/LoanPlatform.sol",
  "abi": [
    {
      "inputs": [
        {
          "internalType": "address",
          "name": "_trustScoreAddress",
          "type": "address"
        },
        {
          "internalType": "address",
          "name": "_collateralManagerAddress",
          "type": "address"
        },
        {
          "internalType": "address",
          "name": "_interestRateModelAddress",
          "type": "address"
        }
      ],
      "stateMutability": "nonpayable",
      "type": "constructor"
    },
    {
      "inputs": [],
      "name": "EnforcedPause",
      "type": "error"
    },
    {
      "inputs": [],
      "name": "ExpectedPause",
      "type": "error"
    },
    {
      "inputs": [
        {
          "internalType": "address",
          "name": "owner",
          "type": "address"
        }
      ],
      "name": "OwnableInvalidOwner",
      "type": "error"
    },
    {
      "inputs": [
        {
          "internalType": "address",
          "name": "account",
          "type": "address"
        }
      ],
      "name": "OwnableUnauthorizedAccount",
      "type": "error"
    },
    {
      "inputs": [],
      "name": "ReentrancyGuardReentrantCall",
      "type": "error"
    },
    {
      "anonymous": false,
      "inputs": [
        {
          "indexed": true,
          "internalType": "uint256",
          "name": "loanId",
          "type": "uint256"
        },
        {
          "indexed": true,
          "internalType": "address",
          "name": "borrower",
          "type": "address"
        },
        {
          "indexed": false,
          "internalType": "uint256",
          "name": "amount",
          "type": "uint256"
        },
        {
          "indexed": false,
          "internalType": "uint256",
          "name": "interestRateBps",
          "type": "uint256"
        },
        {
          "indexed": false,
          "internalType": "uint256",
          "name": "dueDate",
          "type": "uint256"
        },
        {
          "indexed": false,
          "internalType": "string",
          "name": "purpose",
          "type": "string"
        }
      ],
      "name": "LoanCreated",
      "type": "event"
    },
    {
      "anonymous": false,
      "inputs": [
        {
          "indexed": true,
          "internalType": "uint256",
          "name": "loanId",
          "type": "uint256"
        },
        {
          "indexed": true,
          "internalType": "address",
          "name": "borrower",
          "type": "address"
        },
        {
          "indexed": false,
          "internalType": "uint256",
          "name": "remainingAmount",
          "type": "uint256"
        }
      ],
      "name": "LoanDefaulted",
      "type": "event"
    },
    {
      "anonymous": false,
      "inputs": [
        {
          "indexed": true,
          "internalType": "uint256",
          "name": "loanId",
          "type": "uint256"
        },
        {
          "indexed": true,
          "internalType": "address",
          "name": "borrower",
          "type": "address"
        },
        {
          "indexed": false,
          "internalType": "uint256",
          "name": "principalPaid",
          "type": "uint256"
        },
        {
          "indexed": false,
          "internalType": "uint256",
          "name": "interestPaid",
          "type": "uint256"
        },
        {
          "indexed": false,
          "internalType": "uint256",
          "name": "lateFeePaid",
          "type": "uint256"
        },
        {
          "indexed": false,
          "internalType": "bool",
          "name": "fullyRepaid",
          "type": "bool"
        }
      ],
      "name": "LoanRepaid",
      "type": "event"
    },
    {
      "anonymous": false,
      "inputs": [
        {
          "indexed": true,
          "internalType": "address",
          "name": "previousOwner",
          "type": "address"
        },
        {
          "indexed": true,
          "internalType": "address",
          "name": "newOwner",
          "type": "address"
        }
      ],
      "name": "OwnershipTransferred",
      "type": "event"
    },
    {
      "anonymous": false,
      "inputs": [
        {
          "indexed": false,
          "internalType": "address",
          "name": "account",
          "type": "address"
        }
      ],
      "name": "Paused",
      "type": "event"
    },
    {
      "anonymous": false,
      "inputs": [
        {
          "indexed": true,
          "internalType": "uint256",
          "name": "loanId",
          "type": "uint256"
        },
        {
          "indexed": true,
          "internalType": "address",
          "name": "borrower",
          "type": "address"
        },
        {
          "indexed": false,
          "internalType": "uint256",
          "name": "amount",
          "type": "uint256"
        },
        {
          "indexed": false,
          "internalType": "uint256",
          "name": "lateFeePayment",
          "type": "uint256"
        },
        {
          "indexed": false,
          "internalType": "uint256",
          "name": "interestPayment",
          "type": "uint256"
        },
        {
          "indexed": false,
          "internalType": "uint256",
          "name": "principalPayment",
          "type": "uint256"
        },
        {
          "indexed": false,
          "internalType": "bool",
          "name": "loanClosed",
          "type": "bool"
        }
      ],
      "name": "RepaymentApplied",
      "type": "event"
    },
    {
      "anonymous": false,
      "inputs": [
        {
          "indexed": false,
          "internalType": "address",
          "name": "account",
          "type": "address"
        }
      ],
      "name": "Unpaused",
      "type": "event"
    },
    {
      "inputs": [],
      "name": "GRACE_PERIOD",
      "outputs": [
        {
          "internalType": "uint256",
          "name": "",
          "type": "uint256"
        }
      ],
      "stateMutability": "view",
      "type": "function"
    },
    {
      "inputs": [],
      "name": "LATE_FEE_BPS",
      "outputs": [
        {
          "internalType": "uint256",
          "name": "",
          "type": "uint256"
        }
      ],
      "stateMutability": "view",
      "type": "function"
    },
    {
      "inputs": [],
      "name": "MAX_LATE_FEE_BPS",
      "outputs": [
        {
          "internalType": "uint256",
          "name": "",
          "type": "uint256"
        }
      ],
      "stateMutability": "view",
      "type": "function"
    },
    {
      "inputs": [
        {
          "internalType": "address",
          "name": "",
          "type": "address"
        },
        {
          "internalType": "uint256",
          "name": "",
          "type": "uint256"
        }
      ],
      "name": "borrowerLoans",
      "outputs": [
        {
          "internalType": "uint256",
          "name": "",
          "type": "uint256"
        }
      ],
      "stateMutability": "view",
      "type": "function"
    },
    {
      "inputs": [
        {
          "internalType": "uint256",
          "name": "loanId",
          "type": "uint256"
        }
      ],
      "name": "calculateRepaymentAmount",
      "outputs": [
        {
          "internalType": "uint256",
          "name": "totalPayable",
          "type": "uint256"
        },
        {
          "internalType": "uint256",
          "name": "lateFee",
          "type": "uint256"
        },
        {
          "internalType": "uint256",
          "name": "interestAccrued",
          "type": "uint256"
        },
        {
          "internalType": "uint256",
          "name": "principalRemaining",
          "type": "uint256"
        }
      ],
      "stateMutability": "view",
      "type": "function"
    },
    {
      "inputs": [],
      "name": "collateralManager",
      "outputs": [
        {
          "internalType": "contract CollateralManager",
          "name": "",
          "type": "address"
        }
      ],
      "stateMutability": "view",
      "type": "function"
    },
    {
      "inputs": [
        {
          "internalType": "uint256",
          "name": "amount",
          "type": "uint256"
        },
        {
          "internalType": "uint256",
          "name": "duration",
          "type": "uint256"
        },
        {
          "internalType": "address",
          "name": "collateralToken",
          "type": "address"
        },
        {
          "internalType": "uint256",
          "name": "collateralAmount",
          "type": "uint256"
        },
        {
          "internalType": "string",
          "name": "purpose",
          "type": "string"
        }
      ],
      "name": "createLoan",
      "outputs": [
        {
          "internalType": "uint256",
          "name": "",
          "type": "uint256"
        }
      ],
      "stateMutability": "nonpayable",
      "type": "function"
    },
    {
      "inputs": [
        {
          "internalType": "uint256",
          "name": "loanId",
          "type": "uint256"
        }
      ],
      "name": "getLoanDetails",
      "outputs": [
        {
          "internalType": "address",
          "name": "borrower",
          "type": "address"
        },
        {
          "internalType": "uint256",
          "name": "principalAmount",
          "type": "uint256"
        },
        {
          "internalType": "uint256",
          "name": "remainingPrincipal",
          "type": "uint256"
        },
        {
          "internalType": "uint256",
          "name": "interestAccrued",
          "type": "uint256"
        },
        {
          "internalType": "uint256",
          "name": "lateFee",
          "type": "uint256"
        },
        {
          "internalType": "uint256",
          "name": "dueDate",
          "type": "uint256"
        },
        {
          "internalType": "bool",
          "name": "isOverdue",
          "type": "bool"
        },
        {
          "internalType": "enum LoanPlatform.LoanStatus",
          "name": "status",
          "type": "uint8"
        },
        {
          "internalType": "address",
          "name": "collateralToken",
          "type": "address"
        }
      ],
      "stateMutability": "view",
      "type": "function"
    },
    {
      "inputs": [
        {
          "internalType": "uint256",
          "name": "loanId",
          "type": "uint256"
        }
      ],
      "name": "getMaxLateFee",
      "outputs": [
        {
          "internalType": "uint256",
          "name": "",
          "type": "uint256"
        }
      ],
      "stateMutability": "view",
      "type": "function"
    },
    {
      "inputs": [],
      "name": "interestRateModel",
      "outputs": [
        {
          "internalType": "contract InterestRateModel",
          "name": "",
          "type": "address"
        }
      ],
      "stateMutability": "view",
      "type": "function"
    },
    {
      "inputs": [
        {
          "internalType": "uint256",
          "name": "loanId",
          "type": "uint256"
        }
      ],
      "name": "isLoanOverdue",
      "outputs": [
        {
          "internalType": "bool",
          "name": "",
          "type": "bool"
        }
      ],
      "stateMutability": "view",
      "type": "function"
    },
    {
      "inputs": [
        {
          "internalType": "uint256",
          "name": "loanId",
          "type": "uint256"
        }
      ],
      "name": "liquidateLoan",
      "outputs": [],
      "stateMutability": "nonpayable",
      "type": "function"
    },
    {
      "inputs": [
        {
          "internalType": "uint256",
          "name": "",
          "type": "uint256"
        }
      ],
      "name": "loans",
      "outputs": [
        {
          "internalType": "uint256",
          "name": "id",
          "type": "uint256"
        },
        {
          "internalType": "address",
          "name": "borrower",
          "type": "address"
        },
        {
          "internalType": "uint256",
          "name": "principalAmount",
          "type": "uint256"
        },
        {
          "internalType": "uint256",
          "name": "remainingPrincipal",
          "type": "uint256"
        },
        {
          "internalType": "uint256",
          "name": "interestAccrued",
          "type": "uint256"
        },
        {
          "internalType": "uint256",
          "name": "lateFee",
          "type": "uint256"
        },
        {
          "internalType": "uint256",
          "name": "interestRateBps",
          "type": "uint256"
        },
        {
          "internalType": "uint256",
          "name": "createdAt",
          "type": "uint256"
        },
        {
          "internalType": "uint256",
          "name": "dueDate",
          "type": "uint256"
        },
        {
          "internalType": "enum LoanPlatform.LoanStatus",
          "name": "status",
          "type": "uint8"
        },
        {
          "internalType": "address",
          "name": "collateralToken",
          "type": "address"
        },
        {
          "internalType": "uint256",
          "name": "collateralAmount",
          "type": "uint256"
        }
      ],
      "stateMutability": "view",
      "type": "function"
    },
    {
      "inputs": [],
      "name": "owner",
      "outputs": [
        {
          "internalType": "address",
          "name": "",
          "type": "address"
        }
      ],
      "stateMutability": "view",
      "type": "function"
    },
    {
      "inputs": [],
      "name": "pause",
      "outputs": [],
      "stateMutability": "nonpayable",
      "type": "function"
    },
    {
      "inputs": [],
      "name": "paused",
      "outputs": [
        {
          "internalType": "bool",
          "name": "",
          "type": "bool"
        }
      ],
      "stateMutability": "view",
      "type": "function"
    },
    {
      "inputs": [],
      "name": "renounceOwnership",
      "outputs": [],
      "stateMutability": "nonpayable",
      "type": "function"
    },
    {
      "inputs": [
        {
          "internalType": "uint256",
          "name": "loanId",
          "type": "uint256"
        },
        {
          "internalType": "uint256",
          "name": "amount",
          "type": "uint256"
        }
      ],
      "name": "repayLoan",
      "outputs": [],
      "stateMutability": "payable",
      "type": "function"
    },
    {
      "inputs": [
        {
          "internalType": "uint256",
          "name": "loanId",
          "type": "uint256"
        }
      ],
      "name": "repayLoanFull",
      "outputs": [],
      "stateMutability": "payable",
      "type": "function"
    },
    {
      "inputs": [
        {
          "internalType": "uint256",
          "name": "",
          "type": "uint256"
        },
        {
          "internalType": "uint256",
          "name": "",
          "type": "uint256"
        }
      ],
      "name": "repaymentSchedules",
      "outputs": [
        {
          "internalType": "uint256",
          "name": "paymentNumber",
          "type": "uint256"
        },
        {
          "internalType": "uint256",
          "name": "dueDate",
          "type": "uint256"
        },
        {
          "internalType": "uint256",
          "name": "amount",
          "type": "uint256"
        },
        {
          "internalType": "uint256",
          "name": "principal",
          "type": "uint256"
        },
        {
          "internalType": "uint256",
          "name": "interest",
          "type": "uint256"
        },
        {
          "internalType": "enum LoanPlatform.RepaymentStatus",
          "name": "status",
          "type": "uint8"
        },
        {
          "internalType": "uint256",
          "name": "paidDate",
          "type": "uint256"
        }
      ],
      "stateMutability": "view",
      "type": "function"
    },
    {
      "inputs": [],
      "name": "totalAmountLent",
      "outputs": [
        {
          "internalType": "uint256",
          "name": "",
          "type": "uint256"
        }
      ],
      "stateMutability": "view",
      "type": "function"
    },
    {
      "inputs": [],
      "name": "totalDefaulted",
      "outputs": [
        {
          "internalType": "uint256",
          "name": "",
          "type": "uint256"
        }
      ],
      "stateMutability": "view",
      "type": "function"
    },
    {
      "inputs": [],
      "name": "totalLoansIssued",
      "outputs": [
        {
          "internalType": "uint256",
          "name": "",
          "type": "uint256"
        }
      ],
      "stateMutability": "view",
      "type": "function"
    },
    {
      "inputs": [],
      "name": "totalRepaid",
      "outputs": [
        {
          "internalType": "uint256",
          "name": "",
          "type": "uint256"
        }
      ],
      "stateMutability": "view",
      "type": "function"
    },
    {
      "inputs": [
        {
          "internalType": "address",
          "name": "newOwner",
          "type": "address"
        }
      ],
      "name": "transferOwnership",
      "outputs": [],
      "stateMutability": "nonpayable",
      "type": "function"
    },
    {
      "inputs": [],
      "name": "trustScore",
      "outputs": [
        {
          "internalType": "contract TrustScore",
          "name": "",
          "type": "address"
        }
      ],
      "stateMutability": "view",
      "type": "function"
    },
    {
      "inputs": [],
      "name": "unpause",
      "outputs": [],
      "stateMutability": "nonpayable",
      "type": "function"
    }
  ],
  "bytecode": "0x6080346200010d57601f62001ce438819003918201601f19168301916001600160401b0383118484101762000112578084926060946040528339810103126200010d576200004d8162000128565b620000696040620000616020850162000128565b930162000128565b903315620000f457600080546001600160a01b03198082163390811784556040519691956001600160a01b039590948694859391908416907f8be0079c531659141344cd1fd0a4f28419497f9722a3daafe3b4186f6b6457e09080a360018055168560045416176004551683600554161760055516906006541617600655611ba690816200013e8239f35b604051631e4fbdf760e01b815260006004820152602490fd5b600080fd5b634e487b7160e01b600052604160045260246000fd5b51906001600160a01b03821682036200010d5756fe608080604052600436101561001357600080fd5b600090813560e01c90816323be345c14611708575080633078d998146116df5780633b498602146116b05780633f4ba83a14611645578063562fbdff146116275780635c975abb1461160457806366877b8d1461156c5780636c22f60b146114ed578063715018a614611493578063733330c014610cb3578063791d000f146105db5780638456cb5914610c585780638a700b531461093e5780638d461c89146109205780638da5cb5b146108f95780639a11e339146105fe578063a72dad05146105e0578063a8c93057146105db578063b119723914610573578063c1a287e214610555578063c7959d0414610537578063ccdd9f5d1461036f578063e1ec3c68146102b7578063e3ed190214610261578063f2fde38b146101d1578063f3fdb15a146101a85763fe9f62411461014a57600080fd5b346101a55760203660031901126101a557600435815260076020526002604082200154906103e8918281029281840414901517156101915760208261271060405191048152f35b634e487b7160e01b81526011600452602490fd5b80fd5b50346101a557806003193601126101a5576006546040516001600160a01b039091168152602090f35b50346101a55760203660031901126101a5576101eb61176b565b6101f3611802565b6001600160a01b0390811690811561024857600054826bffffffffffffffffffffffff60a01b821617600055167f8be0079c531659141344cd1fd0a4f28419497f9722a3daafe3b4186f6b6457e0600080a380f35b604051631e4fbdf760e01b815260048101849052602490fd5b50346101a55760403660031901126101a55761027b61176b565b6001600160a01b03168152600860205260408120805460243592908310156101a55760206102a984846117d4565b90546040519160031b1c8152f35b50346101a55760203660031901126101a557604061018091600435815260076020522080549060018060a01b0380600183015416916002810154600382015460048301546005840154600685015491600786015493600887015495600a6009890154980154996040519b8c5260208c015260408b015260608a0152608089015260a088015260c087015260e086015261010085015261035d610120850160ff831661172d565b60081c16610140830152610160820152f35b50346101a55760203660031901126101a55760043561038c611891565b808252600760205260408220906009820160ff81541660058110156105235760016103b791146118b4565b6103c082611983565b60088301546203f480810180911161050f574211156104be57600360ff198254161781556103ef600d5461182e565b600d5560018060a01b0384816005541660018601938380865416915460081c1691600a88015490803b156104af5760405162254dc960e21b81526001600160a01b039384166004820152939092166024840152604483015282908290606490829084905af180156104b35761049b575b505060036020917f2d6de712d035bfecc1593860af7eae0831e978cab3cd96f778478b1fdc443bc3935416940154604051908152a36001805580f35b6104a490611781565b6104af57843861045f565b8480fd5b6040513d84823e3d90fd5b60405162461bcd60e51b8152602060048201526024808201527f4c6f616e206e6f7420796574206f76657264756520666f72206c6971756964616044820152633a34b7b760e11b6064820152608490fd5b634e487b7160e01b85526011600452602485fd5b634e487b7160e01b85526021600452602485fd5b50346101a557806003193601126101a5576020600a54604051908152f35b50346101a557806003193601126101a55760206040516203f4808152f35b50346101a55760203660031901126101a5576080906040600435918281526007602052209060036105ac6105a6836119d8565b92611a19565b920154906105c3836105be8385611853565b611853565b92604051938452602084015260408301526060820152f35b6117b7565b50346101a557806003193601126101a5576020600c54604051908152f35b5060203660031901126101a557610613611891565b600435815260076020526040812060ff60098201541660058110156108e557600161063e91146118b4565b61065560018060a01b0360018301541633146118f2565b610660600435611983565b61066b600435611a9f565b808392849385936005830154801515806108dc575b6108ae575b506004830154801515806108a5575b610878575b5060038301548015158061086f575b610837575b506106b8901561193e565b85600383015415928361082a575b8361081d575b83610787575b5050826107027f31c7916ff5e143d6ae3c61eafd78b081fb183ee46b1a05fbb70daf303343fa0794600c54611853565b600c55604080519182526020820183905281018690526060810185905282151560808201523390600435907faf43b8b8625acf3814cab229fa6d775f7bf519692f230945a7818a5cfc995fb29060a090a360408051948552602085019590955293830193909352911515606082015233916004359180608081015b0390a36001805580f35b60098101805460ff1916600217908190556005546001830154600a909301546001600160a01b0393841693909116803b156104af5760405163fbd24bbb60e01b81526001600160a01b03948516600482015260089390931c909316602483015260448201529082908290606490829084905af180156104b357156106d25761080e90611781565b6108195785386106d2565b8580fd5b60058101541593506106cc565b60048101541593506106c6565b9094506106b8908086106108665761085b815b610855818099611931565b92611931565b6003850155906106ad565b61085b8661084a565b508115156106a8565b90955080861061089c5761089181610855818099611931565b600484015538610699565b6108918661084a565b50811515610694565b9091508082106108d3576108c8815b610855818095611931565b600584015538610685565b6108c8826108bd565b50811515610680565b634e487b7160e01b83526021600452602483fd5b50346101a557806003193601126101a557546040516001600160a01b039091168152602090f35b50346101a557806003193601126101a5576020600d54604051908152f35b5061094836611750565b90610951611891565b80835260076020526040832060ff600982015416600581101561052357600161097a91146118b4565b61099160018060a01b0360018301541633146118f2565b61099a82611983565b6109a382611a9f565b8311610c135782849085908695600585015480151580610c0a575b610bde575b50600485015480151580610bd5575b610ba7575b50600385015480151580610b9e575b610b6c575b506109f6901561193e565b866003850154159485610b5f575b85610b52575b85610abc575b50507f31c7916ff5e143d6ae3c61eafd78b081fb183ee46b1a05fbb70daf303343fa079381610a4461077d93600c54611853565b600c5560408051918252602082018690528101849052606081018890528115156080820152339087907faf43b8b8625acf3814cab229fa6d775f7bf519692f230945a7818a5cfc995fb29060a090a3604051938493339885926060929594919560808501968552602085015260408401521515910152565b60098101805460ff1916600217908190556005546001830154600a909301546001600160a01b0393841693909116803b156104af5760405163fbd24bbb60e01b81526001600160a01b03948516600482015260089390931c909316602483015260448201529082908290606490829084905af180156104b35715610a1057610b4390611781565b610b4e578638610a10565b8680fd5b6005810154159550610a0a565b6004810154159550610a04565b9096506109f690808810610b9557610b8a815b61085581809b611931565b6003870155906109eb565b610b8a88610b7f565b508115156109e6565b909250808310610bcc57610bc1815b610855818096611931565b6004860155386109d7565b610bc183610bb6565b508115156109d2565b935050828110610c0357825b610bf8846108558185611931565b6005860155386109c3565b8092610bea565b508215156109be565b60405162461bcd60e51b815260206004820152601960248201527f416d6f756e74206578636565647320746f74616c206f776564000000000000006044820152606490fd5b50346101a557806003193601126101a557610c71611802565b610c79611873565b600160ff1960025416176002557f62e78cea01bee320cd4e420270b5ea74000d11b0c9f74754ebdbfc544b05a2586020604051338152a180f35b50346101a55760a03660031901126101a5576044356001600160a01b03811690036101a55760843567ffffffffffffffff811161148f573660238201121561148f5780600401359067ffffffffffffffff821161115257829060405192610d246020601f19601f8401160185611795565b808452366024828401011161148b57806024602093018386013783010152610d4a611873565b610d52611891565b6004351561144657606435156113f057600554604051635c57518960e11b81526001600160a01b03604435811660048301529091169190602081602481865afa9081156112a85784916113b5575b501561137057602491602060018060a01b036004541660405194858092635e09eea160e01b82523360048301525afa80156112a857849061133d575b60065460405163a579678560e01b81526004803590820152602481018390529450602090859060449082906001600160a01b03165afa9384156113325785946112fc575b50610e2d90600435611aeb565b606435106112b757803b156112b35760405163ee82616160e01b8152336004820152604480356001600160a01b031660248301526064803591830191909152909185918391829084905af180156112a857611295575b50610e8f60035461182e565b9182600355610ea060243542611853565b9360405180602081011067ffffffffffffffff60208301111761127f576020810160405281815260405190816101a081011067ffffffffffffffff6101a08401111761127f576101a08201604052858252336020830152600435604083015260043560608301528260808301528260a08301528360c08301524260e083015286610100830152600161012083015260018060a01b036044351661014083015260643561016083015261018082015284825260076020526040822090805182556001820160018060a01b036020830151166bffffffffffffffffffffffff60a01b82541617905560408101516002830155606081015160038301556080810151600483015560a0810151600583015560c0810151600683015560e081015160078301556101008101516008830155610120810151600581101561126b579061018091600984015460ff610100600160a81b0361014085015160081b169216906affffffffffffffffffffff60a81b1617176009840155610160810151600a8401550151805190600160401b821161125757600b83015482600b8501558083106111e5575b506020600b9101920183526020832083925b828410611166575050505033815260086020526040812094855495600160401b87101561115257906110928787959493600160209a0181556117d4565b81549060031b9086821b91600019901b19161790556110b2600a5461182e565b600a556110c3600435600b54611853565b600b5560405192600435845287840152604083015260806060830152835193846080840152815b85811061113b575050907f25245f11c01a8248f86437c8804406956a90129afaa991e689e5bbfa23bd92289160a0858301015260a0813395601f80199101168101030190a360018055604051908152f35b80820188015181850160a0015286945087016110ea565b634e487b7160e01b83526041600452602483fd5b8051805183556020810151600184015560408101516002840155606081015160038401556080810151600484015560a081015160038110156111d15760019260c0600793602093600588019060ff801983541691161790550151600686015501920193019290611055565b634e487b7160e01b87526021600452602487fd5b600781810204810361050f57600783810204830361050f57600b84018552602085208360070281015b8260070282018110611221575050611043565b8060006007925560006001820155600060028201556000600382015560006004820155876005820155600060068201550161120e565b634e487b7160e01b84526041600452602484fd5b634e487b7160e01b84526021600452602484fd5b634e487b7160e01b600052604160045260246000fd5b6112a190939193611781565b9138610e83565b6040513d86823e3d90fd5b8380fd5b60405162461bcd60e51b815260206004820152601760248201527f496e73756666696369656e7420636f6c6c61746572616c0000000000000000006044820152606490fd5b9093506020813d60201161132a575b8161131860209383611795565b810103126104af575192610e2d610e20565b3d915061130b565b6040513d87823e3d90fd5b506020833d602011611368575b8161135760209383611795565b810103126112b35760449251610ddc565b3d915061134a565b60405162461bcd60e51b815260206004820152601d60248201527f556e61636365707461626c6520636f6c6c61746572616c20746f6b656e0000006044820152606490fd5b90506020813d6020116113e8575b816113d060209383611795565b810103126112b3575180151581036112b35738610da0565b3d91506113c3565b60405162461bcd60e51b815260206004820152602860248201527f436f6c6c61746572616c20616d6f756e74206d75737420626520677265617465604482015267072207468616e20360c41b6064820152608490fd5b60405162461bcd60e51b815260206004820152601d60248201527f416d6f756e74206d7573742062652067726561746572207468616e20300000006044820152606490fd5b8280fd5b5080fd5b50346101a557806003193601126101a5576114ac611802565b80546001600160a01b03198116825581906001600160a01b03167f8be0079c531659141344cd1fd0a4f28419497f9722a3daafe3b4186f6b6457e08280a380f35b50346101a5576114fc36611750565b9082526009602052604082209082526020526040812080549060018101549060028101546003820154600483015491600660ff600586015416940154946040519687526020870152604086015260608501526080840152600381101561126b5760e0935060a083015260c0820152f35b50346101a55760203660031901126101a557604061012091600435815260076020522060088101549060018060a01b039081600182015416926002820154916003810154600482015490600960058401549301549460405197885260208801526040870152606086015260808501528060a0850152421160c08401526115f860e0840160ff831661172d565b60081c16610100820152f35b50346101a557806003193601126101a557602060ff600254166040519015158152f35b50346101a557806003193601126101a5576020600b54604051908152f35b50346101a557806003193601126101a55761165e611802565b60025460ff81161561169e5760ff19166002557f5db9ee0a495bf2e6ff9c91a7834c1ba4fdd244a5e8aa4e537bd38aeae4b073aa6020604051338152a180f35b604051638dfc202b60e01b8152600490fd5b50346101a55760203660031901126101a557600860406020926004358152600784522001544211604051908152f35b50346101a557806003193601126101a5576004546040516001600160a01b039091168152602090f35b90503461148f578160031936011261148f576005546001600160a01b03168152602090f35b90600582101561173a5752565b634e487b7160e01b600052602160045260246000fd5b6040906003190112611766576004359060243590565b600080fd5b600435906001600160a01b038216820361176657565b67ffffffffffffffff811161127f57604052565b90601f8019910116810190811067ffffffffffffffff82111761127f57604052565b346117665760003660031901126117665760206040516103e88152f35b80548210156117ec5760005260206000200190600090565b634e487b7160e01b600052603260045260246000fd5b6000546001600160a01b0316330361181657565b60405163118cdaa760e01b8152336004820152602490fd5b600019811461183d5760010190565b634e487b7160e01b600052601160045260246000fd5b9190820180921161183d57565b8181029291811591840414171561183d57565b60ff6002541661187f57565b60405163d93c066560e01b8152600490fd5b6002600154146118a2576002600155565b604051633ee5aeb560e01b8152600490fd5b156118bb57565b60405162461bcd60e51b815260206004820152600f60248201526e4c6f616e206e6f742061637469766560881b6044820152606490fd5b156118f957565b60405162461bcd60e51b815260206004820152601060248201526f2737ba103a3432903137b93937bbb2b960811b6044820152606490fd5b9190820391821161183d57565b1561194557565b60405162461bcd60e51b8152602060048201526016602482015275125b9d985b1a59081c185e5b595b9d08185b5bdd5b9d60521b6044820152606490fd5b806000526007602052604060002060ff600982015416600581101561173a576001036119d4576005906119be6119b8846119d8565b93611a19565b926119ce60048301918254611853565b90550155565b5050565b600052600760205264496cebb800611a156040600020611a106119ff600783015442611931565b916006600282015491015490611860565b611860565b0490565b600090815260076020526040812090600882015480421115611a995762015180611a4560029242611931565b04920154916103e892838102938185041490151715611a8557611a71620493e091612710850494611860565b04905081811115611a80575090565b905090565b634e487b7160e01b82526011600452602482fd5b50905090565b611ae8908060005260076020526105be60406000206005611adf611acb611ac5866119d8565b95611a19565b946105be6003850154600486015490611853565b91015490611853565b90565b906103208110611b10575060788102908082046078149015171561183d576064900490565b6102588110611b34575060828102908082046082149015171561183d576064900490565b61019011611b565760968102908082046096149015171561183d576064900490565b60c881029080820460c8149015171561183d57606490049056fea264697066735822122053fc153498a57dcc03fd3fc0474c538ea093bbc1ec7623b272808da633a681e064736f6c63430008140033",
  "linkReferences": {},
  "deployedLinkReferences": {}
}