{
  "_format": "hh-sol-artifact-1",
  "contractName": "LoanCore",
  "sourceName": "evm/contracts/core/LoanCore.sol",
  "abi": [
    {
      "inputs": [],
      "stateMutability": "nonpayable",
      "type": "constructor"
    },
    {
      "inputs": [
        {
          "internalType": "address",
          "name": "owner",
          "type": "address"
        }
      ],
      "name": "OwnableInvalidOwner",
      "type": "error"
    },
    {
      "inputs": [
        {
          "internalType": "address",
          "name": "account",
          "type": "address"
        }
      ],
      "name": "OwnableUnauthorizedAccount",
      "type": "error"
    },
    {
      "inputs": [],
      "name": "ReentrancyGuardReentrantCall",
      "type": "error"
    },
    {
      "anonymous": false,
      "inputs": [
        {
          "indexed": true,
          "internalType": "uint256",
          "name": "loanId",
          "type": "uint256"
        },
        {
          "indexed": true,
          "internalType": "address",
          "name": "borrower",
          "type": "address"
        },
        {
          "indexed": false,
          "internalType": "uint256",
          "name": "amount",
          "type": "uint256"
        },
        {
          "indexed": false,
          "internalType": "uint256",
          "name": "collateralAmount",
          "type": "uint256"
        }
      ],
      "name": "LoanCreated",
      "type": "event"
    },
    {
      "anonymous": false,
      "inputs": [
        {
          "indexed": true,
          "internalType": "uint256",
          "name": "loanId",
          "type": "uint256"
        }
      ],
      "name": "LoanLiquidated",
      "type": "event"
    },
    {
      "anonymous": false,
      "inputs": [
        {
          "indexed": true,
          "internalType": "uint256",
          "name": "loanId",
          "type": "uint256"
        },
        {
          "indexed": false,
          "internalType": "uint256",
          "name": "amount",
          "type": "uint256"
        }
      ],
      "name": "LoanRepaid",
      "type": "event"
    },
    {
      "anonymous": false,
      "inputs": [
        {
          "indexed": true,
          "internalType": "address",
          "name": "previousOwner",
          "type": "address"
        },
        {
          "indexed": true,
          "internalType": "address",
          "name": "newOwner",
          "type": "address"
        }
      ],
      "name": "OwnershipTransferred",
      "type": "event"
    },
    {
      "inputs": [],
      "name": "LIQUIDATION_THRESHOLD",
      "outputs": [
        {
          "internalType": "uint256",
          "name": "",
          "type": "uint256"
        }
      ],
      "stateMutability": "view",
      "type": "function"
    },
    {
      "inputs": [],
      "name": "collateralVault",
      "outputs": [
        {
          "internalType": "address",
          "name": "",
          "type": "address"
        }
      ],
      "stateMutability": "view",
      "type": "function"
    },
    {
      "inputs": [
        {
          "internalType": "uint256",
          "name": "amount",
          "type": "uint256"
        },
        {
          "internalType": "uint256",
          "name": "collateralAmount",
          "type": "uint256"
        },
        {
          "internalType": "address",
          "name": "collateralToken",
          "type": "address"
        },
        {
          "internalType": "uint256",
          "name": "interestRate",
          "type": "uint256"
        },
        {
          "internalType": "uint256",
          "name": "duration",
          "type": "uint256"
        }
      ],
      "name": "createLoan",
      "outputs": [
        {
          "internalType": "uint256",
          "name": "",
          "type": "uint256"
        }
      ],
      "stateMutability": "nonpayable",
      "type": "function"
    },
    {
      "inputs": [
        {
          "internalType": "uint256",
          "name": "loanId",
          "type": "uint256"
        }
      ],
      "name": "getLoan",
      "outputs": [
        {
          "components": [
            {
              "internalType": "address",
              "name": "borrower",
              "type": "address"
            },
            {
              "internalType": "uint256",
              "name": "amount",
              "type": "uint256"
            },
            {
              "internalType": "uint256",
              "name": "collateralAmount",
              "type": "uint256"
            },
            {
              "internalType": "address",
              "name": "collateralToken",
              "type": "address"
            },
            {
              "internalType": "uint256",
              "name": "collateralId",
              "type": "uint256"
            },
            {
              "internalType": "uint256",
              "name": "interestRate",
              "type": "uint256"
            },
            {
              "internalType": "uint256",
              "name": "startTime",
              "type": "uint256"
            },
            {
              "internalType": "uint256",
              "name": "duration",
              "type": "uint256"
            },
            {
              "internalType": "uint256",
              "name": "outstandingAmount",
              "type": "uint256"
            },
            {
              "internalType": "enum LoanCore.LoanStatus",
              "name": "status",
              "type": "uint8"
            }
          ],
          "internalType": "struct LoanCore.Loan",
          "name": "",
          "type": "tuple"
        }
      ],
      "stateMutability": "view",
      "type": "function"
    },
    {
      "inputs": [
        {
          "internalType": "address",
          "name": "user",
          "type": "address"
        }
      ],
      "name": "getUserLoans",
      "outputs": [
        {
          "internalType": "uint256[]",
          "name": "",
          "type": "uint256[]"
        }
      ],
      "stateMutability": "view",
      "type": "function"
    },
    {
      "inputs": [
        {
          "internalType": "uint256",
          "name": "loanId",
          "type": "uint256"
        }
      ],
      "name": "liquidateLoan",
      "outputs": [],
      "stateMutability": "nonpayable",
      "type": "function"
    },
    {
      "inputs": [],
      "name": "loanCounter",
      "outputs": [
        {
          "internalType": "uint256",
          "name": "",
          "type": "uint256"
        }
      ],
      "stateMutability": "view",
      "type": "function"
    },
    {
      "inputs": [],
      "name": "loanToken",
      "outputs": [
        {
          "internalType": "address",
          "name": "",
          "type": "address"
        }
      ],
      "stateMutability": "view",
      "type": "function"
    },
    {
      "inputs": [
        {
          "internalType": "uint256",
          "name": "",
          "type": "uint256"
        }
      ],
      "name": "loans",
      "outputs": [
        {
          "internalType": "address",
          "name": "borrower",
          "type": "address"
        },
        {
          "internalType": "uint256",
          "name": "amount",
          "type": "uint256"
        },
        {
          "internalType": "uint256",
          "name": "collateralAmount",
          "type": "uint256"
        },
        {
          "internalType": "address",
          "name": "collateralToken",
          "type": "address"
        },
        {
          "internalType": "uint256",
          "name": "collateralId",
          "type": "uint256"
        },
        {
          "internalType": "uint256",
          "name": "interestRate",
          "type": "uint256"
        },
        {
          "internalType": "uint256",
          "name": "startTime",
          "type": "uint256"
        },
        {
          "internalType": "uint256",
          "name": "duration",
          "type": "uint256"
        },
        {
          "internalType": "uint256",
          "name": "outstandingAmount",
          "type": "uint256"
        },
        {
          "internalType": "enum LoanCore.LoanStatus",
          "name": "status",
          "type": "uint8"
        }
      ],
      "stateMutability": "view",
      "type": "function"
    },
    {
      "inputs": [],
      "name": "owner",
      "outputs": [
        {
          "internalType": "address",
          "name": "",
          "type": "address"
        }
      ],
      "stateMutability": "view",
      "type": "function"
    },
    {
      "inputs": [],
      "name": "renounceOwnership",
      "outputs": [],
      "stateMutability": "nonpayable",
      "type": "function"
    },
    {
      "inputs": [
        {
          "internalType": "uint256",
          "name": "loanId",
          "type": "uint256"
        },
        {
          "internalType": "uint256",
          "name": "amount",
          "type": "uint256"
        }
      ],
      "name": "repayLoan",
      "outputs": [],
      "stateMutability": "nonpayable",
      "type": "function"
    },
    {
      "inputs": [
        {
          "internalType": "address",
          "name": "_vault",
          "type": "address"
        }
      ],
      "name": "setCollateralVault",
      "outputs": [],
      "stateMutability": "nonpayable",
      "type": "function"
    },
    {
      "inputs": [
        {
          "internalType": "address",
          "name": "_loanToken",
          "type": "address"
        }
      ],
      "name": "setLoanToken",
      "outputs": [],
      "stateMutability": "nonpayable",
      "type": "function"
    },
    {
      "inputs": [
        {
          "internalType": "address",
          "name": "newOwner",
          "type": "address"
        }
      ],
      "name": "transferOwnership",
      "outputs": [],
      "stateMutability": "nonpayable",
      "type": "function"
    },
    {
      "inputs": [
        {
          "internalType": "address",
          "name": "",
          "type": "address"
        },
        {
          "internalType": "uint256",
          "name": "",
          "type": "uint256"
        }
      ],
      "name": "userLoans",
      "outputs": [
        {
          "internalType": "uint256",
          "name": "",
          "type": "uint256"
        }
      ],
      "stateMutability": "view",
      "type": "function"
    }
  ],
  "bytecode": "0x608060405234801561001057600080fd5b50338061003757604051631e4fbdf760e01b81526000600482015260240160405180910390fd5b6100408161004a565b506001805561009a565b600080546001600160a01b038381166001600160a01b0319831681178455604051919092169283917f8be0079c531659141344cd1fd0a4f28419497f9722a3daafe3b4186f6b6457e09190a35050565b6111dc806100a96000396000f3fe608060405234801561001057600080fd5b50600436106101005760003560e01c80638a700b5311610097578063ccdd9f5d11610066578063ccdd9f5d14610212578063d8bad5bd14610225578063e1ec3c6814610238578063f2fde38b146102be57600080fd5b80638a700b53146101d35780638da5cb5b146101e657806390a8ae9b146101f757806396e8f4cb146101ff57600080fd5b8063504006ca116100d3578063504006ca1461018357806368a806c4146101a3578063715018a6146101b85780638449cc0c146101c057600080fd5b806302bf321f1461010557806306d378171461012e5780630bece79c1461015957806334d9289e1461016c575b600080fd5b610118610113366004610e95565b6102d1565b6040516101259190610eb7565b60405180910390f35b600654610141906001600160a01b031681565b6040516001600160a01b039091168152602001610125565b600554610141906001600160a01b031681565b61017560045481565b604051908152602001610125565b610196610191366004610efb565b61033d565b6040516101259190610f4c565b6101b66101b1366004610e95565b610402565b005b6101b661042c565b6101756101ce366004610fdc565b610440565b6101b66101e1366004611023565b6108d4565b6000546001600160a01b0316610141565b610175607881565b6101b661020d366004610e95565b610bc9565b6101b6610220366004610efb565b610bf3565b610175610233366004611045565b610cee565b6102a8610246366004610efb565b600260208190526000918252604090912080546001820154928201546003830154600484015460058501546006860154600787015460088801546009909801546001600160a01b03978816999896979095169593949293919290919060ff168a565b6040516101259a9998979695949392919061106f565b6101b66102cc366004610e95565b610d1f565b6001600160a01b03811660009081526003602090815260409182902080548351818402810184019094528084526060939283018282801561033157602002820191906000526020600020905b81548152602001906001019080831161031d575b50505050509050919050565b610345610e04565b60008281526002602081815260409283902083516101408101855281546001600160a01b039081168252600183015493820193909352928101549383019390935260038301541660608201526004808301546080830152600583015460a0830152600683015460c0830152600783015460e08301526008830154610100830152600983015491929161012084019160ff909116908111156103e8576103e8610f14565b60048111156103f9576103f9610f14565b90525092915050565b61040a610d5d565b600580546001600160a01b0319166001600160a01b0392909216919091179055565b610434610d5d565b61043e6000610d8a565b565b600061044a610dda565b600086116104945760405162461bcd60e51b81526020600482015260126024820152710416d6f756e74206d757374206265203e20360741b60448201526064015b60405180910390fd5b600085116104dd5760405162461bcd60e51b81526020600482015260166024820152750436f6c6c61746572616c206d757374206265203e20360541b604482015260640161048b565b600082116105245760405162461bcd60e51b815260206004820152601460248201527304475726174696f6e206d757374206265203e20360641b604482015260640161048b565b6006546001600160a01b03166105715760405162461bcd60e51b8152602060048201526012602482015271131bd85b881d1bdad95b881b9bdd081cd95d60721b604482015260640161048b565b6005546001600160a01b03166105c95760405162461bcd60e51b815260206004820152601860248201527f436f6c6c61746572616c207661756c74206e6f74207365740000000000000000604482015260640161048b565b60048054600091826105da836110ed565b90915550905060006127106105ef868a611106565b6105f99190611123565b600554604051636565f2a360e11b81523360048201526001600160a01b038981166024830152604482018b905260648201869052929350911690600090829063cacbe546906084016020604051808303816000875af1158015610660573d6000803e3d6000fd5b505050506040513d601f19601f820116820180604052508101906106849190611145565b9050604051806101400160405280336001600160a01b031681526020018b81526020018a8152602001896001600160a01b03168152602001828152602001888152602001428152602001878152602001848c6106e0919061115e565b81526001602091820181905260008781526002808452604091829020855181546001600160a01b039182166001600160a01b0319918216178355958701518286015592860151918101919091556060850151600382018054919093169416939093179055608083015160048084019190915560a0840151600584015560c0840151600684015560e0840151600784015561010084015160088401556101208401516009840180549193909260ff199092169184908111156107a3576107a3610f14565b02179055505033600081815260036020908152604080832080546001810182559084529190922001879055600654905163a9059cbb60e01b81526004810192909252602482018d90526001600160a01b0316915063a9059cbb906044016020604051808303816000875af115801561081f573d6000803e3d6000fd5b505050506040513d601f19601f820116820180604052508101906108439190611171565b6108865760405162461bcd60e51b8152602060048201526014602482015273131bd85b881d1c985b9cd9995c8819985a5b195960621b604482015260640161048b565b604080518b8152602081018b9052339186917f3373919ad665425d2cddb4072830e5935b6ee308440fa99b23383648da473bc0910160405180910390a3505060018055509695505050505050565b6108dc610dda565b600082815260026020526040902080546001600160a01b031633146109345760405162461bcd60e51b815260206004820152600e60248201526d2737ba103637b0b71037bbb732b960911b604482015260640161048b565b6001600982015460ff16600481111561094f5761094f610f14565b1461098e5760405162461bcd60e51b815260206004820152600f60248201526e4c6f616e206e6f742061637469766560881b604482015260640161048b565b80600801548211156109d45760405162461bcd60e51b815260206004820152600f60248201526e082dadeeadce840e8dede40d0d2ced608b1b604482015260640161048b565b6006546001600160a01b0316610a215760405162461bcd60e51b8152602060048201526012602482015271131bd85b881d1bdad95b881b9bdd081cd95d60721b604482015260640161048b565b6006546040516323b872dd60e01b8152336004820152306024820152604481018490526001600160a01b03909116906323b872dd906064016020604051808303816000875af1158015610a78573d6000803e3d6000fd5b505050506040513d601f19601f82011682018060405250810190610a9c9190611171565b610ae85760405162461bcd60e51b815260206004820152601960248201527f52657061796d656e74207472616e73666572206661696c656400000000000000604482015260640161048b565b81816008016000828254610afc9190611193565b90915550506008810154600003610b815760098101805460ff191660021790556005546004808301546040516307e641a760e11b8152918201526001600160a01b03909116908190630fcc834e90602401600060405180830381600087803b158015610b6757600080fd5b505af1158015610b7b573d6000803e3d6000fd5b50505050505b827f040cee90ee4799897c30ca04e5feb6fa43dbba9b6d084b4b257cdafd84ba013e83604051610bb391815260200190565b60405180910390a250610bc560018055565b5050565b610bd1610d5d565b600680546001600160a01b0319166001600160a01b0392909216919091179055565b60008181526002602052604090206001600982015460ff166004811115610c1c57610c1c610f14565b14610c5b5760405162461bcd60e51b815260206004820152600f60248201526e4c6f616e206e6f742061637469766560881b604482015260640161048b565b80600701548160060154610c6f919061115e565b4211610cb05760405162461bcd60e51b815260206004820152601060248201526f4c6f616e206e6f74206f76657264756560801b604482015260640161048b565b60098101805460ff1916600417905560405182907faf91ffe368225045d42f7c2b4b90feb438133ac1e375e73bc9066652b70a1d7790600090a25050565b60036020528160005260406000208181548110610d0a57600080fd5b90600052602060002001600091509150505481565b610d27610d5d565b6001600160a01b038116610d5157604051631e4fbdf760e01b81526000600482015260240161048b565b610d5a81610d8a565b50565b6000546001600160a01b0316331461043e5760405163118cdaa760e01b815233600482015260240161048b565b600080546001600160a01b038381166001600160a01b0319831681178455604051919092169283917f8be0079c531659141344cd1fd0a4f28419497f9722a3daafe3b4186f6b6457e09190a35050565b600260015403610dfd57604051633ee5aeb560e01b815260040160405180910390fd5b6002600155565b60405180610140016040528060006001600160a01b03168152602001600081526020016000815260200160006001600160a01b03168152602001600081526020016000815260200160008152602001600081526020016000815260200160006004811115610e7457610e74610f14565b905290565b80356001600160a01b0381168114610e9057600080fd5b919050565b600060208284031215610ea757600080fd5b610eb082610e79565b9392505050565b6020808252825182820181905260009190848201906040850190845b81811015610eef57835183529284019291840191600101610ed3565b50909695505050505050565b600060208284031215610f0d57600080fd5b5035919050565b634e487b7160e01b600052602160045260246000fd5b60058110610f4857634e487b7160e01b600052602160045260246000fd5b9052565b81516001600160a01b03168152610140810160208301516020830152604083015160408301526060830151610f8c60608401826001600160a01b03169052565b506080830151608083015260a083015160a083015260c083015160c083015260e083015160e083015261010080840151818401525061012080840151610fd482850182610f2a565b505092915050565b600080600080600060a08688031215610ff457600080fd5b853594506020860135935061100b60408701610e79565b94979396509394606081013594506080013592915050565b6000806040838503121561103657600080fd5b50508035926020909101359150565b6000806040838503121561105857600080fd5b61106183610e79565b946020939093013593505050565b6001600160a01b038b81168252602082018b9052604082018a9052881660608201526080810187905260a0810186905260c0810185905260e08101849052610100810183905261014081016110c8610120830184610f2a565b9b9a5050505050505050505050565b634e487b7160e01b600052601160045260246000fd5b6000600182016110ff576110ff6110d7565b5060010190565b808202811582820484141761111d5761111d6110d7565b92915050565b60008261114057634e487b7160e01b600052601260045260246000fd5b500490565b60006020828403121561115757600080fd5b5051919050565b8082018082111561111d5761111d6110d7565b60006020828403121561118357600080fd5b81518015158114610eb057600080fd5b8181038181111561111d5761111d6110d756fea2646970667358221220b733df6208a371989cfe245c66dd1d79faf4b066f56f633baa95ca8654d3cb9864736f6c63430008140033",
  "linkReferences": {},
  "deployedLinkReferences": {}
}