{
  "_format": "hh-sol-artifact-1",
  "contractName": "CollateralVault",
  "sourceName": "contracts/core/CollateralVault.sol",
  "abi": [
    {
      "inputs": [],
      "stateMutability": "nonpayable",
      "type": "constructor"
    },
    {
      "inputs": [
        {
          "internalType": "address",
          "name": "owner",
          "type": "address"
        }
      ],
      "name": "OwnableInvalidOwner",
      "type": "error"
    },
    {
      "inputs": [
        {
          "internalType": "address",
          "name": "account",
          "type": "address"
        }
      ],
      "name": "OwnableUnauthorizedAccount",
      "type": "error"
    },
    {
      "inputs": [],
      "name": "ReentrancyGuardReentrantCall",
      "type": "error"
    },
    {
      "anonymous": false,
      "inputs": [
        {
          "indexed": true,
          "internalType": "uint256",
          "name": "collateralId",
          "type": "uint256"
        },
        {
          "indexed": true,
          "internalType": "address",
          "name": "owner",
          "type": "address"
        },
        {
          "indexed": false,
          "internalType": "address",
          "name": "token",
          "type": "address"
        },
        {
          "indexed": false,
          "internalType": "uint256",
          "name": "amount",
          "type": "uint256"
        },
        {
          "indexed": false,
          "internalType": "uint256",
          "name": "loanId",
          "type": "uint256"
        }
      ],
      "name": "CollateralLocked",
      "type": "event"
    },
    {
      "anonymous": false,
      "inputs": [
        {
          "indexed": true,
          "internalType": "uint256",
          "name": "collateralId",
          "type": "uint256"
        },
        {
          "indexed": true,
          "internalType": "address",
          "name": "recipient",
          "type": "address"
        }
      ],
      "name": "CollateralSeized",
      "type": "event"
    },
    {
      "anonymous": false,
      "inputs": [
        {
          "indexed": true,
          "internalType": "uint256",
          "name": "collateralId",
          "type": "uint256"
        }
      ],
      "name": "CollateralUnlocked",
      "type": "event"
    },
    {
      "anonymous": false,
      "inputs": [
        {
          "indexed": true,
          "internalType": "address",
          "name": "previousOwner",
          "type": "address"
        },
        {
          "indexed": true,
          "internalType": "address",
          "name": "newOwner",
          "type": "address"
        }
      ],
      "name": "OwnershipTransferred",
      "type": "event"
    },
    {
      "inputs": [
        {
          "internalType": "uint256",
          "name": "",
          "type": "uint256"
        }
      ],
      "name": "collaterals",
      "outputs": [
        {
          "internalType": "address",
          "name": "owner",
          "type": "address"
        },
        {
          "internalType": "address",
          "name": "token",
          "type": "address"
        },
        {
          "internalType": "uint256",
          "name": "amount",
          "type": "uint256"
        },
        {
          "internalType": "uint256",
          "name": "loanId",
          "type": "uint256"
        },
        {
          "internalType": "bool",
          "name": "locked",
          "type": "bool"
        }
      ],
      "stateMutability": "view",
      "type": "function"
    },
    {
      "inputs": [
        {
          "internalType": "uint256",
          "name": "collateralId",
          "type": "uint256"
        }
      ],
      "name": "getCollateralValue",
      "outputs": [
        {
          "internalType": "uint256",
          "name": "",
          "type": "uint256"
        }
      ],
      "stateMutability": "view",
      "type": "function"
    },
    {
      "inputs": [],
      "name": "loanCore",
      "outputs": [
        {
          "internalType": "address",
          "name": "",
          "type": "address"
        }
      ],
      "stateMutability": "view",
      "type": "function"
    },
    {
      "inputs": [
        {
          "internalType": "address",
          "name": "token",
          "type": "address"
        },
        {
          "internalType": "uint256",
          "name": "amount",
          "type": "uint256"
        },
        {
          "internalType": "uint256",
          "name": "loanId",
          "type": "uint256"
        }
      ],
      "name": "lockCollateral",
      "outputs": [
        {
          "internalType": "uint256",
          "name": "",
          "type": "uint256"
        }
      ],
      "stateMutability": "nonpayable",
      "type": "function"
    },
    {
      "inputs": [
        {
          "internalType": "address",
          "name": "owner",
          "type": "address"
        },
        {
          "internalType": "address",
          "name": "token",
          "type": "address"
        },
        {
          "internalType": "uint256",
          "name": "amount",
          "type": "uint256"
        },
        {
          "internalType": "uint256",
          "name": "loanId",
          "type": "uint256"
        }
      ],
      "name": "lockCollateralFor",
      "outputs": [
        {
          "internalType": "uint256",
          "name": "",
          "type": "uint256"
        }
      ],
      "stateMutability": "nonpayable",
      "type": "function"
    },
    {
      "inputs": [],
      "name": "owner",
      "outputs": [
        {
          "internalType": "address",
          "name": "",
          "type": "address"
        }
      ],
      "stateMutability": "view",
      "type": "function"
    },
    {
      "inputs": [],
      "name": "renounceOwnership",
      "outputs": [],
      "stateMutability": "nonpayable",
      "type": "function"
    },
    {
      "inputs": [
        {
          "internalType": "uint256",
          "name": "collateralId",
          "type": "uint256"
        },
        {
          "internalType": "address",
          "name": "recipient",
          "type": "address"
        }
      ],
      "name": "seizeCollateral",
      "outputs": [],
      "stateMutability": "nonpayable",
      "type": "function"
    },
    {
      "inputs": [
        {
          "internalType": "address",
          "name": "_loanCore",
          "type": "address"
        }
      ],
      "name": "setLoanCore",
      "outputs": [],
      "stateMutability": "nonpayable",
      "type": "function"
    },
    {
      "inputs": [
        {
          "internalType": "address",
          "name": "newOwner",
          "type": "address"
        }
      ],
      "name": "transferOwnership",
      "outputs": [],
      "stateMutability": "nonpayable",
      "type": "function"
    },
    {
      "inputs": [
        {
          "internalType": "uint256",
          "name": "collateralId",
          "type": "uint256"
        }
      ],
      "name": "unlockCollateral",
      "outputs": [],
      "stateMutability": "nonpayable",
      "type": "function"
    },
    {
      "inputs": [
        {
          "internalType": "address",
          "name": "",
          "type": "address"
        }
      ],
      "name": "userNonce",
      "outputs": [
        {
          "internalType": "uint256",
          "name": "",
          "type": "uint256"
        }
      ],
      "stateMutability": "view",
      "type": "function"
    },
    {
      "inputs": [
        {
          "internalType": "address",
          "name": "",
          "type": "address"
        },
        {
          "internalType": "address",
          "name": "",
          "type": "address"
        }
      ],
      "name": "userTokenBalance",
      "outputs": [
        {
          "internalType": "uint256",
          "name": "",
          "type": "uint256"
        }
      ],
      "stateMutability": "view",
      "type": "function"
    }
  ],
  "bytecode": "0x608060405234801561001057600080fd5b50338061003757604051631e4fbdf760e01b81526000600482015260240160405180910390fd5b6100408161004a565b506001805561009a565b600080546001600160a01b038381166001600160a01b0319831681178455604051919092169283917f8be0079c531659141344cd1fd0a4f28419497f9722a3daafe3b4186f6b6457e09190a35050565b610c23806100a96000396000f3fe608060405234801561001057600080fd5b50600436106100cf5760003560e01c8063715018a61161008c578063ac9cf4db11610066578063ac9cf4db1461022c578063b47064c81461023f578063cacbe5461461026a578063f2fde38b1461027d57600080fd5b8063715018a6146101ef57806382fee08f146101f75780638da5cb5b1461021b57600080fd5b80630fcc834e146100d45780631691f706146100e957806324c1173b1461010f5780632692f36d146101915780632e04b8e7146101bc578063522d26a2146101dc575b600080fd5b6100e76100e2366004610a55565b610290565b005b6100fc6100f7366004610a8a565b61046d565b6040519081526020015b60405180910390f35b61015c61011d366004610a55565b6002602081905260009182526040909120805460018201549282015460038301546004909301546001600160a01b039283169490921692909160ff1685565b604080516001600160a01b0396871681529590941660208601529284019190915260608301521515608082015260a001610106565b6005546101a4906001600160a01b031681565b6040516001600160a01b039091168152602001610106565b6100fc6101ca366004610abd565b60046020526000908152604090205481565b6100e76101ea366004610abd565b610495565b6100e76104bf565b6100fc610205366004610a55565b6000908152600260208190526040909120015490565b6000546001600160a01b03166101a4565b6100e761023a366004610ad8565b6104d3565b6100fc61024d366004610b04565b600360209081526000928352604080842090915290825290205481565b6100fc610278366004610b2e565b61069f565b6100e761028b366004610abd565b610973565b6102986109ae565b6000818152600260205260409020600481015460ff166102f25760405162461bcd60e51b815260206004820152601060248201526f105b1c9958591e481d5b9b1bd8dad95960821b60448201526064015b60405180910390fd5b80546001600160a01b031633148061031457506005546001600160a01b031633145b6103605760405162461bcd60e51b815260206004820152601860248201527f4e6f7420617574686f72697a656420746f20756e6c6f636b000000000000000060448201526064016102e9565b60048101805460ff19169055600281015481546001600160a01b0390811660009081526003602090815260408083206001870154909416835292905290812080549091906103af908490610b86565b909155505060018101548154600283015460405163a9059cbb60e01b81526001600160a01b039283166004820152602481019190915291169063a9059cbb906044016020604051808303816000875af1158015610410573d6000803e3d6000fd5b505050506040513d601f19601f820116820180604052508101906104349190610b9f565b5060405182907f16bff137dc9a751d3af96d5df7f9066925d7a7e669ec46ebf86326aea0696e1890600090a25061046a60018055565b50565b60006104776109ae565b6104833385858561069f565b905061048e60018055565b9392505050565b61049d6109d8565b600580546001600160a01b0319166001600160a01b0392909216919091179055565b6104c76109d8565b6104d16000610a05565b565b6104db6109ae565b6000828152600260205260409020600481015460ff1661053d5760405162461bcd60e51b815260206004820152601760248201527f416c726561647920756e6c6f636b65642f7365697a656400000000000000000060448201526064016102e9565b6005546001600160a01b031633146105885760405162461bcd60e51b815260206004820152600e60248201526d139bdd08185d5d1a1bdc9a5e995960921b60448201526064016102e9565b60048101805460ff19169055600281015481546001600160a01b0390811660009081526003602090815260408083206001870154909416835292905290812080549091906105d7908490610b86565b90915550506001810154600282015460405163a9059cbb60e01b81526001600160a01b038581166004830152602482019290925291169063a9059cbb906044016020604051808303816000875af1158015610636573d6000803e3d6000fd5b505050506040513d601f19601f8201168201806040525081019061065a9190610b9f565b506040516001600160a01b0383169084907ffe88ad2b82909d5157d1ec871c292a21908ace89709d033825c2e18a4a1c1d6b90600090a35061069b60018055565b5050565b60006106a96109ae565b600083116106ee5760405162461bcd60e51b81526020600482015260126024820152710416d6f756e74206d757374206265203e20360741b60448201526064016102e9565b6005546001600160a01b031633148061070f5750336001600160a01b038616145b61074c5760405162461bcd60e51b815260206004820152600e60248201526d139bdd08185d5d1a1bdc9a5e995960921b60448201526064016102e9565b6040516323b872dd60e01b81526001600160a01b038681166004830152306024830152604482018590528516906323b872dd906064016020604051808303816000875af11580156107a1573d6000803e3d6000fd5b505050506040513d601f19601f820116820180604052508101906107c59190610b9f565b506001600160a01b0385166000908152600460205260408120805490826107eb83610bc1565b909155506040516bffffffffffffffffffffffff19606089811b8216602084015288901b166034820152604881018690524260688201526088810182905290915060009060a80160408051601f19818403018152828252805160209182012060a0840183526001600160a01b03808c168086528b82168685018181528787018d8152606089018d8152600160808b0181815260008981526002808c528c82209d518e54908b166001600160a01b0319918216178f559651938e01805494909a1693909616929092179097559151928a019290925590516003808a019190915593516004909801805498151560ff1990991698909817909755908652908352838520908552909152908220805491935087929091610909908490610bda565b9091555050604080516001600160a01b038881168252602082018890529181018690529088169082907f7c9e3dd33affc36306d56576c3879e849f3f8c1919bd182786d96482c00694809060600160405180910390a391505061096b60018055565b949350505050565b61097b6109d8565b6001600160a01b0381166109a557604051631e4fbdf760e01b8152600060048201526024016102e9565b61046a81610a05565b6002600154036109d157604051633ee5aeb560e01b815260040160405180910390fd5b6002600155565b6000546001600160a01b031633146104d15760405163118cdaa760e01b81523360048201526024016102e9565b600080546001600160a01b038381166001600160a01b0319831681178455604051919092169283917f8be0079c531659141344cd1fd0a4f28419497f9722a3daafe3b4186f6b6457e09190a35050565b600060208284031215610a6757600080fd5b5035919050565b80356001600160a01b0381168114610a8557600080fd5b919050565b600080600060608486031215610a9f57600080fd5b610aa884610a6e565b95602085013595506040909401359392505050565b600060208284031215610acf57600080fd5b61048e82610a6e565b60008060408385031215610aeb57600080fd5b82359150610afb60208401610a6e565b90509250929050565b60008060408385031215610b1757600080fd5b610b2083610a6e565b9150610afb60208401610a6e565b60008060008060808587031215610b4457600080fd5b610b4d85610a6e565b9350610b5b60208601610a6e565b93969395505050506040820135916060013590565b634e487b7160e01b600052601160045260246000fd5b81810381811115610b9957610b99610b70565b92915050565b600060208284031215610bb157600080fd5b8151801515811461048e57600080fd5b600060018201610bd357610bd3610b70565b5060010190565b80820180821115610b9957610b99610b7056fea2646970667358221220cfd0413eddf7028f7231126d5081a0045f159aa72afc505a7ec8e5b3c8a2bfa264736f6c63430008140033",
  "linkReferences": {},
  "deployedLinkReferences": {}
}